:020000040800F2
:10000000600B0020ED010008F15300089149000841
:10001000ED53000841070008BD6D00080000000016
:10002000000000000000000000000000995A0008D5
:100030006D0C00080000000009590008195F000855
:10004000070200080702000807020008070200086C
:10005000070200080702000807020008070200085C
:10006000070200080702000807020008070200084C
:10007000070200080702000807020008F507000849
:1000800007020008070200088505000807020008AB
:10009000070200080702000807020008070200081C
:1000A000070200080702000807020008070200080C
:1000B00007020008070200080702000807020008FC
:1000C00007020008070200080702000807020008EC
:1000D00007020008AD6D00080702000807020008CB
:1000E000710C000807020008070200080702000858
:1000F00007020008070200080702000807020008BC
:1001000007020008070200080702000807020008AB
:1001100007020008070200089D5F000807020008A8
:10012000070200080702000807020008070200088B
:10013000070200080702000807020008070200087B
:10014000070200080702000807020008070200086B
:10015000070200080702000807020008070200085B
:10016000070200080702000807020008070200084B
:10017000070200080702000807020008070200083B
:10018000070200080702000807020008070200082B
:10019000070200080000000007020008070200082C
:1001A000070200080702000807020008070200080B
:1001B00007020008070200080702000807020008FB
:1001C00007020008070200080702000807020008EB
:1001D0000702000807020008DFF80CD000F0C0F9A1
:1001E00000480047C9760008600B00200648804799
:1001F00006480047FEE7FEE7FEE7FEE7FEE7FEE70C
:10020000FEE7FEE7FEE7FEE7895F0008D901000888
:100210002DE9F05F0546002092469B46884606463B
:10022000814640241BE0284641464746224600F0CE
:10023000F2F853465A46C01A914110D31146184657
:10024000224600F0D9F82D1A67EB01084F462246E6
:100250000120002100F0D0F817EB00094E41201ECC
:10026000A4F10104DFDC484631462A464346BDE896
:10027000F09F40EA01039B0703D009E008C9121F61
:1002800008C0042AFAD203E011F8013B00F8013B50
:10029000521EF9D27047D2B201E000F8012B491E7C
:1002A000FBD270470022F6E710B513460A46044613
:1002B0001946FFF7F0FF204610BD2DE9FE4F81EAF9
:1002C000030404F0004421F0004100944FF0000BBF
:1002D00023F0004350EA01045ED052EA03045BD0ED
:1002E000C3F30A54C1F30A552C44A4F2F334019425
:1002F000A0FB0254C1F3130141F48011C3F31303B3
:1003000043F4801301FB024400FB034E840A970A66
:1003100044EA815447EA8357A4FB076802958D0A93
:1003200005FB07854FEA932C04FB0C542705029D1F
:100330004FEA065847EA1637B5EB08056EEB070C8F
:10034000870E920E47EA811742EA8312A7FB020149
:10035000B6EB0B0164EB00042B0D43EA0C335E1883
:1003600044EB1C50DA465146E7FB0201C5F3130487
:100370004FEA0B3343EA14534FEA0432019C43EA39
:100380000603A4F10C040294009CCDE900B400F033
:1003900098F803B0BDE8F08F00200146F9E70EB5EC
:1003A000C10F80EAE0700844CA07002140F23343DD
:1003B0008DE80E000A460B4600F083F803B000BD3E
:1003C00001F0004330B421F0004150EA010206D0B0
:1003D0000A0DA2F56072C1F31301002A02DC30BCE1
:1003E00000207047440F44EAC104C100E01830BC4B
:1003F00000EBC25000F01FB8202A04DB203A00FABC
:1004000002F1002070479140C2F1200320FA03F36B
:10041000194390407047202A04DB203A21FA02F069
:100420000021704721FA02F3D040C2F1200291402E
:100430000843194670470029A8BF7047401C49006F
:1004400008BF20F00100704710B4B0FA80FC00FA39
:100450000CF050EA010404BF10BC704749B1CCF164
:10046000200421FA04F411FA0CF118BF01212143F0
:100470000843A3EB0C01CB1D4FEA00614FEA1020AB
:1004800042BF002010BC704700EBC350104400294D
:10049000A4BF10BC7047401C490008BF20F00100F9
:1004A00010BC704710B5141E73F1000408DA401C2C
:1004B00041F1000192185B411A4301D120F0010083
:1004C00010BD2DE9F04D92469B4611B1B1FA81F273
:1004D00002E0B0FA80F220329046FFF78DFF04462A
:1004E0000F4640EA0A0041EA0B0153465A460843C8
:1004F00013D0114653EA010019D0C8F1400250460A
:10050000FFF789FF05460E46504659464246FFF71B
:1005100073FF084305D0012004E020463946BDE8BA
:10052000F08D0020054346EAE0762C4337430A98D5
:100530006305E40AA0EB08000022FD0A44EA4754E0
:100540000A3002D500200146E9E70105101969418A
:10055000DDE9084500196941BDE8F04DA2E700005A
:10056000064C074D06E0E06840F0010394E8070000
:1005700098471034AC42F6D3FFF732FE4C92000895
:100580006C92000810B540F2AC34C2F20004204670
:1005900001F082F940F21840C2F2000001F07CF94B
:1005A000204600F049FE10BDB0B50446006804F0D6
:1005B00021FB21680546084604F020FB01464FF068
:1005C00000007DBB002908BFB0BD2068816801F034
:1005D0000D0101291BD104F0A1FA2068032101605B
:1005E00002F0F8F821688968C90704BF0020B0BD8F
:1005F000054603E020688068C00712D002F0EAF8E0
:10060000401B0328F6D320688068C007F2D0E06D55
:1006100040F01000E065206E40F0010020660120EF
:10062000B0BD0020B0BD0000B0B582B0002501957E
:100630000446006804F0E2FA002869D120683F22ED
:100640008168C8F20002114209D0E06D012540F036
:100650001000E065206E40F00100206658E004F0D4
:100660006FFA40F20012C5F20002216802F5007331
:100670001846914218BF02F5C060B1F1A04F08BF03
:10068000184604F071FA000226D402F0A3F821689B
:100690000A68D20739D1054604E000BF216808681E
:1006A000C00734D1084604F0A9FA10B9206804F054
:1006B00047FA02F08FF8401B0328EFD32068006848
:1006C000C007EBD1E06D012540F01000E065206E21
:1006D00040F0010020661BE040F24C00C2F2000036
:1006E000006842F663518009C0F23E51A0FB01014F
:1006F000880900EB40000C2101EB8000019001987B
:100700000028C2D001980138F8E7002500E0002554
:10071000284602B0B0BD000010B52DED028B044696
:10072000B0EE408A06F092FB84ED000AB0EE480A73
:1007300006F0D8FB84ED010ABDEC028B10BD000071
:10074000FEE7000030EE812ABEEE003A22EE032AD8
:100750009FED0B3A30EEC11A30EE020A21EE031A79
:1007600030EE000AB0EE082A31EE011A80EE020ADD
:1007700081EE021A80ED000A80ED011A704700BF79
:10078000D7B35D3F91ED001A30EE600A91ED063A65
:1007900091ED042A20EE011A31EE031AB4EE421A4A
:1007A000F1EE10FA0ADC91ED053AB0EE412AB4EE12
:1007B000431AF1EE10FAB8BFB0EE432A80ED002ADA
:1007C00032EE411A91ED012A91ED033A20EE020A30
:1007D00021EE031A9FED062A91ED064A31EE000A3A
:1007E00020EE020A34EE000A81ED060A704700BFCF
:1007F00017B7D13880B540F28440C2F2000001F052
:1008000069FD80BD80B501686FF007024CF6CD43ED
:1008100052FA81F2CCF6CC43A2FB032C40F2084200
:10082000C4F20202D0F844E002F58363914238BF7B
:1008300002F57E732EF00301194402F58F6ECCF39E
:10084000041301229A40C0E9121E026580BD000017
:10085000017940F600120139C4F2020202EB810371
:1008600002F1400C01F01F01012202FA01F1C0E97E
:10087000153CC1657047000070B5D0E913C4D0F8CD
:1008800054E0CCF80440BEF1000F1CBFD0E916C400
:10089000CCF80440D0E9106E0468D0F808C00EF01F
:1008A0001F00012505FA00F0706008466360BCF186
:1008B000100F04BF10460A46A060E26070BD000041
:1008C0002DE9F04F81B02DED048B8EB09FEDA68AFF
:1008D000002900F041810E461C469346013A002152
:1008E000334600BF12F8017F2E2F08BF0121013BC4
:1008F000F8D1C9B2012940F02F81411E092901D246
:1009000002200BE0A0F10A015A2901D2032005E0E0
:1009100064388008E02800F21F8104201BF80020C2
:10092000311A2D2A01D02B2A04D14FF0010A8DF85B
:10093000182001E04FF0000A00EB0A090BEB090751
:100940003846A1EB0A0507F019FBB0B1049509F18F
:1009500001054FF0000800BF1FFA89F01BF80000E6
:10096000002800F0F9802E2847D008F1010009F195
:1009700001091FFA80F80135EEE778782E286BD14F
:1009800006AB03EB0A0042F6306109F1020803945A
:1009900001800AF10204B045A5F1020080F0A180B7
:1009A00004904844CDF808A001300025C2460590C7
:1009B0001BF808100BEB0800E2B299540134994679
:1009C00007F0DCFA07460598A0EB080081B20A2080
:1009D00007F0A0F90AF1010A00FB07551FFA8AF097
:1009E0004B46B04208F10108E2D300EE105ADDF8A0
:1009F00008A00498B8EEC08A75E0B8F1000FA9EB22
:100A000008000394CDE9010A2BD080B24FF0000911
:100A100057464FF0000A0024059000BF0598FAB22F
:100A200009EB00010BEB01001BF8011006AB995418
:100A3000013707F0A3FA06466FEA0900404481B285
:100A40000A2007F067F90AF1010A00FB06441FFAC1
:100A50008AF9C845E2D806E006A8032106F08AFA1A
:100A60007AE000245746019800EE104A18FA80F008
:100A70001BF80000B8EEC08A2E284ED1F8B206ABA3
:100A80002E21DDF8109019546FEA080081445FEAC6
:100A9000094007F10107CDF810903DD01FFA89F009
:100AA0001BFA85FA00260025002405901AF8061086
:100AB0000AEB0600FAB29954984607F05FFA8346AB
:100AC000E843484481B20A2007F024F900FB0B44B4
:100AD0000598013643460135864207F10107E5D303
:100AE0001BE09FED228A81B20A2007F013F900EE85
:100AF000100AB8EEC00A88EE008ABAF1000FB1EE13
:100B0000480A18BFB0EE408A200625D00398E2B20A
:100B100006A9FFF7AEFB1FE00024049800EE104A80
:100B200081B20A20B8EEC09A07F0F4F800EE100A7D
:100B3000B8EEC00A89EE000A0298002830EE088A52
:100B4000B1EE480A18BFB0EE408A380604D00398C8
:100B5000FAB206A9FFF78DFBB0EE480A0EB0BDEC65
:100B6000048B01B0BDE8F08FF0FF7F49000000006A
:100B70002DE9F04F8BB01F4693468A4649B10021BC
:100B80008AB21BF802202E2A0ED001318AB25245B9
:100B9000F6D3411E092901D202240FE0A0F10A0177
:100BA0005A2906D2032409E04FF6FF77C0F20F0757
:100BB00058E064388008E02850D804241BF804006A
:100BC0002D2801D02B2803D101258DF80C0000E041
:100BD000002566190BEB060007F0D0F918B14FF6A7
:100BE000FF71884208D14FF6FF7703A80321C0F2B6
:100BF0000F0706F0BFF935E05645CDE9017520D263
:100C0000E14368425144084400EB060800270DF117
:100C10000C0900BF1BF806100BEB0600EAB209F83E
:100C20000210013507F0AAF90446A8EB060081B2CC
:100C30000A2007F06FF800FB04770136B245E9D1CE
:100C400000E000270298002818BF7F42280609D03C
:100C50000198EAB203A9FFF70CFB03E04FF6FF7718
:100C6000C0F20F0738460BB0BDE8F08F70470000A8
:100C700080B54FF4805001F0B3FC4FF4005001F008
:100C8000AFFC4FF4804001F0ABFC80BDEFF310806F
:100C900072B600BFFEE7000070B582B004460020C7
:100CA000019094F85800012801D1022533E0012079
:100CB00084F8580020460E46FFF776FC0546E06DA6
:100CC00015B140F0100022E041F2021188430230D9
:100CD000E0652068314604F08DF84DF60266C0F2FA
:100CE000040600BF206803F07DFF60B10198013069
:100CF00001900198B042F5D3E06D012540F010005D
:100D000020F0020003E0E06D012161F30100E065E5
:100D1000002084F85800284602B070BD70470000DB
:100D20002DE9F04381B004460020009094F858006B
:100D3000012802D14FF0020839E260690D46012115
:100D400084F8581010B1296A012919D16868092856
:100D500040D12868A96A4FF4785202EA504021B184
:100D6000EA6A01F07C0111430843216844F2000360
:100D7000CA6CC0F210431A400243CA64606629E09C
:100D8000A06E00284FF000000AD1AA6A6066A1F1A7
:100D90000100A16622B102F07C01EA6A0843104317
:100DA000D5E9002101F01F01C2F3846202FA01F1CA
:100DB0000843D4E91921013940EA0200C4E91901C4
:100DC00008D1216844F20003CA6CC0F210431A40F3
:100DD0001043C864206803F0EFFE98B92068C1682A
:100DE00095F8252095F8263021F44011002A4FEA85
:100DF000435201D0114304E095F82430114341EAF5
:100E00000351C160206803F009FF216806460846C7
:100E100003F0D2FE304302D04FF00008E8E0A86AA9
:100E200060B1E86A50B195F8250001280FD1E06D56
:100E30004FF0010840F02000E0650FE0206895F8D1
:100E40002520C168012A04D141F0007103E0206827
:100E5000C16821F000714FF00008C160206895F86A
:100E600030200169012A08D1D5E90D2321F4FF7151
:100E70001143194341F0020101E021F00201016137
:100E8000AB68296803F10040B0FA80F04709206898
:100E9000B3F1004218BF1A46FE0703F0FBFE2068BC
:100EA000314603F0A1FF206829696B69C2680429F3
:100EB00040F088804FF6FF770021C0F2070703F06B
:100EC0006DFE216806460846002103F067FE7203A6
:100ED00090FAA0F12A68B1FA81F108BFC0F38461E9
:100EE00092FAA2F0B0FA80F0530308BFC2F3846014
:100EF000814203D12068002103F068FF20680121AE
:100F000003F04CFE216806460846012103F046FE28
:100F100090FAA0F12A68B1FA81F13E4208BFC0F30D
:100F2000846192FAA2F0B0FA80F03A4208BFC2F3AC
:100F30008460814203D12068012103F047FF2068CB
:100F4000022103F02BFE216806460846022103F029
:100F500025FE90FAA0F12A68B1FA81F13E4208BF5D
:100F6000C0F3846192FAA2F0B0FA80F03A4208BF6E
:100F7000C2F38460814203D12068022103F026FF7E
:100F80002068032103F00AFE216806460846032173
:100F900003F004FE90FAA0F12A68B1FA81F13E4212
:100FA00008BFC0F3846192FAA2F0B0FA80F03A422E
:100FB00008BFC2F3846081421AD12068032103F084
:100FC00005FF15E0062707EA92072A68BB4003F0F1
:100FD000C3FE20682969AA6903F0E8FE2A7F206819
:100FE000013AB2FA82F229695209520603F0CEFEA2
:100FF000206803F007FE00284DD120682968EA68C0
:1010000003F070FEE8680021C4F27F01884242D1FB
:10101000D5F800E04FF080619EFAAEF27346B2FA66
:1010200082F76FF3DF433A462068002B08BF4FEA90
:101030009E62561C01EB826106F01E0C01F0F84224
:1010400006F01F010126BCF1090F06FA01F60DD8C2
:1010500042EA0601002B08BF4FEA9E677A1C02F0A5
:101060001F0202EB420241EA025111E0002B08BFCD
:101070004FEA9E67791C01F01F01002301EB41013B
:10108000CFF6206303EB01513243114341F000716D
:10109000AA6803F0FFFD688848F20801084200F0E2
:1010A000838040F20037C5F20007216807F58066AB
:1010B000A7F500793046494504BF40F20030C5F23B
:1010C0000000B1F1A04F04BF40F20030C5F20000B3
:1010D00003F04EFD29680022CCF22132914204D067
:1010E0001022C9F2C002914230D102022ED42168EE
:1010F00040F20062C5F20002914202D0B1F1A04F6D
:1011000052D1494508BF3E46B1F1A04F08BF3E4607
:1011100040F40001304603F007FE40F24C00C2F2FA
:101120000000006842F663518009C0F23E51A0FB06
:101130000101880900EB4000182101EB800000BF8D
:101140000090009880B300980138F9E70022CCF2B3
:101150005272914208BF10F0807218D00022CCF673
:101160008432914208BF10F480011DD12168B1F191
:10117000A04F08D040F20012C5F20002914213D0F5
:10118000494518BF374640F4800138460AE02168D7
:10119000494508BF3E46B1F1A04F08BF3E4640F06A
:1011A0008071304603F0C0FD002084F858004046AE
:1011B00001B0BDE8F083000080B540F2AC31C2F26E
:1011C0000001884200D080BD40F2AA30C2F2000087
:1011D0000078012805D0022818BF80BD06F0F0FA7B
:1011E00080BD40F2600040F2640140F26802C2F249
:1011F0000000C2F20001C2F2000206F0ABF880BDAE
:1012000040F20F1291420CD040F2152291420CD0C4
:1012100040F21B320068914214BF80308C3000686D
:101220007047006884300068704700688830006844
:101230007047000070470000F0B581B040F20047F1
:10124000C5F2000701680446A7F54070A7F5807253
:101250008142104618BF07F54070B1F1A04F08BF9A
:10126000104603F091FC21680646084603F0A4FCF2
:1012700008B1022585E02068C168C06C002908D447
:1012800010F4C07005D1E06D012540F02000E0654C
:1012900077E094F85800012801D1022571E001207F
:1012A00084F858002046FFF7BFF9054618B1002022
:1012B00084F8580065E0E06D43F20101C00546BFC7
:1012C000206E20F0080000202066E06D40F2001E35
:1012D000884300F58050E0652068C5F2000E40F2BA
:1012E000005C7045C5F2000C04D00346604508BFA1
:1012F0003B4601E04FF0A043002E18BF834203D1CC
:10130000E36D23F48013E36560230360002384F816
:101310005830C3689B0203D5436843F4806343603D
:10132000A36941686FF04002082B08BF6FF02002EC
:1013300001EA0201416041684FF0200308BF4023E9
:1013400019437045416006D00146604508BF3946E3
:10135000814204D10AE04FF0A041814206D0072E1D
:101360000BD80121B14011F0C10F06D003F01CFCD5
:1013700038B9206803F02CFC03E0E06D40F48010E5
:10138000E065284601B0F0BD7047000070470000DE
:101390002DE9F04383B0044690F85800012803D1AA
:1013A000022003B0BDE8F0830E460120002184F83E
:1013B000580002910191206840F20015B0F1A04F51
:1013C000C5F200050AD040F20041C5F20001884292
:1013D00007D105F58060002131B10EE0284619B132
:1013E0000BE00020012141B903F018FC21680746F9
:1013F000084603F013FC38430AD0E06D40F02000AB
:10140000E0650120002184F8581003B0BDE8F083A6
:1014100020684FF4C1673168A84208BF4FF40277D3
:10142000B0F1A04F08BF4FF40277EA59002922F427
:10143000604118D0726894F83830114340F48070DD
:1014400041EA4331A842E9511CD14FF0A04003F0DA
:10145000D9FB8146284603F0D5FB804658EA0900AF
:1014600023D00020CEE740F48070A842E95125D176
:101470004FF0A04003F0C6FB0646284603F0C2FB2F
:1014800080462BE005F5407003F0BCFB804605F577
:10149000806003F0B7FB48EA000805F5A06003F0A0
:1014A000B1FB814658EA0900DBD1E85940F61F71CB
:1014B00088433168B2680843104318E005F540706E
:1014C00003F0A0FB064605F5806003F09BFB40EAB5
:1014D000060805F5A06003F095FB064658EA0600ED
:1014E00001D000208EE7E85940F61F718843E8518B
:1014F000002087E72DE9F04182B0044600200190EA
:1015000094F85800012801D10221BCE120680D4661
:10151000012184F8581003F07DFB28B1E06D012112
:1015200040F02000E065ABE12068D5E9002103F040
:1015300081FB206803F06EFB21680646084603F035
:1015400037FB304340F0B880AB68296803F10040B6
:10155000B0FA80F047092068B3F1004218BF1A467C
:10156000FE0703F085FB2068314603F037FC206856
:1015700029696B69C268042940F088804FF6FF77BB
:101580000021C0F2070703F003FB21680646084666
:10159000002103F0FDFA720390FAA0F12A68B1FA73
:1015A00081F108BFC0F3846192FAA2F0B0FA80F032
:1015B000530308BFC2F38460814203D12068002135
:1015C00003F0FCFB2068012103F0E2FA21680646E3
:1015D0000846012103F0DCFA90FAA0F12A68B1FA7A
:1015E00081F13E4208BFC0F3846192FAA2F0B0FAE2
:1015F00080F03A4208BFC2F38460814203D1206880
:10160000012103F0DBFB2068022103F0C1FA21680D
:1016100006460846022103F0BBFA90FAA0F12A68B8
:10162000B1FA81F13E4208BFC0F3846192FAA2F0A0
:10163000B0FA80F03A4208BFC2F38460814203D11D
:101640002068022103F0BAFB2068032103F0A0FA0E
:10165000216806460846032103F09AFA90FAA0F1A1
:101660002A68B1FA81F13E4208BFC0F3846192FA60
:10167000A2F0B0FA80F03A4208BFC2F3846081421F
:101680001AD12068032103F099FB15E0062707EA29
:1016900092072A68BB4003F04DFB20682969AA69BC
:1016A00003F07CFB2A7F2068013AB2FA82F22969B2
:1016B0005209520603F062FB206803F09FFA0028EB
:1016C0004DD120682968EA6803F0F6FAE86800213D
:1016D000C4F27F01884242D1D5F800E04FF080612A
:1016E0009EFAAEF27346B2FA82F76FF3DF433A46E0
:1016F0002068002B08BF4FEA9E62561C01EB8261F6
:1017000006F01E0C01F0F84206F01F010126BCF1A4
:10171000090F06FA01F60DD842EA0601002B08BFB0
:101720004FEA9E677A1C02F01F0202EB420241EA76
:10173000025111E0002B08BF4FEA9E67791C01F0AF
:101740001F01002301EB4101CFF6206303EB0151A0
:101750003243114341F00071AA6803F089FA6888A6
:1017600048F20801084274D040F20036C5F2000683
:10177000216806F58067A6F500783846414504BF24
:1017800040F20030C5F20000B1F1A04F04BF40F2BA
:101790000030C5F2000003F0E7F929680022CCF21E
:1017A0002132914204D01022C9F2C002914234D1B8
:1017B000020232D4216840F20062C5F20002914276
:1017C00002D0B1F1A04F44D1414508BF3746B1F135
:1017D000A04F08BF374640F40001384603F09EFA98
:1017E00040F24C00C2F20000006842F663518009EA
:1017F000C0F23E51A0FB0101880900EB40000C2122
:1018000001EB80000190019818B300BF01980138E6
:10181000019001980028F9D11BE00022CCF252720D
:10182000914208BF10F0807215D00022CCF68432AD
:1018300091424FF0000108BF10F4800220D12168CE
:10184000B1F1A04F16D040F20012C5F20002914251
:101850000DD1002114E02168414508BF3746B1F1A0
:10186000A04F08BF374640F08071384605E041453B
:1018700018BF3E4640F48001304603F04FFA002185
:10188000002084F85800084602B0BDE8F08100004E
:1018900070470000704700002DE9F04F81B040F222
:1018A000004B0168C5F2000B0446ABF540700BF528
:1018B00040790E684F68009081424846ABF58075CC
:1018C00008BF2846B1F1A04F08BF284603F058F9D9
:1018D0003E40B10780460CD5E06DC00603D4E06DF4
:1018E00040F40060E0652046FFF718FA2068022106
:1018F000016040F2001A7007C5F2000A58BF5FEAA3
:1019000006705BD5E06DC00603D4E06D40F4007056
:10191000E065206803F086F9002849D0206850452A
:1019200008D040F20051C5F200018842014608BFCC
:10193000594601E04FF0A041814201460AD0B8F17A
:10194000090F19D8012101FA08F140F221221142B0
:10195000014611D0C96889042AD40168090727D52E
:1019600003F058F9A0B1E06D40F01000E065206E82
:1019700040F0010020661BE0504500F0FB8040F283
:101980000051C5F200018842014608BF5946E1E70F
:101990002068416821F00C014160E06D20F4807006
:1019A000E065E06DC00403D4E06D40F00100E06547
:1019B0002046FFF76DFF20680C210160B00658BF7C
:1019C0005FEA466066D5E06DC00603D4E06D40F482
:1019D0000050E065206803F0F3F8216807460846E8
:1019E00003F020F92168514508D040F20052C5F2B9
:1019F000000291420A4608BF5A4601E04FF0A04259
:101A00008A420A4609D0B8F1070F21D8012202FA0A
:101A100008F212F0C10F0A461AD0D268A7B3930198
:101A200003D588B312F400502ED1086892022BD44B
:101A300010F0400028D0084603F0BAF8A0B1E06DDD
:101A400040F01000E065206E40F0010020661BE0D1
:101A5000514500F08C8040F20052C5F200029142E4
:101A60000A4608BF5A46D8E72068416821F060015D
:101A70004160E06D20F48050E065E06DC00503D466
:101A8000E06D40F00100E0652046FFF795FB20681F
:101A90006021016030060AD4F00514D4B0051FD4CB
:101AA000F0062AD470054AD401B0BDE8F08FE06D8D
:101AB00040F48030E065204600F072F92068802113
:101AC0000160F005EAD5E06D40F40030E0652046A5
:101AD000FFF75AFC20684FF480710160B005DFD534
:101AE000E06D40F48020E0652046FFF74FFC206861
:101AF0004FF400710160F006D4D5E06B78B1206836
:101B0000B8F1000F2DD00099884208BFA946B0F166
:101B1000A04F08BFA946484603F02EF850B1E06D2B
:101B200040F48060E065206E40F0020020662046B0
:101B3000FFF7B0FE2068102101607005B4D5206861
:101B4000E16D41F48041E165216E41F008012166BB
:101B50004FF4806101602046FFF76CFB01B0BDE8E7
:101B6000F08FC06800F001000028D8D1E2E74FF004
:101B7000A04252E74FF0A041ECE600002DE9F04111
:101B800082B0044600200190CCB1E06D30B920460F
:101B900000F008F90020206684F85800206803F05F
:101BA00025F810B1206802F0C3FF206803F02EF87A
:101BB00038B1206803F02AF8E8B1002524E00125B7
:101BC000D5E0206802F0C6FF40F24C00C2F20000EF
:101BD000006842F663518009C0F23E51A0FB01014A
:101BE0008809022101EB4000019001980028E0D013
:101BF00001980138F8E7E06D012540F01000E0653C
:101C0000206E40F001002066206803F003F8E16DCB
:101C100001F010010843E06D03D040F010000125F1
:101C2000A4E020F481700230E065206802F0E6FF55
:101C300020BB206840F20018C5F2000840F4807014
:101C4000404540F098804FF0A04002F0D7FF064694
:101C5000404602F0D3FF074657EA06000ED108F5CA
:101C60000072D4E900311046434518BF08F5C06042
:101C7000B3F1A04F08BF104603F04AF8607FE16B54
:101C800041EA4030D4E90221084394F8241010437B
:101C9000012940EA014106D1A06A0022CFF6FE7276
:101CA00002EB40400143E06A28B100F47870226BF7
:101CB000084340EA02012068626BC36844F20707E8
:101CC000CFF6F0773B401943C160016921F04061D4
:101CD0001143016102F06CFFC8BB94F83800217F0A
:101CE000400040EA813220682169C36844F202075B
:101CF000BB431A43C260026949B142F480320261B7
:101D0000D0F8C02043F6FF739A43114307E022F452
:101D100080310161D0F8C01043F6FF729143C0F8E2
:101D2000C01094F840200169012A0DD140F2FD72E3
:101D300004F1440791438CCF266D11431943394375
:101D4000314341F0010101E021F00101016120680E
:101D50006169026B012922F00F0102D1226A013A66
:101D600011430163E06D012161F30100E065284644
:101D700002B0BDE8F08108F5407002F03FFF064672
:101D800008F5806002F03AFF40EA060708F5A06017
:101D900002F034FF064657EA06007FF46FAF5EE7B5
:101DA0007047000010B59CB0044600201B90CDE9A0
:101DB0001900CDE9170002A85421FEF773FA206834
:101DC00040F20011C5F20001884249D0B0F1A04FA5
:101DD00040F09B804FF4004002904FF00050139071
:101DE00002A800F001FE002818BFFEF74FFF40F2E6
:101DF000A011C2F200010A6841F24C00C4F20200D4
:101E0000531C0B6042B9016841F400510160016844
:101E100001F4005101910199016841F00401016050
:101E2000016801F0040101910199016841F001018B
:101E30000160006817A900F00100019001980F20CF
:101E40001790032018900020199040F60000C4F667
:101E5000000000F0D3FB082017904FF0904045E0C1
:101E60004FF4004002904FF00050139002A800F091
:101E7000BBFD002818BFFEF709FF40F2A011C2F217
:101E800000010A6841F24C00C4F20200531C0B60CE
:101E900042B9016841F400510160016801F4005148
:101EA00001910199016840F6000441F004010160CC
:101EB0000168C4F6000401F0040101910199016870
:101EC00041F002010160006817A900F002000190D2
:101ED0000198302017900320189000201990204678
:101EE00000F08CFB04201790A4F58060032118916A
:101EF0000021199117A900F081FB12200021022274
:101F000000F0DCFC122000F0D5FC1CB010BD00007D
:101F1000F0B581B040F20047C5F200070168044601
:101F2000A7F54070A7F580728142104618BF07F5EB
:101F30004070B1F1A04F08BF104602F021FE2168A9
:101F40000646084602F066FE08B102255FE094F8F6
:101F50005800012801D1022559E0012084F85800D9
:101F60002046FEF761FB054618B1002084F85800B2
:101F70004DE02068E16D40F60172914340F200129D
:101F8000C5F2000240F2005C01F580719042C5F29A
:101F9000000CE16504D00346604508BF3B4601E004
:101FA0004FF0A043002E18BF834203D1E16D21F40E
:101FB0008011E165E16D0023C9044FF0000144BFC9
:101FC000216E21F0060121661C219042016084F8F7
:101FD000583006D00346604508BF3B46834204D1D3
:101FE0000BE04FF0A043834207D0092E12D8012105
:101FF000B14040F2212319420CD0C168890104D5B7
:10200000E16D012262F30D31E16502F027FE284601
:1020100001B0F0BDE16D904241F48011E16503D063
:10202000604508BF384601E04FF0A040C06880011D
:10203000EDD5E06D012161F30D30E065E7E70000CB
:102040002DE9F04140F20047C5F20007016805465E
:10205000A7F54070A7F580728142104618BF07F5BA
:102060004070B1F1A04F08BF104602F089FD296809
:102070000646084602F0CEFD18B995F8580001282A
:1020800002D10220BDE8F081012085F858002846E1
:10209000FEF7CAFA044628B1002085F85800204609
:1020A000BDE8F0812868E96D40F6017240F2001E3B
:1020B0009143C5F2000E40F2005C01F5807170455D
:1020C000C5F2000CE96504D00346604508BF3B46F5
:1020D00001E04FF0A043002E18BF834203D1E96D09
:1020E00021F48011E965E96D0023C9044FF0000176
:1020F00044BF296E21F0060129661C21016085F884
:102100005830416821F01C014160D5F81880E96B16
:102110004268B8F1080F434618BF04231A434260CF
:1021200019B9416841F010014160704506D001467F
:10213000604508BF3946814204D10BE04FF0A04111
:10214000814207D0092E24D80121B14040F221223A
:1021500011421ED0C168890116D5E96D012262F3D2
:102160000D31E96541686FF04002B8F1080F08BF12
:102170006FF0200201EA0201416041684FF0200344
:1021800008BF40231943416002F068FD2046BDE8C6
:10219000F081E96D704541F48011E96504D0014694
:1021A000604508BF394601E04FF0A041C968890188
:1021B0007FF575AFE96D012262F30D31E965416884
:1021C000B8F1080F06D121F020014160416841F0CB
:1021D000400105E021F040014160416841F02001EB
:1021E00041602046BDE8F08180B5014690F82500A9
:1021F000022824D10868D1E910CE8A6C036823F044
:102200000E030360136823F480731360026822F0E6
:10221000010202600EF01F00012202FA00F0CCF869
:102220000400D1E913205060486D60B1026822F4C7
:1022300080720260D1E916024260002004E00420AE
:10224000C863012000E00020012281F8252000223F
:1022500081F8242080BD000080B590F82510022967
:102260002DD10168D0E910CE826C0B6823F00E03EB
:102270000B600B6823F001030B60116821F480717F
:1022800011600EF01F02012101FA02F2CCF80420C5
:10229000D0E913325A60426D32B1136823F480736F
:1022A0001360D0E91623536080F82510826B00215B
:1022B00080F824100AB190470021084680BD04210F
:1022C000C1630121002280F8251080F824200846EF
:1022D00080BD0000B0B50268D0E910C4DCF8005041
:1022E000136804F01F0E590712D5042101FA0EF4E9
:1022F00014EA05010CD01168890603D4116821F095
:1023000004011160CCF80440016BB9B38847B0BD3B
:10231000990718D5022101FA0EF414EA050112D02A
:102320001168890606D4116821F00A0111600121A3
:1023300080F82510CCF80440C16A002280F82420DF
:10234000E1B18847B0BD190758BFB0BD082101FAF7
:102350000EF1294012D0116821F00E011160012107
:1023600001FA0EF2CCF80420C16380F82510416B0D
:102370000022002980F8242018BF8847B0BD000043
:10238000002804BF012070472DE9F04140F2000C05
:102390000446C4F2020C00684FF6F8330CF5816273
:1023A000CBF6FD73904238BF03F5806303EB000268
:1023B0004CF6CD43CCF6CC43A2FB032304F1080E2C
:1023C0000CF580616FF003059EE804413CBF0021DD
:1023D000C4F2020105EA9303C4E91013022184F850
:1023E0002510016847F6F073994304F1140711436F
:1023F000E8CF41EA080141EA0E011943294331437C
:10240000394301602046FEF7FDF9A06804F1480356
:10241000B0F5804F04BF0020606060680ECBC7B28B
:10242000013803280F60536009D82046FEF710FAE0
:1024300004F1540207CA002303604A6003E000204D
:10244000C4E91500E06500200121E06384F825104F
:1024500084F82400BDE8F08110B5044690F824000B
:10246000012820D0012084F8240094F825000128B8
:1024700016D1022084F825000020E063D4F800C0C3
:10248000DCF8000020F00100CCF800002046FEF748
:10249000F3F92068226B01683AB141F00E010AE0BD
:1024A000002084F82400022010BD21F00401016006
:1024B000016841F00A010160A06C0168C90303D5FD
:1024C000016841F480710160606D18B1016841F4E8
:1024D000807101602068016841F001010160002005
:1024E00010BD000070B541F200040A20C4F60004DB
:1024F00004F058FD20464FF4805100F04FF930B9F8
:1025000040F24C70C2F200000178013101702046A7
:102510004FF4005100F042F930B940F24D70C2F270
:10252000000001780131017020464FF4804100F035
:1025300035F900B170BD40F24E75C2F20005287841
:10254000411C297010BB42F63440C4F20100002641
:10255000066046608660A4F500604FF400510122D9
:1025600000F02AF940F2D800C2F20000466004F000
:1025700043FD19A200200621022303F07BF840F25C
:102580002050C2F200000C2101F038FC287802280B
:1025900018BF70BDA4F500604FF400510022002464
:1025A00000F00AF942F63440C4F2010004604460CD
:1025B000846040F2D800C2F200004460002002F0C3
:1025C00035FF40F22050C2F200000C2101F0D8FC8F
:1025D0000320287070BD00BF537461727400000046
:1025E00080B540F21441C4F201010A68024208BFFA
:1025F00080BD0860FFF776FF80BD00002DE9F04F39
:1026000083B00D68002D00F0C58000F138424FEA1C
:10261000B22241F200470192C4F6000706220026CA
:1026200000244FF0010AB84208BF0522009209E0D9
:102630000D68043435FA0AF20AF1010A06F10206BD
:1026400000F0A880AAF1010C012202FA0CFB15EAA5
:102650000B09EDD0D1F8048008F00305A5F1010EB7
:10266000BEF1010F11D887680322CB68B24027EA78
:102670000202B3401A4382604268C8F3001322EAA0
:102680000B0203FA0CF31A434260032D1CD0C268FC
:1026900003238F68B3409A4307FA06F31A43022DC7
:1026A000C26011D16FF0030202EA5C02024404F03E
:1026B0001C070F23D2F820E003FA07F50B692EEA76
:1026C0000505BB402B431362026803234F68B340E8
:1026D0009A4307F00303B3401A4317F4403F0260E4
:1026E000A6D041F26003C4F202031A6840F2004E21
:1026F00042F001021A601A68C4F2010E02F00102EF
:102700000292029A2CF003024FF608487244CFF668
:10271000FF7852F8083004F00C070F25BD4023EA7B
:10272000050C019B009D052B38BF1D4605FA07F7D8
:1027300047EA0C0342F80830DEF808204B6842EA0A
:10274000090740F20C4CDD0258BF22EA0907CEF817
:102750000870C4F2010CDCF800209D0242EA09076F
:1027600058BF22EA0907CCF80070DEF804209D0368
:1027700042EA090758BF22EA0907CEF80470DEF8DA
:102780000020DB0342EA090758BF22EA0907CEF816
:1027900000704DE703B0BDE8F08F0000006908400D
:1027A00018BF012070470000426902EA010391430B
:1027B00041EA0341816170471823002A08BF28239A
:1027C000C150704742F20000CEF204000068000CD5
:1027D0007047000040F25870C2F200000068704775
:1027E00040F2540040F25871C2F20000C2F20001FF
:1027F00000680A68104408607047000080B5032034
:1028000000F06CF8032000F009F800281CBF01203C
:1028100080BD00F02FF8002080BD0000B0B540F270
:102820005401C2F20001096801B3044640F24C00B1
:10283000C2F200004FF47A720068B2FBF1F1B0FB13
:10284000F1F000F00FFE0F2C4FF001050CD858B935
:102850004FF0FF3021460022002500F02FF840F213
:102860005800C2F2000004602846B0BD0125284689
:10287000B0BD000080B582B041F25800C4F2020041
:10288000816841F001018160816801F001010191DD
:102890000199016841F080510160006800F08050AA
:1028A00000900098052000F019F800F093F802B0AD
:1028B00080BD000080B504F08FFA80BD70B514466D
:1028C0000D46064604F098FA2946224602F092FD8B
:1028D0000146304604F098FA70BD000080B504F05F
:1028E000A5FA80BDB0F5007F35D0002866D147F24B
:1028F0000000C4F200000168D0F8802001F4C0613B
:1029000022F48072B1F5806FC0F8802021D1016877
:10291000012262F34A21016040F24C01C2F200013F
:102920000968322359434DF68363C4F21B33A1FB7C
:10293000031302EB934100BF43694A1E8A4203D24C
:1029400013F480611146F7D14069400544BF03206C
:1029500070470020704747F20000C4F20000016891
:10296000D0F8802001F4C06142F48072B1F5806F2C
:10297000C0F88020EDD10168012262F34A21016094
:1029800040F24C01C2F200010968322359434DF66E
:102990008363C4F21B33A1FB031302EB934100BF1B
:1029A00043694A1E8A4203D213F480611146F7D16B
:1029B0004069400544BF03207047CAE747F2000062
:1029C000C4F200000168022262F34A210160002083
:1029D0007047000047F20800C4F20000016841F4AB
:1029E00080410160704700002DE9F04381B08146CD
:1029F000807841F288070007C4F2020701D400255D
:102A000065E057F8300C10F080580BD157F8300CB7
:102A100040F0805047F8300C57F8300C00F08050F0
:102A20000090009847F20004C4F20004206840F4CB
:102A300080702060FFF7CEFE054600BF206810F4CE
:102A4000807607D1FFF7C6FE401B0328F6D3032587
:102A500016B933E000258EB3B86810F4407012D078
:102A6000D9F8501088420BD0B868B96820F440708B
:102A700041F48031B960B96821F48031B960B8603F
:102A8000C00703D111E00020C0070ED0FFF7A2FE5F
:102A9000064641F2893400BFB868800705D4FFF7C5
:102AA00099FE801BA042F7D303253DB9B868D9F839
:102AB000501020F4407008430025B860B8F1000FB2
:102AC00005D157F8300C20F0805047F8300CD9F879
:102AD0000000C10716D181071DD4410724D4010786
:102AE0002BD4C10632D4810639D4410640D4010624
:102AF00047D4C1054ED4810355D481055CD441052A
:102B000063D472E03968D9F8042021F0030111433D
:102B100039608107E1D53968D9F8082021F00C0126
:102B2000114339604107DAD53968D9F80C2021F012
:102B30003001114339600107D3D53968D9F8102025
:102B400021F0C00111433960C106CCD53968D9F8EC
:102B5000142021F44071114339608106C5D53968CC
:102B6000D9F8182021F44061114339604106BED5DF
:102B70003968D9F81C2021F440511143396001060D
:102B8000B7D53968D9F8202021F440411143396084
:102B9000C105B0D53968D9F8242021F4403111435A
:102BA00039608103A9D57969D9F8282021F003017A
:102BB000114379618105A2D53968D9F82C2021F417
:102BC00040211143396041050FD53968D9F83020CB
:102BD00021F440111143B2F5801F396005D157F837
:102BE0007C1C41F4801147F87C1C01050FD5396825
:102BF000D9F8342021F440011143B2F5800F396037
:102C000005D157F87C1C41F4801147F87C1CC104A5
:102C10000FD53968D9F8382021F040711143B2F14D
:102C2000807F396005D157F87C1C41F4801147F84A
:102C30007C1C81040FD53968D9F83C2021F0406113
:102C40001143B2F1006F396005D157F87C1C41F493
:102C5000801147F87C1C41040FD53968D9F8402011
:102C600021F040611143B2F1006F396005D157F88E
:102C70007C1C41F4801147F87C1C01040FD5396895
:102C8000D9F8442021F040511143B2F1805F3960FE
:102C900005D157F87C1C41F4803147F87C1CC103F6
:102CA0000FD53968D9F8482021F040411143B2F1DD
:102CB000804F396005D157F87C1C41F4803147F8CA
:102CC0007C1C40030FD57869D9F84C1020F44010D3
:102CD0000843B1F5001F786105D157F87C0C40F42A
:102CE000801047F87C0C284601B0BDE8F083000056
:102CF0002DE9F047002800F0CA8042F2000AC4F231
:102D0000020A0446DAF800000D4600F00F0088427F
:102D10000DD2DAF8000020F00F002843CAF80000B6
:102D2000DAF8000000F00F00A84240F0B0802078F0
:102D300041F20808C007C4F202080CD14FF00009A4
:102D4000206881072BD4B9F1800F41D1D8F8000059
:102D500020F0F0003AE06068022800F08C80032840
:102D600040F0918058F8080C800140F1908002F00A
:102D7000CDFD4BF20041C0F2C44188420CD9D8F8D5
:102D8000000010F0F00F00F08E802078800703D54F
:102D9000A068002800F087804FF000098CE0410710
:102DA00005D5D8F8001041F4E061C8F8001000071C
:102DB00006D5D8F80000072161F30D20C8F80000FF
:102DC000D8F80000A16820F0F0000843C8F800001F
:102DD000DAF8000000F00F00A84219D9DAF8000074
:102DE00020F00F002843CAF80000FFF7F3FC064666
:102DF00041F28837DAF8000000F00F00A84207D04F
:102E0000FFF7E8FC801BB842F4D90320BDE8F08747
:102E10002068410707D5D8F80010E26821F4E06186
:102E20001143C8F80010000708D5D8F80000216940
:102E300020F4605040EAC100C8F8000000F08AF8B1
:102E4000D8F8001048F28A12C1F30311C0F600024C
:102E5000515C40F24C0201F01F0120FA01F140F2F6
:102E60005800C2F200000068C2F200021160FFF7D1
:102E7000D5FCBDE8F08758F8080C80035CBF012042
:102E8000BDE8F08706E058F8080C400502D40120A0
:102E9000BDE8F08700F05EF84BF20041C0F2C4419B
:102EA00088427FF679AFD8F80000082161F3071057
:102EB0004FF08009C8F80000D8F80000616820F0E1
:102EC00003000843C8F80000FFF784FC064641F2FF
:102ED000883700BFD8F80000616800F00C00B0EB44
:102EE000810F3FF42DAFFFF775FC801BB842F1D97D
:102EF0000320BDE8F087000040F24C00C2F2000061
:102F00000068704780B5FFF7F7FF41F20801C4F28F
:102F10000201096848F29A12C1F30221C0F60002C8
:102F2000515C01F01F01C84080BD000080B5FFF773
:102F3000E3FF41F20801C4F20201096848F29A1263
:102F4000C1F3C221C0F60002515C01F01F01C8406C
:102F500080BD000041F20C01C4F2020151F8040CE2
:102F600042F20042C0F2F40200F00C0004281046C5
:102F700008BF704751F8040C00F00C00082841F21B
:102F80000020C0F27A0021D051F8043C03F00C0379
:102F90000C2B1CBF00207047D1F800C00B680CF050
:102FA000030CC3F303130133BCF1030F08BF024644
:102FB0000868B2FBF3F20968C0F306205043C1F37E
:102FC0004161022202EB4101B0FBF1F070470000C9
:102FD0002DE9F04182B0002800F00181044600781C
:102FE00041F20006C007C4F2020654D120788007DF
:102FF00072D42078000700F195802078400700F116
:10300000B3802078800600F10081E569002D00F092
:103010001882B06800F00C000C2840F05981012D96
:1030200000F0DD80F068216A00F003028A4240F07F
:10303000D680626A6FF00F0300F0F00103EB02121A
:10304000914240F0CC80A16A00F4FE42B2EB012F25
:1030500040F0C580E16A00F07842B2EBC16F40F009
:10306000BE80226B0023CFF6E07303EB025200F424
:10307000C0016FF31402914240F0B180616B4FF0D8
:103080007E4202EB016100F0C06001F07E418842A7
:1030900040F0A580D5E1B06800F00C01F068082987
:1030A00059D0032281F00C0122EA00000844B0FA52
:1030B00080F040094FD16568B5F5A02F00F0D380AE
:1030C000B5F5803F00F0D380306820F48030306068
:1030D000306820F48020CDE0B068F16800F00C008A
:1030E000042866D001F0030180F00C0081F0020199
:1030F0000844B0FA80F040095BD1E16830680029EB
:1031000000F0D38040F480703060FFF763FB054629
:103110003068400500F1FE80FFF75CFB401B022891
:10312000F6D930E16169D6F89400002900F0898071
:1031300040F00100C6F89400FFF74CFB054600BFC5
:10314000D6F8940080073FF558AFFFF743FB401BCC
:103150000228F5D917E1306880037FF547AF606832
:1031600000287FF443AF3AE0B06D10F0805808D1EA
:10317000B06D40F08050B065B06D00F080500190AF
:10318000019847F20007C4F200073868C0052AD446
:10319000386840F480703860FFF71CFB054600BFBC
:1031A0003868C0051FD4FFF715FB401B0228F7D96C
:1031B000E9E03068400501D5E06880B170682169B8
:1031C00020F0FE4040EA0160706040F25800C2F218
:1031D00000000068FFF722FB00283FF40AAF01203F
:1031E00002B0BDE8F081A568052D00F0B080012D8A
:1031F00000F0B380D6F8900020F00100C6F89000EF
:10320000D6F8900020F00400ABE0A169D6F8980051
:10321000002900F0878040F00100C6F89800FFF711
:10322000D9FA0546D6F8980080073FF5EEAEFFF7CD
:10323000D1FA401B02284FF00300F3D902B0BDE8D9
:10324000F08120F00100C6F89400FFF7C3FA0546AC
:10325000D6F8940080077FF5D0AEFFF7BBFA401B8D
:103260000228F5D98FE0306840F480203060306863
:1032700040F480303060FFF7ADFA002D054610D0E5
:10328000306880033FF5B2AEFFF7A4FA401B642814
:10329000F6D978E0FFF79EFA401B64284FF0030050
:1032A000CCD830688003F5D4A0E620F4807030607C
:1032B000FFF790FA054600BF306840057FF599AEEC
:1032C000FFF788FA401B02284FF00300F4D9B5E756
:1032D000306820F080703060FFF77CFA022D0546E0
:1032E0000CD100BF3068800167D5FFF773FA401B2F
:1032F00002284FF00300F5D9A0E700BF3068800135
:1033000040F19880FFF766FA401B02284FF0030057
:10331000F4D993E77068216920F0FE4040EA01602B
:10332000706066E620F00100C6F89800FFF752FAD8
:10333000054600BFD6F8980080077FF566AEFFF718
:1033400049FA401B02284FF00300F3D976E7D6F87C
:10335000900040F00400C6F89000D6F8900040F0CD
:103360000100C6F89000FFF735FA002D054641F23E
:10337000883715D0D6F89000800715D4FFF72AFAC1
:10338000401BB842F6D9032002B0BDE8F08100BF6F
:10339000FFF720FA401BB8424FF003003FF64EAF54
:1033A000D6F890008007F3D4B8F1000F7FF429AE6F
:1033B000B06D20F08050B06523E6F06848F20C0153
:1033C000C0F29F1104F1200700EA010C8ECF6FF0CC
:1033D0000F00D4E90C5400EB02100022CFF6E0728B
:1033E00041EA0C0102EB055208436FF314024FF05F
:1033F0007E4540EA032005EB0465104305F07E4559
:1034000040EAC7602843F060306840F08070306068
:10341000F06840F08070F060FFF7DCF90446306837
:1034200080010ED4FFF7D6F9001B02284FF00300ED
:10343000F5D903E7F0684FF6FC71CFF6EE6108406E
:10344000F060002002B0BDE8F08100004EF21001F3
:10345000CEF200010A68042822F0040208BF0432F8
:103460000A60704780B502F03FFD80BD70470000E4
:10347000704700007047000070470000B0B590F83A
:103480003C20012A04BF0220B0BD012280F83C206C
:10349000D1E90232D1E900CE22F47C5223F47053F8
:1034A00043EA020448F2FF73CEF6F0730EEA030219
:1034B000224303F5006404EA0C0442EA040C0C699C
:1034C00003F5C05222404C6942EA0C02224303F544
:1034D000605422400C6B03F5F04323401A438B6980
:1034E00040F2000CCC69CEF6FF7C0CEA034C14438E
:1034F000026842F60043C4F201039A4244EA0C0314
:103500000BD045F20004C4F20104A24205D043F2FC
:103510000044C4F20104A24217D14FF6FF74CDF665
:103520000F4403EA040ED1E9084CD1E90A31002521
:10353000CDF6F04505EA035343EA0E0324F008559F
:103540002B432CF000552B430B430021536480F890
:103550003C100846B0BD00007047000070470000F6
:103560007047000070B590F83C20012A4FF002022D
:1035700064D0012380F83C3080F83D20026842F698
:1035800000435468D2F808C0C4F2010345F2000EAB
:103590009A42C4F2010E18BF72452AD14D6824F434
:1035A00070042C434FF68F75CFF6FF550E682C40F4
:1035B00042F6FF35C4F201053443AA4254600DDCE3
:1035C00040F2FF73C4F200039A4219DCB2F1804F5B
:1035D00029D040F20043C4F2000322E043F6FF7416
:1035E000C4F20104A24216DC9A421CD043F200430A
:1035F00015E043F20045C4F20105AA42CED0D1E75E
:1036000040F60003C4F200039A420CD040F6004397
:10361000C4F2000305E0724505D044F20003C4F291
:1036200001039A4204D189682CF080031943916008
:103630000121002280F83D1080F83C20104670BD2A
:1036400010B5044641B1082909D0042914BF04F17A
:10365000470004F1450004E004F1440001E004F1F6
:103660004600007801281CBF012010BD022041B196
:10367000082909D0042914BF84F8470084F84500BC
:1036800004E084F8440001E084F846002068042245
:1036900002F042FD216842F6FF32486CC4F201029A
:1036A00040F40040914248640DDC40F2FF70C4F2E7
:1036B0000000814216DCB1F1804F2AD040F2004078
:1036C000C4F2000023E043F6FF70C4F2010081421F
:1036D00013DC42F60040C4F20100814219D043F2EB
:1036E000004012E040F60000C4F20000814210D019
:1036F00040F60040C4F2000009E045F20000C4F2C8
:103700000100814205D044F20000C4F20100814270
:1037100012D188680722C0F201020240062A4FF047
:1037200000000ED0B2F5803F08BF10BD086840F021
:1037300001000860002010BD086840F0010008602A
:10374000002010BD70470000002804BF0120704712
:1037500010B5044690F83D0078B9002084F83C008C
:10376000204602F097FEE06C20B943F2C170C0F62B
:103770000000E064E16C20468847022084F83D00A8
:103780002068211D02F012FC012084F8480084F812
:103790003E0084F83F0084F8400084F8410084F83B
:1037A000420084F8430084F8440084F8450084F81B
:1037B000460084F8470084F83D00002010BD00005A
:1037C00080B582B0006841F20001C4F20001884275
:1037D00014D042F60041C4F20101884223D141F2E3
:1037E0005800C4F20200816841F400618160806881
:1037F00000F400600190019802B080BD41F25800D1
:10380000C4F202000168022241F010010160006868
:10381000032100F01000009000983620FFF74EF8CA
:103820003620FFF747F802B080BD000090F83D1049
:1038300001291CBF01207047022180F83D1001685A
:1038400042F6FF32C868C4F20102914240F0010022
:10385000C8600DDC40F2FF70C4F20000814216DC4B
:10386000B1F1804F2AD040F20040C4F2000023E0C2
:1038700043F6FF70C4F20100814213DC42F60040BF
:10388000C4F20100814219D043F2004012E040F638
:103890000000C4F20000814210D040F60040C4F2A3
:1038A000000009E045F20000C4F20100814205D0A9
:1038B00044F20000C4F20100814212D1886807225C
:1038C000C0F201020240062A4FF000000ED0B2F50D
:1038D000803F08BF7047086840F001000860002082
:1038E0007047086840F00100086000207047000041
:1038F00010B5044690F83C0001284FF0020008BFC4
:1039000010BD0B46012184F83C1084F83D0020686E
:1039100088228168CFF6CE72114081601968B1F5B6
:10392000005F0BDA3F291FDD5F292EDD60294BD0B8
:10393000702950D0B1F5805F6BD043E02F22C0F2E8
:103940001002914217DD4F22C0F21002914227DD92
:103950005022C0F21002914259D06022C0F21002EF
:10396000914254D0702229E01F2920DC00294ED03A
:1039700010294CD026E0B1F1101F1DDAB1F5005F1F
:1039800034D0B1F5801F42D01CE0402939D05029F5
:1039900018D15968DA6802F0E3FD2068502136E05A
:1039A0003022C0F21002914231D0402206E020299C
:1039B0002DD030292BD005E029D02022C0F21002D2
:1039C000914224D0012025E05968DA6802F0DAFD3E
:1039D000206860211BE0D3E90121DB6802F0AEFB27
:1039E0002068816841F07701816012E0D3E901210C
:1039F000DB6802F0A3FB2068816841F480418160AC
:103A000007E05968DA6802F0ABFD2068402102F057
:103A1000A1FB0020012184F83D10002184F83C1016
:103A200010BD0000704700007047000070470000A4
:103A3000F0B581B004460068C768066906EA070564
:103A4000A90733D4680700F18F80280700F1A6800A
:103A5000E80600F1BC80E80707D02068D4F884109D
:103A60006FF0010202612046884717F0800718BFF7
:103A700016F4025007D02068D4F8B4106FF4025244
:103A8000026120468847002F18BF16F4807018D1B5
:103A9000680620D4A80628D4E80230D4A80238D476
:103AA000680240D4280248D401B0F0BD6FF0020192
:103AB0000161012121778069800748D0D4F89410F2
:103AC0004BE02068D4F8B8106FF480720261204691
:103AD00088476806DED52068D4F88C106FF0400265
:103AE000026120468847A806D6D52068D4F8AC10D5
:103AF0006FF02002026120468847E802CED5206898
:103B0000D4F8BC106FF48012026120468847A802E6
:103B1000C6D52068D4F8C0106FF4001202612046A8
:103B200088476802BED52068D4F8C4106FF48002BC
:103B30000261204688472802B6D52068D4F8C8100C
:103B40006FF4000202612046884701B0F0BDD4F84E
:103B50009C1020468847D4F8A010204688470020B3
:103B6000207768077FF571AF20686FF0040101616D
:103B700002212177806910F4407F02D0D4F894109C
:103B800005E0D4F89C1020468847D4F8A0102046C1
:103B900088470020207728077FF55AAF20686FF00C
:103BA0000801016104212177C069800702D0D4F89F
:103BB000941005E0D4F89C1020468847D4F8A01053
:103BC0002046884700202077E8067FF544AF20682C
:103BD0006FF01001016108212177C06910F4407F66
:103BE00002D0D4F8941005E0D4F89C102046884701
:103BF000D4F8A0102046884700202077E8077FF4FB
:103C00002CAF32E72DE9F04387B0006842F600415F
:103C1000C4F2010100268842CDE90566CDE90366BC
:103C2000029602D007B0BDE8F08341F24C00C4F226
:103C30000200016840F2004441F0020101600168A5
:103C4000C4F6000401F0020101910199016802AD7E
:103C500041F00101016000684FF0020800F001002E
:103C6000019001984FF4C040029003274FF00609DD
:103C700020462946CDE903860597CDF81890FEF732
:103C8000BDFC4FF40040CDE9020804200690204618
:103C90002946CDE90467FEF7B1FC4FF4E060CDE9B9
:103CA000020804A880E8C0024FF090402946FEF7C1
:103CB000A5FC07B0BDE8F08370470000B0B504462E
:103CC00090F83C00012804BF0220B0BD0D464FEA29
:103CD000B2010120052984F83C0048D8DFE801F052
:103CE000030B131B23332068294602F03FFA206898
:103CF00050F8181F1EE02068294602F079FA206863
:103D000050F8181F26E02068294602F0C1FA206802
:103D100050F81C1F0EE02068294602F009FB2068BD
:103D200050F81C1F16E02068294602F051FB20685D
:103D300050F8501F41F008010160016821F00401B2
:103D4000016029690FE02068294602F071FB2068B4
:103D500050F8501F41F400610160016821F4806156
:103D600001602969090202681143016000200021F5
:103D700084F83C10B0BD0000002804BF012070474B
:103D800010B5044690F83D0078B9002084F83C0056
:103D9000204602F07FFB606E20B943F6F150C0F67A
:103DA00000006066616E20468847022084F83D006E
:103DB0002068211D02F0FAF8012084F8480084F8F8
:103DC0003E0084F83F0084F8400084F8410084F805
:103DD000420084F8430084F8440084F8450084F8E5
:103DE000460084F8470084F83D00002010BD000024
:103DF000704700007047000070470000B0B50446EF
:103E000059B1081F4FEAB000032809D8DFE800F0D5
:103E1000020B0E1104F13F000DE004F13E000AE038
:103E200004F1430007E004F1400004E004F1410024
:103E300001E004F14200007801281CBF0120B0BD60
:103E400061B1081F4FEAB00003280BD8DFE800F08B
:103E5000020E1216022084F83F0012E0022084F8BD
:103E60003E000EE0022084F843000AE0022084F8BD
:103E7000400006E0022084F8410002E0022084F8BD
:103E8000420020680122012502F034F92168A1F1E5
:103E90008040A0F596304FEAB02242F6FF30072A64
:103EA000C4F2010051D805FA02F212F0E50F4CD02D
:103EB0004A6C814242F400424A640DDC40F2FF70D9
:103EC000C4F20000814216DCB1F1804F2AD040F2EA
:103ED0000040C4F2000023E043F6FF70C4F201008A
:103EE000814213DC42F60040C4F20100814219D045
:103EF00043F2004012E040F60000C4F200008142AC
:103F000010D040F60040C4F2000009E045F2000085
:103F1000C4F20100814205D044F20000C4F2010065
:103F2000814226D188680722C0F201020240062A97
:103F30004FF0000022D0B2F5803F08BFB0BD086846
:103F400040F0010008600020B0BD8142B6DD43F6BC
:103F5000FF72C4F201029142C4DD44F20002C4F2D5
:103F600001029142DED045F20002C4F20102914208
:103F70009ED0086840F0010008600020B0BD00003D
:103F8000B0B50446006800220D4602F0B3F8206880
:103F9000A0F18041A1F596314FEAB121072914D84B
:103FA000012202FA01F111F0E50F0ED0016A41F28F
:103FB000111211420FD1016A44F2444211420AD156
:103FC000416C21F40041416405E045F20001C4F276
:103FD00001018842EAD0016A41F21112114208D16E
:103FE000016A44F24442114203D1016821F0010107
:103FF00001604FEAB500042809D8DFE800F0030D9E
:1040000012171C00012084F83E000020B0BD0120E2
:1040100084F843000020B0BD012084F83F00002058
:10402000B0BD012084F840000020B0BD012084F81C
:1040300041000020B0BD012084F842000020B0BD46
:1040400070B540F2EC51C2F20001884200D070BD60
:1040500003F09EFF40F24E74C2F200042078032861
:1040600004D30020002501F0E1F9257040F264300E
:10407000C2F20000008803281DD0022823D00128A6
:1040800045D140F22C20C2F20000007800EE100A68
:10409000B8EE400A002003F0EBFA40F2E44040F2B0
:1040A0007025C2F20000C2F2000500F10C0400F11C
:1040B0001006281D17E040F27816C2F2000606F13D
:1040C0000804351D14E040F2483440F2F81540F27F
:1040D000E81640F2D810C2F20004C2F20005C2F2A3
:1040E0000006C2F2000090ED000A002003F0C0FAC2
:1040F00096ED000A002003F0BBFA95ED000A0020BF
:1041000003F0B6FA94ED000A012003F0B1FA40F290
:104110005674C2F2000420780130C1B20729207021
:1041200018BF70BD40F23430C2F2000090ED000ABA
:1041300040F2F820C2F20000D0ED000A40F2303028
:1041400040F2FC21C2F20000C2F2000101F0B6FD13
:104150000020207070BD0000704700007047000014
:104160007047000090F88410012904BF02207047B6
:104170002421C0F8881002681168136823F0010335
:10418000136021F000530021416613602022C0F823
:10419000882080F8841008467047000010B5044657
:1041A000D0F88C0020281CBF022010BD00294FF041
:1041B000010018BF002A1BD00120E0660020206704
:1041C000204602F041FD002818BF10BDE16E012914
:1041D0001CBF012010BD216810220A62216851E82D
:1041E000001F226841F0100142E80013002BF5D1B6
:1041F00010BD0000B0B5006843F60001C4F2010133
:10420000884218BFB0BD40F2A830C2F20000038857
:10421000190433D440F26C3E40F2507140F28A3CB3
:10422000C2F2000EC2F20001C2F2000C08E000BFB0
:1042300043F48043038001320A8003881A041DD4AA
:104240000A885D041EF802400ED40D2CF0D01D46E5
:104250006FF39F3501330CF805409CB201321E2CE0
:1042600003800A80E9D306E00A2C04D143F400421B
:1042700002800022E0E700220A80028040F2B8605B
:1042800040F26C31C2F20000C2F200011E22FFF7C0
:1042900085FF40F28440C2F200000068016821F00E
:1042A00004010160B0BD000070470000B0B50446D5
:1042B00090F88400012804BF0220B0BD012084F8DA
:1042C00084002420C4F8880020680568026822F071
:1042D00001020260826822F0606211438160204620
:1042E00002F062F9206805602020C4F888000020F0
:1042F00084F88400B0BD0000B0B5044690F8840096
:10430000012804BF0220B0BD012084F884002420CD
:10431000C4F8880020680568026822F00102026083
:10432000826822F0604211438160204602F03CF92D
:10433000206805602020C4F88800002084F88400EC
:10434000B0BD0000704700007047000070470000DB
:1043500070B503680446D96940F62F001E68D3F88B
:1043600008E0084020280CD106F020000EF0805212
:10437000801806D0616F002900F0AE802046884783
:1043800070BD40F60F00084000F08E800120C1F2A1
:1043900000000EEA000C40F22010C0F20040304055
:1043A00010EB0C0000F08080C80718BF16F4807076
:1043B00007D001201862D4F8900040F00100C4F842
:1043C000900088070EF0010208D53AB10220186269
:1043D000D4F8900040F00400C4F89000480708D5D5
:1043E0003AB104201862D4F8900040F00200C4F8FA
:1043F000900008070CD506F0200050EA0C0007D00A
:1044000008201862D4F8900040F00800C4F890002A
:1044100008050BD516F0806008D04FF400601862D4
:10442000D4F8900040F02000C4F89000D4F8900038
:10443000002851D011F020001EBF06F020000EF021
:10444000805110EB010040F0F2802068D4F8901009
:10445000806801F0280100F04000401800F0E08082
:10446000204602F029FA20688068400640F1C980A1
:10447000206850E8020F216820F0400041E8020265
:10448000002AF5D1D4F88000002800F0BA8046F266
:10449000A571C0F600018163FDF7DEFEE0B1D4F83E
:1044A0008000816B884770BDE06E06EA0102D50688
:1044B0003FD501283DD1102018629868400644D4A9
:1044C000B4F85C00B4F85E10B4F85E20002A1CBF9B
:1044D000401A5FEA004101D170BD00BF216851E878
:1044E000001F226821F4907142E80013002BF5D1DF
:1044F0004FF6FE71CEF6FF71226852E8022F236854
:104500000A4043E80226002EF6D12021C4F88C1080
:104510000021E166616700BF216851E8001F226841
:1045200021F0100142E80013002BF5D10221216790
:1045300055E0C80258D51EF4800055D04FF48010C5
:1045400018622046FFF700FF70BDD4F880000068B5
:1045500041688AB2002ABFD0B4F85C309A42BBD21C
:10456000A4F85E100068800632D400BF206850E8CE
:10457000000F216820F4807041E80002002AF5D184
:10458000206850E8020F216820F0010041E8020293
:10459000002AF5D1206850E8020F216820F0400081
:1045A00041E80202002AF5D12020C4F88C00002046
:1045B000E06600BF206850E8000F216820F010007E
:1045C00041E80002002AF5D1D4F88000FDF70CFE86
:1045D00002202067B4F85C00B4F85E10401A81B283
:1045E0002046FFF707FE70BD08060ED506F08000D6
:1045F0000EF40003C01808D0A16F00297FF4BEAEEE
:104600006AE72046FFF7A2FE70BD500616D40802E6
:1046100018D516F0804015D02046FFF793FE70BDE8
:104620002046FFF793FE0020C4F8900070BD616F34
:1046300000293FF40AAF2046884706E7204602F0EB
:1046400069F970BDC8017FF547AFB6F1FF3FC8BF3C
:1046500070BD2046FFF728FE70BD000010B5D8B130
:104660000446D0F8880028B9002084F88400204649
:1046700000F026F82420C4F888002068A16A0268A7
:1046800022F00102026011B1204601F0B7FF20467E
:1046900002F06CF9012801D1012010BD20684168A9
:1046A00021F490414160816821F02A018160016814
:1046B00041F001010160204602F014F810BD000035
:1046C00070B59CB00446002502A854211B95CDE985
:1046D0001955CDE91755FBF7E5FD206843F60001B4
:1046E000C4F20101884201D01CB070BD0120CDE9A7
:1046F000020502A8FEF778F9002818BFFCF7C6FAF1
:1047000041F24C00C4F202004169002641F48041AC
:104710004161416901F4804101910199016841F0D1
:1047200002010160006817A900F0020001900198E1
:10473000C02017900220189003201A9007201B9089
:1047400040F20040C4F600001996FDF757FF40F212
:1047500084455820C2F20005C4F2020018218022CC
:1047600085E843002846C5E90362C5E90566C5E951
:104770000766FDF705FE002818BFFCF787FA25201D
:1047800000210122C4F88050AC62FEF797F8252082
:10479000FEF790F81CB070BD704700007047000035
:1047A0007047000010B540F22C2CC2F2000C9CF8AF
:1047B0000030002B18BF10BD92ED001A40F2282ED9
:1047C00092ED012A31EE013AC2F2000E30EE433A88
:1047D000DEF8003032EE032AB5EE003A22EE032A6C
:1047E0005C1C82ED022A82ED011A82ED000ACEF8ED
:1047F000004082ED032A0068B3F5C87F906002DABA
:104800000020086010BDB3F5487F03DA4FF07C50FC
:10481000086010BDB3F5E16F1ADA4FF07C50086004
:1048200092ED020A40F22020B5EE400AF1EE10FAB5
:10483000BCBFB1EE400A82ED020A92ED020AC2F25A
:10484000000090ED001A30EE010A80ED000A10BD64
:1048500040F697008342D3DD40F62720834203DCF5
:104860004FF03F40086010BDB3F5616F14DA4FF0B0
:104870003F40086092ED020A40F22420B5EE400A63
:10488000F1EE10FABCBFB1EE400A82ED020A92EDE1
:10489000020AC2F20000D4E7B3F57A6FB0DB40F24F
:1048A0002020C2F2000090ED000A40F22420C2F263
:1048B000000090ED001A0CA0B4EE410AF1EE10FADF
:1048C000C8BF0430006840F23022C2F2000210601B
:1048D0000020086001218CF8001040F20021C2F293
:1048E0000001088010BD00BFDB0F49400000000040
:1048F00010B540F24430C2F200000024047040F2CF
:104900004530C2F20000047040F24030C2F20000B4
:104910004FF07C51016040F22C20C2F20000047084
:1049200040F22820C2F20000046040F22020C2F2CF
:104930000000046040F22420C2F20000046040F253
:104940003020C2F20000046040F2F840C2F20000E1
:104950002821FBF7A7FC40F2E4404AF2000148F2AC
:104960000002C2F20000C4F20C61C4F20942C0E9C4
:104970000042C0E90214046140F2C000C2F200002B
:10498000C0E90044C0E90244C0E9044410BD00008D
:10499000FEE7000080B500F08DFD80BD80B500F021
:1049A000EBFE80BDB0B598B048F6D410C0F600005C
:1049B00090E81E50D0E9065010AFCDE9165048F6E9
:1049C000F410C0F6000087E81E5090E82E0000F1B9
:1049D000100EC0699EE8105008AF0F9048F61420E2
:1049E0002EC70CA9C0F6000081E8105090E82E00F8
:1049F00000F1100E9EE81050C0698DE82E0004A949
:104A000081E8105040F2A4110790C2F2000110A8F2
:104A100000F048F840F2882108ACC2F200012046BC
:104A200000F040F840F2B021C2F20001204600F050
:104A300039F840F24821C2F20001684600F032F82D
:104A400018B0B0BD91ED083A91ED061A23EE000AB8
:104A500091ED003A91ED072A91ED015A91ED037A1B
:104A600023EE011A91ED026A30EE410A25EE021A98
:104A700030EE410A23EE072A91ED043A26EE001AA1
:104A800091ED094A31EE021A25EE032A31EE021A9F
:104A900024EE011A80ED001A086881ED000A4860D2
:104AA0007047000002688A604268CA6082680A61D2
:104AB000C2684A6102698A614269CA6182690A629E
:104AC000C06948620020C1E90000704790ED001AFB
:104AD00090ED023A90ED012A90ED034A31EE015A31
:104AE00033EE036A35EE005A36EE206A32EE052ABE
:104AF000B5EE005A34EE064A22EE052A24EE054AA7
:104B000080ED000A80ED011AC0ED020A80ED033A43
:104B100080ED042A80ED054A7047000081684FF659
:104B2000C072C7F6FF721140023181607047000009
:104B300081684FF6C072C5F6FF7211408160704700
:104B400081684FF6C072C7F6FF7211400131816073
:104B50007047000081684FF6C072C6F6FF721140C0
:104B600001F1805181607047806800F0E07070470B
:104B7000806800F0E0707047806800F46040704723
:104B8000806800F01F007047806800F01F007047C9
:104B900000EB8100006E00F0F840704700EB8100F0
:104BA000006E00F0F8407047C06800F00070704779
:104BB0008068C0F3C00070478068C0F3C0007047D1
:104BC000C06C00F4C070B0FA80F04009704700007B
:104BD00081684FF6C072C7F6FF72114008318160DC
:104BE000704700008068C00F704700008068C0F305
:104BF000407070478068C0F340007047806800F0E4
:104C000001007047806800F0010070478068C0F3C1
:104C1000007070478068C0F3800070478068C0F300
:104C200080007047C06800F44060B0FA80F040092E
:104C300070470000C1F3012300EB8300D0F830C0BF
:104C400001F01F011F238B40C2F384622CEA03038F
:104C500002FA01F1194301637047000081684FF6C1
:104C6000C072C7F6FF7211400431816070470000C6
:104C7000C1F3406300EB8300D0F814C0C1F30451CA
:104C800007238B402CEA030302FA01F11943416127
:104C900070470000C1F3406300EB8300D0F814C0FC
:104CA000C1F3045107238B402CEA030302FA01F1FC
:104CB000194341617047000080B54FF6FF7ECB433A
:104CC000D0F8B0C0C0F2070E02F0180263EA0E037B
:104CD0002EFA02F203EA0C0311401943C0F8B01097
:104CE00080BD000080B54FF6FF7ECB43D0F8B0C04A
:104CF000C0F2070E02F0180263EA0E032EFA02F267
:104D000003EA0C0311401943C0F8B01080BD000045
:104D1000826822F47C12114381607047826822F01D
:104D2000E072114381607047826822F0E0721143A3
:104D30008160704700EB8100D0F860C04FF2000145
:104D4000C0F2FF3102F0F84201EA0C011A431143AC
:104D500041F000410166704700EB8100D0F860C06F
:104D60004FF20001C0F2FF3102F0F84201EA0C01FB
:104D70001A43114341F000410166704700EB810086
:104D8000016E21F0007111430166704700EB810054
:104D9000016E21F0007111430166704700EB810044
:104DA000016E21F0807111430166704700EB8100B4
:104DB000016E21F0807111430166704700EB8100A4
:104DC000016E21F0004101667047000000EB810098
:104DD000016E21F00041016670470000426922F037
:104DE0000042114341617047426922F00042114381
:104DF0004161704782684FF6C073C3F6FF731A4073
:104E000001F08041114401F10041816070470000D0
:104E100070B59AB0002468463C211994CDE9174436
:104E2000CDE91544CDE91344CDE91144CDE90F4452
:104E3000FBF738FA40F2AC30C2F200004FF0A0416C
:104E4000012304264FF4403280E81600C0E90344F1
:104E5000C0E905368483036280F82440C0E90B442E
:104E600080F83840C46380F84040FCF787FE002893
:104E700018BFFBF70BFF40F2AC30C2F2000017A9DD
:104E80001794FCF785FA002818BFFBF7FFFE4020B7
:104E9000C1F620100F90062010900320119040F2D0
:104EA000AC307F2604250024C2F200000FA9129620
:104EB00013951494FCF71EFB002818BFFBF7E6FEC1
:104EC0008020C1F650500090092001A951C18420D2
:104ED0000A9080200B9040F2AC30C2F2000069468C
:104EE000CDE904540895ADF824408DF826408DF89E
:104EF0003040FBF715FF002818BFFBF7C7FE40F254
:104F00000010C2F28010009040F20F10019040F2A9
:104F1000AC30C2F200006946FBF702FF002818BF60
:104F2000FBF7B4FE40F20020C2F2B050009040F215
:104F30001520019040F2AC30C2F200006946FBF748
:104F4000EFFE002818BFFBF7A1FE1020C1F2C00041
:104F5000009040F21B30019040F2AC30C2F20000F1
:104F60006946FBF7DDFE002818BFFBF78FFE1AB07D
:104F700070BD0000B0B588B040F2184040F200119A
:104F8000C2F20000C5F2000100244FF440320425B3
:104F900080E816000121CDE90644CDE90444CDE9BD
:104FA0000244CDE90044C0E90344C0E905458483D7
:104FB000016280F82440C0E90B4480F83840C463A3
:104FC00080F84040FCF7DAFD002818BFFBF75EFED2
:104FD0002020C1F2F04000900620CDE901047F209E
:104FE000CDE9030540F21840C2F20000694605947D
:104FF000FCF780FA002818BFFBF748FE08B0B0BDE8
:1050000080B582B041F24800C4F20200016800227B
:1050100041F004010160016801F00401019101996E
:10502000016841F0010101600068002100F0010009
:10503000009000980F20FDF741FC0F20FDF73AFC8F
:1050400002B080BD2DE9F04F87B0002541F24C0041
:105050000695CDE90455CDE90255C4F20200016878
:1050600041F2000441F0100101600168C4F600043F
:1050700001F01001019101990168002241F0040141
:105080000160016801F0040101910199016841F09A
:1050900020010160016801F020010191019901687E
:1050A00041F001010160016801F0010101910199E4
:1050B000016841F002010160016801F00201019103
:1050C0000199016841F00801016000680C2100F0BD
:1050D0000800019001982046FDF76EFBA4F50066DC
:1050E00030464FF4005100224FF40059FDF764FBA5
:1050F000A4F5806840464FF400610022FDF75CFB98
:105100002046032101224FF0030A4FF0010BFDF767
:1051100053FB04200290112003A902AF81E821046F
:1051200020463946FDF76AFA0B20CDE9020B2046EE
:105130003946CDE9045AFDF761FA30463946CDE9E2
:10514000029BCDE90455FDF759FA4FF4E040029077
:105150004FF40410CDE9030B20463946FDF74EFA13
:105160004FF40060CDE9020B40463946CDE9045AC0
:10517000FDF744FA282003210122FDF79FFB282098
:10518000FDF798FB07B0BDE8F08F0000B0B59CB00C
:10519000002401A83421CDE91A44CDE91844CDE911
:1051A0001644CDE91444CDE91244CDE91044CDE9CB
:1051B0000E44FBF777F840F2205042F60041C2F26D
:1051C0000000C4F2010120228025C0E9001400F192
:1051D000080142F234134FF4807C4FF0010E81E855
:1051E0000C508561FEF7B0FA002818BFFBF74EFDA2
:1051F0004FF48050189040F22050C2F2000018A9DD
:10520000FEF776FB002818BFFBF740FD40F2205068
:10521000C2F20000FEF7B0FD002818BFFBF736FD14
:105220007020159040F220500024C2F2000015A911
:10523000CDE91644FEF796F9002818BFFBF726FDC6
:105240006020CDE90E04CDE91044CDE91244149458
:1052500040F22054C2F200040EA920460022FEF7BC
:105260002DFD002818BFFBF711FD2068042281697D
:1052700021F0080181610EA92046FEF71FFD0028DC
:1052800018BFFBF703FD20680822816921F4006143
:1052900081610EA92046FEF711FD002818BFFBF71B
:1052A000F5FC20680C22C16921F00801C16142F2BD
:1052B00002100F900EA92046FEF700FD002818BF2F
:1052C000FBF7E4FC00207821CDE904104FF40051F5
:1052D000CDE906104FF00071CDE901000390CDE952
:1052E0000800CDE90A10CDE90C0040F22050C2F2CE
:1052F000000001A9FEF7C2F8002818BFFBF7C6FCA2
:1053000040F22050C2F20000FEF77CFC1CB0B0BDA1
:1053100010B584B040F2EC5041F20001C2F200003E
:10532000C4F200010024042241F29A0380E816002E
:1053300080210394CDE90144C3608161FEF704FA42
:10534000002818BFFBF7A2FC40F2EC50C2F20000AC
:1053500001A901940394FEF705F9002818BFFBF793
:1053600095FC04B010BD000080B540F2B86043F673
:105370000001C2F20000C4F201014AF2201200232F
:105380004FF00C0CC0F2070280E80E00C0E90333B6
:10539000C0E905C3C0E90733C0E90933FFF75EF987
:1053A000002818BFFBF772FC40F2B860C2F20000A0
:1053B0000021FEF7A1FF002818BFFBF767FC40F2B1
:1053C000B860C2F200000021FEF770FF002818BF8D
:1053D000FBF75CFC40F2B860C2F20000FEF7C2FED0
:1053E000002818BFFBF752FC80BD0000FEE700005C
:1053F000FEE7000000F0070080F00703042B28BF41
:1054000004234FF0FF3C03380CFA03F338BF0020AD
:10541000994381400CFA00F022EA000008437047EB
:1054200080B5002000F002F880BD000070B5044691
:10543000002500BFA5F15000C0B201F0C1FC002062
:10544000002601F0BDFC102001F0BAFC204601F05E
:10545000BDFC701C46B2B6F1FF3FF7DCE8B2013587
:10546000072828BF70BDE5E7F0B581B00D46914231
:1054700088BF551EE9B291421AD21446064600BFB3
:10548000A5F15000C0B201F09BFC0020002701F004
:1054900097FC102001F094FC304601F097FC781C3A
:1054A00047B2B7F1FF3FF7DC0135E8B2A042E7D3DE
:1054B00001B0F0BD10B541F20004C4F6000420466E
:1054C00008210122FDF778F9204604210122FDF789
:1054D00073F910BD70B541F20004C4F6000405462E
:1054E0002046082100220026FDF766F9E8B2C2092D
:1054F00020460421FDF760F901206D0001F05AFDFE
:10550000204608210122FDF757F9204608210022F4
:10551000FDF752F9072E06F10106E7D320460821D0
:105520000122FDF749F9204608210022FDF744F940
:1055300070BD000010B541F20004C4F6000420461E
:1055400004210122FDF738F9204608210122FDF748
:1055500033F9204604210022FDF72EF920460821C8
:105560000022FDF729F910BD10B541F20004C4F680
:105570000004204608210022FDF71EF920460421E0
:105580000022FDF719F9204608210122FDF714F940
:10559000204604210122FDF70FF910BD80B56420DB
:1055A00001F000FDAE2001F00BFC202001F008FC12
:1055B000102001F005FCB02001F002FCC82001F031
:1055C000FFFB002001F0FCFB102001F0F9FB402064
:1055D00001F0F6FB812001F0F3FBFF2001F0F0FB6E
:1055E000A12001F0EDFBA62001F0EAFBA82001F0CC
:1055F000E7FB3F2001F0E4FBA42001F0E1FBD32016
:1056000001F0DEFB002001F0DBFBD52001F0D8FB30
:10561000F02001F0D5FBD92001F0D2FB222001F0CF
:10562000CFFBDA2001F0CCFB122001F0C9FBDB201C
:1056300001F0C6FB202001F0C3FB8D2001F0C0FB70
:10564000142001F0BDFBAF2001F0BAFB80BD0000CB
:1056500010B50446A1F15000C0B201F0B1FB200921
:10566000103001F0ADFB04F00E00013001F0A8FB9A
:1056700010BD00002DE9F04F81B090468A46012B05
:10568000064649D0022B73D198F8000000286FD04D
:1056900048F2CA390024C0F60009CDF8008000BFE6
:1056A000A0F12005F0B2782884BF0AF1010A002693
:1056B000F7B25FFA8AF13846FFF7CAFFE8B24FEA5D
:1056C000001BC84609EB00154FF0FF3905EB090038
:1056D000407801F07BFB09F10109B9F1070FF5D121
:1056E0000AF10100C1B23846FFF7B2FF08EB0B0028
:1056F000C146C51D082700BF15F8010F01F066FB64
:10570000013FF9D10134DDF80080E0B218F8000063
:1057100008360028C4D12BE098F8000040B348F2C6
:10572000A2190024C0F60009A0F12005F0B27E28DD
:1057300084BF0AF1010A00265FFA8AF1F0B2FFF78E
:1057400087FFE8B2400050FA85F009EB40054FF0C2
:10575000FF3700BFE819407801F038FB0137052F0B
:10576000F8D10134E0B218F8000006360028DBD189
:1057700001B0BDE8F08F0000B0B50C460546FFF75C
:10578000D9FE7820FFF7A6FE2846FFF7A3FE2046A5
:10579000FFF7A0FEFFF7E8FEB0BD000010B52DED4D
:1057A000048B90ED021AB0EE409AB0EE410A044626
:1057B000B0EE608A01F04AFB94ED021A29EE409A9D
:1057C000B0EE410A01F08EFB20EE080A39EE401AD5
:1057D00094ED030A94ED043A20EE010A21EE031A37
:1057E0009FED3C3A94ED054A21EE031A94ED022A0E
:1057F00034EE000A34EE011A84ED051A20EE031A85
:105800009FED368A31EE021A9FED339AB4EE481AB4
:1058100040F2482184ED000A31EE092AF1EE10FA37
:10582000C8BFB0EE421AB5EE401AC2F200012046DF
:1058300031EE082AF1EE10FAB8BFB0EE421A84ED4C
:10584000021A84ED011AFFF7FDF894ED000A40F208
:105850003432BAEE041AC2F20002B4EE410A92EDFA
:10586000000AF1EE10FA4FF00001B5EE400A4FF0D9
:105870000000B8BF0121F1EE10FAB8BF01200142CB
:105880000AD140F2FC20C2F2000090F82D0001285D
:1058900002D0BDEC048B10BD94ED010A9FED101AEF
:1058A00030EE010AB4EE480A30EE091AF1EE10FAB1
:1058B000C8BFB0EE410AB5EE400AF1EE10FA84ED31
:1058C000010ABCBF30EE080A84ED010ABDEC048B6E
:1058D00010BD00BF17B7D138DB0FC9C0DB0FC940FF
:1058E000DB0F494020EE012A20EEA13A20EE811A7A
:1058F00020EE210A32EE032A31EE400A80ED002A22
:1059000080ED010A704700007047000041F20C0072
:10591000C4F202000168026842F2004301F0030190
:10592000C2F30312C0F2F4030132032904BF41F2AF
:105930000023C0F27A030168B3FBF2F20068C1F3FE
:1059400006215143C0F34160022202EB4000B1FB4B
:10595000F0F0704720EE012A20EEA13A20EE210A55
:1059600020EE811A32EE432A30EE010A80ED002A41
:1059700080ED010A70470000F0B581B02DED048B79
:10598000044640F21C00C2F2000090ED002A40F2F2
:105990003400C2F2000090ED003A94ED004A94ED1C
:1059A000066A22EE000A94ED015A63EE042A94ED91
:1059B000077A30EE620A22EE066A30EE460A22EEDE
:1059C000206A23EE053A36EE433A22EE072A33EEFA
:1059D000422A9FED253A84ED020A20EE030A84ED67
:1059E000032A34EE000A22EE032A84ED000A35EE83
:1059F000022A30EE410A04F1100084ED040A32EE6E
:105A0000610A04F1180604F11C0584ED012A04F171
:105A1000140784ED050A02F013FA40F21800C2F2EE
:105A2000000090ED009A384620EE098A84ED068A3F
:105A300002F006FA29EE000A40F2882184ED070AF6
:105A4000C2F20001B0EE480A3046FEF7FBFF94EDCB
:105A5000070A40F2B021C2F200012846FEF7F2FF29
:105A6000BDEC048B01B0F0BD17B7D1380022C0E9FE
:105A70000022C0E90222C0E90422C0E90622002077
:105A800048F20003C4F20740C4F23B63C1E90303D8
:105A90004A61C1E900227047704700009FED823AD9
:105AA000F5EE400A20EE032A32EE604AB6EE002AF6
:105AB00024EE024AF1EE10FAB5EE404A9FED7B4A21
:105AC0004FF0000020EE045A35EE605AC8BF0120A6
:105AD00025EE025AF1EE10FAC8BF0230B5EE405A78
