:020000040800F2
:10000000E0080020ED0100084D480008BF3F00084F
:100010002D450008BF09000809580008000000002D
:10002000000000000000000000000000454C000837
:10003000EB0A0008000000001B490008354E0008CC
:10004000070200080702000807020008070200086C
:10005000070200080702000807020008070200085C
:100060000702000807020008070200083D0A00080E
:10007000070200080702000807020008070200083C
:1000800007020008000000009D07000807020008A2
:100090000702000807020008070200080B0B00080F
:1000A000070200080702000807020008070200080C
:1000B0000702000807020008CD4E000807020008EA
:1000C00007020008070200080702000807020008EC
:1000D00007020008070200080702000807020008DC
:1000E000ED0A0008070200080702000807020008DE
:1000F00007020008070200080702000800000000CD
:1001000000000000070200080000000007020008CD
:1001100007020008000000000702000807020008AC
:10012000070200080702000807020008070200088B
:10013000070200080000000000000000070200089D
:10014000070200080702000800000000000000008D
:10015000000000000000000000000000000000009F
:10016000000000000000000000000000070200087E
:10017000070200080000000000000000000000006E
:10018000000000000702000800000000000000005E
:10019000000000000000000000000000000000005F
:1001A000000000000000000007020008070200082D
:1001B000070200080702000807020008000000000C
:1001C000000000000702000800000000000000001E
:1001D0000702000807020008DFF80CD000F05CFA04
:1001E00000480047CD650008E00800200648804729
:1001F00006480047FEE7FEE7FEE7FEE7FEE7FEE70C
:10020000FEE7FEE7FEE7FEE7BD4E0008D901000865
:100210002DE9F05F0546002092469B46884606463B
:10022000814640241BE0284641464746224600F0CE
:100230006AF853465A46C01A914110D311461846DF
:10024000224600F051F82D1A67EB01084F4622466E
:100250000120002100F048F817EB00094E41201E54
:10026000A4F10104DFDC484631462A464346BDE896
:10027000F09FD2B201E000F8012B491EFBD270477B
:100280000022F6E710B513460A4604461946FFF762
:10029000F0FF204610BD00F0004230F000400AD0D0
:1002A000C10D01F56071C0F3160042EA0151C208A8
:1002B00040071143704700200146704730B50B4698
:1002C000014600202022012409E021FA02F59D4286
:1002D00005D303FA02F5491B04FA02F52844151E5A
:1002E000A2F10102F1DC30BD202A04DB203A00FA41
:1002F00002F1002070479140C2F1200320FA03F37D
:10030000194390407047202A04DB203A21FA02F07A
:100310000021704721FA02F3D040C2F1200291403F
:100320000843194670472DE9FE4F804681EA0300D5
:10033000C00F0C46009021F0004123F00045B8EBBF
:100340000200A94105D24046214690461C460B4674
:10035000024623F00040104347D0270DC7F30A00A0
:10036000C3F30A510290401A019040286BDAC3F39C
:10037000130040F4801B0098924620B10023D2EB7A
:10038000030A63EB0B0B01985946C0F1400250463B
:10039000FFF7AAFF06460D4650465946019A00F05F
:1003A0008DF910EB08006141002487EA115284EABC
:1003B000E7731A4340D0009A62B3019A012A4FEAC8
:1003C000075215DC001B61EB02014FF0004202EA0C
:1003D0000752CDE90042001C41F5801132462B4600
:1003E00000F08DF903B0BDE8F08F40462146F9E7F3
:1003F000001B61EB0201001C41F5801300185B41FA
:100400002018A2F5001747EB030140EAD570B61992
:100410006D4111E06D084FEA360645EAC0754FEAB6
:100420000752001B61EB0201001C41F580114908D5
:100430004FEA30000019514132462B4603B0BDE867
:10044000F04F00F04DB90098012240000023D0EB9E
:10045000020263EBE073009821464FEAE074B8EBC8
:10046000000061EB0401E9E783F000435BE781F002
:10047000004158E72DE9FE4F81EA030404F00044EF
:1004800021F0004100944FF0000B23F0004350EAAC
:1004900001045ED052EA03045BD0C3F30A54C1F3F3
:1004A0000A552C44A4F2F3340194A0FB0254C1F386
:1004B000130141F48011C3F3130343F4801301FBD0
:1004C000024400FB034E840A970A44EA815447EA37
:1004D0008357A4FB076802958D0A05FB07854FEA41
:1004E000932C04FB0C542705029D4FEA065847EA5B
:1004F0001637B5EB08056EEB070C870E920E47EA30
:10050000811742EA8312A7FB0201B6EB0B0164EBF1
:1005100000042B0D43EA0C335E1844EB1C50DA4602
:100520005146E7FB0201C5F313044FEA0B3343EADC
:1005300014534FEA0432019C43EA0603A4F10C046D
:100540000294009CCDE900B400F0D9F803B0BDE8F6
:10055000F08F00200146F9E72DE9F04D81EA030410
:1005600004F0004B21F0004514464FF0000A23F040
:10057000004150EA050220D054EA01021DD0C5F323
:100580000A570246C5F31303C1F31300C1F30A5619
:1005900040F4801543F48013A7EB0608101BD646E1
:1005A00008F2FD3873EB050002D308F1010801E001
:1005B00092185B41B8F1000F03DA00200146BDE854
:1005C000F08D00204FF48011064684460EE0171B84
:1005D00073EB050705D3121B63EB050306434CEAD7
:1005E000010C49084FEA300092185B4150EA0107BC
:1005F000EDD152EA030012D082EA040083EA050139
:10060000084305D0101BAB4106D20122002306E0AF
:1006100000224FF0004302E06FF0010253101AEB8A
:1006200006004CEB085110EB0A0041EB0B01BDE852
:10063000F04D00F055B8C1F30A52C1F3130140F276
:10064000FF3341F480119A4202DA002001467047DC
:1006500040F233439A42A2F2334202DC5242FFF7A5
:1006600052BEFFF741BE000030B5041E71F1000418
:1006700004DB4FF00044404264EB0101141E73F1AF
:10068000000405DB1C464FF00043524263EB0403B9
:10069000994208BF904230BD064C074D06E0E06825
:1006A00040F0010394E8070098471034AC42F6D3B9
:1006B000FFF796FDE466000804670008202A06DBC1
:1006C000CB17203A41FA02F043EAE07306E041FA20
:1006D00002F3D040C2F1200291400843194670470E
:1006E00010B5141E73F1000408DA401C41F100013A
:1006F00092185B411A4301D120F0010010BD2DE991
:10070000F04D92469B4611B1B1FA81F202E0B0FA87
:1007100080F220329046FFF7E7FD04460F4640EA9C
:100720000A0041EA0B0153465A46084313D01146CA
:1007300053EA010019D0C8F140025046FFF7E3FD2B
:1007400005460E46504659464246FFF7CDFD084342
:1007500005D0012004E020463946BDE8F08D002098
:10076000054346EAE0762C4337430A986305E40ADA
:10077000A0EB08000022FD0A44EA47540A3002D5E3
:1007800000200146E9E7010510196941DDE9084546
:1007900000196941BDE8F04DA2E7000010B504481A
:1007A00001F0C8F9BDE81040024801F0C3B90000EB
:1007B000D40000204001002010B5846AE16D11F0E2
:1007C000500F06D0E16DC90625D5204601F0B0F9DD
:1007D00010BDE06D40F40070E06520680168090715
:1007E00016D503F009FC78B12068C06880040028A1
:1007F0000ADBE06D20F48070E065E06DC00403D496
:10080000E06D40F00100E065204601F08FF910BD79
:10081000C0688007EBE7616D496BBDE81040084791
:1008200010B5806AC16D41F04001C165016E41F0B3
:100830000401016601F07CF910BD10B5806A01F079
:1008400076F910BD70B50446006881688268C1F30E
:10085000400112F0010F28D039BB816801F00D0171
:10086000012914D18168124A1140891C81602168D4
:100870000320086001F060FF054612E001F05CFF14
:10088000401B02280DD920688068C00709D0E06DA0
:1008900040F01000E065206E40F00100206601206D
:1008A00070BD20688068C007E8D1002070BD0000DE
:1008B000C0FFFF7FF8B504460020009020688168E3
:1008C00011F0010F41D18168214A11422ED1816876
:1008D000D5432940491C81601E48806800F0E070C3
:1008E00000020DD51C481D490068B0FBF1F0401C0A
:1008F00000EB4000800000E0401E00900028FBD18B
:1009000001F01AFF06461BE0816811F0010F03D1C8
:1009100081682940491C816001F00EFF801B02287C
:100920000ED920680068C043C00709D0E06D40F0D0
:100930001000E065206E40F0010020660120F8BD47
:1009400020680168C943C907DED10020F8BD000056
:100950003F0000800003005018000020400D0300FD
:1009600010B504462DED028BB0EE408A04F082FFF4
:1009700084ED000AB0EE480A05F024F884ED010A7F
:10098000BDEC028B10BD70B500234E1E14E000229A
:10099000CD1A6D1E0DE000EB820494EC020AB4EE59
:1009A000E00AF1EE10FA03DDC4ED000A84ED010A5D
:1009B000521C9542EFDC5B1CB342E8DB70BDFEE7E6
:1009C000B0EE001A80ED000A00EE810ADFED030AA6
:1009D00020EE200A80ED010A704700003ACD133F57
:1009E00070EE600A91ED010A91ED051A20EE010A00
:1009F00091ED001A01EE200A91ED031AB4EEC01A2F
:100A0000F1EE10FA06D391ED041AB4EEC01AF1EE2D
:100A100010FA02DD80ED001A03E080ED000A90ED8F
:100A2000001A31EE400A91ED021A40EE010A91EDF2
:100A3000050A30EE800A81ED050A7047014801F091
:100A4000CBBB0000AC0100200D4902688A4201D2F4
:100A50000C4901E00B492031D2B21423083AB2FB11
:100A6000F3F2436C02F01F0223F003031944816484
:100A700004498031C1640121914001657047000043
:100A800008040240000802400179074A02EB810293
:100A90004265054A4432491E826501F01F02012168
:100AA0009140C16570470000FC08024030B5D0E9B4
:100AB00013456560446D14B1D0E91645656090F842
:100AC000444004F01F050124AC40056C6C600468D0
:100AD00063608368102B036803D099600068C2606C
:100AE00030BD9A600068C16030BD704710B54FF4EA
:100AF000806001F0F1FC4FF4006001F0EDFCBDE816
:100B000010404FF4005001F0E7BC4FF4807001F04A
:100B1000E3BC000010B50021074802F017FE0421D5
:100B2000054802F013FE054C00206060206000F0D4
:100B3000CDF80120206010BD0C030020B804002077
:100B40001B4800681B4900EE100A1B489FED1B2A3A
:100B5000F8EE400A91ED070AD0ED071A194BB8EEEE
:100B6000401A90ED050A30EEC00A71EE611A01EEEE
:100B7000820AF0EE001A20EE210ADFED111A20EEB3
:100B8000210A10EE102A81ED040A9A4204DC10EECC
:100B9000102A0D4B9A4203D990ED080A81ED040A00
:100BA000C0ED050A80ED071A80ED080A70470000C5
:100BB00024080040B80400205800002000007A45B6
:100BC000DB0F49400000FA430000FAC370B51F4C28
:100BD0001D4D2078A5F1280606EB800195ED040A4D
:100BE000401CC0B281ED000A20700A281ED10020EE
:100BF00020709FED170A0A2184ED030A3046FFF7A3
:100C0000C2FE217894ED030A06EB81010220D1EDAA
:100C1000000A00BF30EE800A401CC0B20828F9D399
:100C2000F1EE080A80EE201A84ED031AD4ED030ACF
:100C3000B6EE000A95ED041A60EE800A41EE000A55
:100C4000C5ED050A70BD0000B80400205800002062
:100C50000000000010B5184C206801282AD103F0CC
:100C6000C9FD03F0C1FDB5EEC00A1448F1EE10FA5B
:100C700080ED060A07DD10EE101A114A914202DAE1
:100C8000B1EE040A0BE0B5EEC00AF1EE10FA08D29C
:100C900010EE101A0B4A914203D2B9EE040A80ED0D
:100CA000060AD4ED050A0548BDE81040064914308F
:100CB00004F092B810BD0000B8040020EC0300203E
:100CC0000000A0400000A0C0600400202DE9F04713
:100CD0001C4CB3EE080A2DED028B002584ED010AB1
:100CE0009FED190A194E84ED020AB7EE080A9FED2E
:100CF000188A86ED000A174FDFF85C8086ED018ABE
:100D000042F210791348B0EE480AFFF729FE97EC3B
:100D1000021A114896EC020A03F000FED4ED021A02
:100D200094ED011AD8ED010A98ED000A03F08CFF4A
:100D30006D1C4D45E6D3094900200860BDEC028BCF
:100D4000BDE8F087EC030020004083463800002017
:100D50000000000030000020400000202408004077
:100D600072B6FEE70A48B3EE080A002180ED010AD8
:100D70009FED080A80ED020A0173074990ED040A0D
:100D800081ED000A90ED050A81ED010A704700002F
:100D9000EC03002000D084463800002070B52A48BB
:100DA000A0F10C0190ED000A81ED000AD0ED010ADE
:100DB000C1ED010A90ED021A244881ED021AFFF7F5
:100DC000FFFD214C2148383C183894ED000AFFF70C
:100DD000C7FD1E480830A0F13405D5ED061A95ED83
:100DE000051AD5ED0C0A95ED0B0A03F089FD05F106
:100DF000340694ED040AD6ED000A154905F11C00ED
:100E0000FFF7EEFDD6ED010A94ED050A114905F153
:100E10002000FFF7E5FD05F12400D5ED061A95ED5C
:100E2000051AD5ED080A95ED070A03F077FDD4ED14
:100E3000021A94ED011AD5ED0A0A95ED090ABDE8EA
:100E4000704003F001BF000024040020480000208F
:100E50003004002048040020F8B50026044600961F
:100E600090F858000D4601280BD0012084F8580056
:100E70002046FFF7E7FC0100E06D04D040F01000D1
:100E80002AE00220F8BD20F4885040F00200E0651E
:100E900020688268134B1A4005F080431A4342F0E1
:100EA00000428260104A20680EE0009B5B1C0093A9
:100EB000934209D3E06D20F0020040F01000E0659D
:100EC00084F858600120F8BD8368DB0FEDD1E06D38
:100ED00020F0020040F00100E06584F85860084608
:100EE000F8BD0000C0FFFF3F02DE040070470000B5
:100EF0002DE9F84F4FF000080446CDF800800D466C
:100F000094F85820DFF8EC93616947464046012A7F
:100F10000AD00126F84A84F8586041B1296A0129AB
:100F200005D0A36EEBB129E00220BDE8F88F686818
:100F3000092838D1A96A4FF4785041B12B6801F0E3
:100F40007C0100EA53400843E96A084302E029684B
:100F500000EA51402168CB6C13400343CB646066C8
:100F600021E0C4E91971A96A286A31B101F07C0154
:100F7000401E0843E96A084300E0401E29682B79B7
:100F8000C1F3846103F01F0399400143A06E401E2A
:100F9000A066636E43EA0103636604D12068C16CF6
:100FA00011401943C164206803F01AF858B995F844
:100FB000250098B12068C16895F8262021F44011D9
:100FC00041EA4251C160206803F012F8824620686D
:100FD00003F006F85AEA00000DD0FBE095F8260071
:100FE00095F82410400540EA01512068C26822F4B7
:100FF00040121143E6E7A86A30B1E86A20B195F8DB
:10100000250001285ED003E095F82500012804D0D2
:101010002068C16821F0007103E02068C16841F0D8
:101020000071C16095F83000012852D02068016934
:1010300021F002010161AA6829682068B2F1004F1D
:1010400038D002F0F0FF2068416921F00041416191
:1010500020686969C268C2F3C102520091402A69DE
:10106000042A44D000EB82002B68026EDFF88CC2A9
:1010700003F0F84302EA0C020B431A4342F000412A
:10108000016620682A69A96900EB8200026E22F0DD
:1010900080720A430266297F22682869012923D0C9
:1010A0005FF0000102EB8000026E22F000720A4342
:1010B00002668FE0002202F0B6FF2068416941F02D
:1010C0000041C4E7E06D40F02000E0654FF001080A
:1010D000A8E7D5E90D1001432068026922F4FF72E8
:1010E00042F002021143A5E74FF00071DAE7002158
:1010F00002F06CFF400320684FF0000172D002F054
:1011000065FF90FAA0F0B0FA80F1286842036ED033
:1011100090FAA0F0B0FA80F0814204D1002211468A
:10112000206802F097FF0121206802F04FFF400382
:1011300020684FF001015DD002F048FF90FAA0F066
:10114000B0FA80F12868420359D090FAA0F0B0FAC2
:1011500080F0814204D100220121206802F07AFF50
:101160000221206802F032FF400320684FF00201A4
:1011700048D002F02BFF90FAA0F0B0FA80F1286876
:10118000420344D090FAA0F0B0FA80F0814204D13A
:1011900000220221206802F05DFF0321206802F096
:1011A00015FF400320684FF0030133D002F00EFF1B
:1011B00090FAA0F0B0FA80F1286842032FD090FA9C
:1011C000A0F0B0FA80F0814204D10022032120680F
:1011D00002F040FF2068816811F0010F22D0B6E0D4
:1011E00000E004E002F0F2FEC0F384618DE7C0F39A
:1011F000846091E702F0EAFEC0F38461A2E7C0F3E5
:101200008460A6E702F0E2FEC0F38461B7E7C0F3B2
:101210008460BBE702F0DAFEC0F38461CCE7C0F380
:101220008460D0E72A7B296850F8B03FC1F3120CE4
:1012300023EA0C0302F0180C314A22FA0CF20A409D
:1012400013430360E96849457ED1286841031CD0F7
:1012500090FAA0F1B1FA81F1491C01F01F010929AE
:101260004FEA403132D8002912D000BF90FAA0F1E5
:10127000B1FA81F101F1010101F01F0106FA01F655
:1012800009D100BFC0F3846109E0C0F38461E3E7E2
:10129000C0F38461EEE790FAA0F1B1FA81F101F1B7
:1012A000010101F01F0146EA816102D1C0F38460AF
:1012B00003E090FAA0F0B0FA80F000F1010000F035
:1012C0001F0000EB400041EA00513AE000290ED037
:1012D00090FAA0F1B1FA81F101F1010101F01F01D1
:1012E00006FA01F60ED100BFC0F384610EE0C0F330
:1012F0008461F1E700007F400040100400F0FF032C
:10130000FFFF070090FAA0F1B1FA81F101F10101AC
:1013100001F01F0146EA816102D1C0F3846003E05D
:1013200090FAA0F0B0FA80F000F1010000F01F0088
:101330002B4A00EB400002EB005041EA000141F073
:101340000071AA68206800E001E002F06CFE254808
:101350002A68024240D024488168244B01F0E071A1
:101360009A4202D0224B9A421BD10B0219D4226816
:10137000B2F1A04F30D1826841F4000122F0E07256
:101380000A4382601B481C490068B0FBF1F0801CD6
:1013900000EB4000800000E0401E00900028FBD1E0
:1013A0001AE0164D164BAA4207D1CD0105D422688A
:1013B0009A4211D041F0807109E0124DAA420BD13E
:1013C0004A0209D422689A4206D041F48001826818
:1013D00022F0E0720A43826084F858704046A4E527
:1013E000000020FE0000088000030050000021C320
:1013F0001000C09018000020400D0300000052C7EC
:1014000000010050000084CB0249884201D103F062
:10141000FDB87047D4000020704700002DE9F0416E
:1014200004463548806800F01F05206802F0D8FDAA
:1014300008BB2168C868C96C00F0004011F4C07F87
:1014400000D190B194F85800012814D0012084F8FC
:1014500058002046FFF72EFA02004FF000030CD090
:1014600084F858301046BDE8F081E06D40F020006F
:10147000E0650120F7E70220F5E7E06DC00504D53F
:10148000206E20F00800206600E02366E06D42F246
:101490000101884340F48050E065184F21684FF007
:1014A000A046B94201D1304600E00846884200D04B
:1014B0001DB9E06D20F48010E0656020086084F8BC
:1014C00058302068B84200D00646864209D045B15F
:1014D000062D06D0072D04D0E06D40F48010E065A5
:1014E000C0E7C16811F0007FBCD18168044B19408E
:1014F00041F008018160B5E7000300500001005091
:10150000C0FFFF7F2DE9F04104464548806800F0A8
:101510001F05206802F064FD08BB2168C868C96C1B
:1015200000F0004011F4C07F00D190B194F8580051
:10153000012814D0012084F858002046FFF7BAF99A
:1015400001004FF000020CD084F858200846BDE896
:10155000F081E06D40F02000E0650120F7E7022017
:10156000F5E7E06DC00504D5206E20F00800206688
:1015700000E02266E06D42F20103984340F480509F
:10158000E065284B20684FF0A046984201D13746CD
:1015900000E00746874200D01DB9E76D27F48017A9
:1015A000E7656027076084F858202068C2689202C7
:1015B00003D5426842F480624260A069082820682E
:1015C000426807D022F0400242602068426842F040
:1015D000200206E022F0200242602068426842F0C9
:1015E000400242602068984201D1324600E0024643
:1015F000824209D045B1062D06D0072D04D0E06DFA
:1016000040F48010E065A1E7C26812F0007F9DD130
:101610008268054B1A4042F00802826096E700009B
:101620000003005000010050C0FFFF7F704770476B
:101630002DE9F047044690F858009CB00E464FF054
:101640000009012815D0012084F8580000251795BD
:10165000189520684FF0A04840450ED1284F0097BC
:10166000384602F0C5FC8246206802F0C1FC60B139
:101670000EE002201CB0BDE8F087E06D40F02000D5
:10168000E06584F858500120F4E7BAF1000F09D062
:10169000E06D40F02000E0654FF0010984F85850FB
:1016A0004846E7E71748326840F61F71002A82680B
:1016B00022F4604216D094F8383042EA433273681C
:1016C0001A438260D8F80820BB6802F0010203F0D8
:1016D00001031A43E2D1B36832681A4383688B432B
:1016E0001A430BE08260D8F80820BB6802F00102C0
:1016F00003F001031A43D1D182688A438260CDE7A7
:1017000000010050000300502DE9F84F0027044667
:10171000009790F85800DFF8E0930D46B84601288E
:1017200011D0012684F85860206802F05DFC60B199
:10173000E06D40F02000E0655FF0010784F858801C
:101740003846BDE8F88F0220FBE7D5E900210C23DD
:10175000206803EA91131844036B01F01F014FF056
:101760001F0C0CFA01FCC2F3846223EA0C038A40CA
:1017700013430363206802F037FC8246206802F0BE
:101780002BFC5AEA00003CD1AA6829682068B2F113
:10179000004F37D002F038FC2068416921F0004149
:1017A000416120686969C268C2F3C1025200914078
:1017B0002A69042A31D000EB82002B68026EDFF820
:1017C0003CC303F0F84302EA0C020B431A4342F015
:1017D0000041016620682A69A96900EB8200026E57
:1017E00022F080720A430266297F22682869012953
:1017F00010D0002102EB8000026E22F000720A433A
:1018000002667DE0002202F0FFFB2068416941F0A2
:101810000041C5E74FF00071ECE7002102F0D0FB7A
:10182000400320684FF0000172D002F0C9FB90FA2B
:10183000A0F0B0FA80F1286842036ED090FAA0F0D0
:10184000B0FA80F0814204D100221146206802F0F3
:10185000F9FB0121206802F0B3FB400320684FF040
:1018600001015DD002F0ACFB90FAA0F0B0FA80F17B
:101870002868420359D090FAA0F0B0FA80F0814273
:1018800004D100220121206802F0DCFB0221206843
:1018900002F096FB400320684FF0020148D002F0AE
:1018A0008FFB90FAA0F0B0FA80F12868420344D090
:1018B00090FAA0F0B0FA80F0814204D10022022117
:1018C000206802F0BFFB0321206802F079FB40038F
:1018D00020684FF0030133D002F072FB90FAA0F0C1
:1018E000B0FA80F1286842032FD090FAA0F0B0FA45
:1018F00080F0814204D100220321206802F0A2FB83
:101900002068816811F0010F22D0ACE000E004E013
:1019100002F056FBC0F384618DE7C0F3846091E769
:1019200002F04EFBC0F38461A2E7C0F38460A6E737
:1019300002F046FBC0F38461B7E7C0F38460BBE705
:1019400002F03EFBC0F38461CCE7C0F38460D0E7D3
:101950002A7B296850F8B03FC1F3120C23EA0C032C
:1019600002F0180C664A22FA0CF20A401343036094
:10197000E968494577D1286841031CD090FAA0F165
:10198000B1FA81F1491C01F01F0109294FEA4031E8
:1019900032D8002912D000BF90FAA0F1B1FA81F13B
:1019A00001F1010101F01F0106FA01F609D100BFA2
:1019B000C0F3846109E0C0F38461E3E7C0F38461AC
:1019C000EEE790FAA0F1B1FA81F101F1010101F025
:1019D0001F0146EA816102D1C0F3846003E090FAFE
:1019E000A0F0B0FA80F000F1010000F01F0000EB61
:1019F000400041EA005132E000290ED090FAA0F1F7
:101A0000B1FA81F101F1010101F01F0106FA01F6BD
:101A100006D100BFC0F3846106E0C0F38461F1E742
:101A200090FAA0F1B1FA81F101F1010101F01F0179
:101A300046EA816102D1C0F3846003E090FAA0F02D
:101A4000B0FA80F000F1010000F01F002D4A00EB19
:101A5000400002EB005041EA000141F00071AA6829
:101A6000206802F0D1FA28482A6802423FF466AEA4
:101A700026488168264B01F0E0719A4202D0254B3E
:101A80009A421CD10B021AD42268B2F1A04F7FF403
:101A900055AE826841F4000122F0E0720A43826090
:101AA0001D481E490068B0FBF1F0401C00EB4000EF
:101AB000800000E0401E00900028FBD13EE6184D5B
:101AC000184BAA4207D1CD0105D422689A42F5D01D
:101AD00041F0807109E0144DAA42EFD14A02EDD4E1
:101AE00022689A42EAD041F48001826822F0E072D2
:101AF0000A43826022E6000000007F4000F0FF03FE
:101B0000FFFF0700000020FE0000088000030050D7
:101B1000000021C31000C09018000020400D0300F9
:101B2000000052C700010050000084CB704770478E
:101B3000704700002DE9F05F0446006806684568BC
:101B4000DFF854B2DBF8080000F01F07B0070ED52D
:101B5000A8070CD5E06DC00603D4E06D40F400602A
:101B6000E0652046FFF7C2F9216802200860DFF82F
:101B70002CA270074FF0A04801D5680703D43007A6
:101B800037D5280735D5E06DC00603D4E06D40F4A5
:101B90000070E065206802F02FFA20B320685045FD
:101BA00001D1424600E00246824208D03FB1052FF3
:101BB00005D0092F03D0504503D1414602E0C1684A
:101BC00001E00146C96889040DD4016809070AD5F6
:101BD00002F00AFA58B3E06D40F01000E065206EA4
:101BE00040F0010020662046FFF7A0FF21680C208E
:101BF0000860B00601D5A80603D4700658D568065B
:101C000056D5E06DC00603D4E06D40F40050E065A9
:101C10002068C16C11F4C07F1AD00021894602F0FF
:101C2000EBF902462068504514D1434613E0206882
:101C3000416821F00C014160E06D20F48070E065A6
:101C4000E06DC004CFD4E06D40F00100E065CAE76C
:101C50000121E3E70346834208D03FB1062F05D0B8
:101C6000072F03D0504503D1414602E0C16801E08F
:101C70000146C968B9F1000F14D08B0102D58AB1B1
:101C80008A040FD4026852060CD589020AD402F0E5
:101C9000A3F9E8B3E06D40F01000E065206E40F07D
:101CA000010020662046FFF7AFFB21686020086036
:101CB00030060BD5280609D5E06D40F48030E0658C
:101CC000204600F067F9216880200860F0050CD5F7
:101CD000E8050AD5E06D40F40030E0652046FFF7E6
:101CE000A5FC21684FF480700860B0050CD5A805EC
:101CF0000AD5E06D40F48020E0652046FFF797FCB0
:101D000021684FF400700860F0062ED5E80600E068
:101D100008E02AD5E06BD0B1AFB1DBF8080000F4E1
:101D2000604013E02068416821F060014160E06D8F
:101D300020F48050E065E06DC005B3D4E06D40F064
:101D40000100E065AEE72068C068C00750B1E06DF3
:101D500040F48060E065206E40F00200206620467E
:101D6000FFF7E6FE216810200860700512D56805AF
:101D700010D5E06D40F48040E065206E40F0080032
:101D8000206621684FF4806008602046BDE8F05F5F
:101D9000FFF742BBBDE8F09F000300500001005078
:101DA000F8B54FF0000504002E46009502D0E06D16
:101DB00010B107E00120F8BD204600F0EDF82666DE
:101DC00084F8586020688168C1F3407119B1816856
:101DD000684A1140816020688168C1F3007189B947
:101DE0008168654A114041F08051816063486449CF
:101DF0000068B0FBF1F04000801C00E0401E009045
:101E00000028FBD120688168C1F3007141B9E16D00
:101E100041F01001E165216E41F0010121660125CB
:101E200002F0E2F8E16DC90600D430B1E06D40F097
:101E30001000E06501252846F8BDE06D20F48070B3
:101E400040F00200E0652068806810F0010F11D1B9
:101E50004FF0A04080684B4900F00100896801F014
:101E60000101084306D148486168826822F47C1267
:101E70000A438260E168E06B627F0843A16841EA3F
:101E80004231084394F8241040EA0140012904D16A
:101E9000218D3E4A02EB41410843E16A29B101F438
:101EA0007871226B014342EA01002268D168384B05
:101EB00019400143D16020680169626B21F04061E3
:101EC00011430161206802F087F870BB207F94F80D
:101ED0003810800340EA41022168C86844F20203D6
:101EE00098431043C86020690028206801690AD01F
:101EF00041F480310161206850F8C01F22696FF3FE
:101F00000D01114307E021F480310161206850F890
:101F1000C01F6FF30D01016094F8400001280CD040
:101F20002068016921F001010161606901282068D0
:101F3000016B21F00F0111D013E0D4E91101084326
:101F4000D4E913121143084321680A6940F2FC7373
:101F50009A43104340F001000861E6E7226A521EEE
:101F600011430163E06D20F0020040F00100E065E4
:101F700061E70000C0FFFF5FC0FFFF7F1800002087
:101F8000400D030000010050000300500000FEFF60
:101F90000740F0FF704700002DE9F04397B0064678
:101FA000142111A8FEF76CF944216846FEF768F980
:101FB0004FF40042306800259103454F454C4FF0E7
:101FC00003084FF09049B0F1A04F10D0424B984217
:101FD0007AD1009268460F9100F086FD08B1FEF7B5
:101FE000BFFE3868401C3860012835D03CE00092C4
:101FF00068460F9100F078FD08B1FEF7B1FE386831
:10200000401C3860012807D1E06C40F40050E064C7
:10201000E06C00F400501690E06C40F00100E064C9
:10202000E06C00F001001690E06C40F00200E0640B
:10203000E06C11A900F0020016900420444681E8EB
:102040003100484600F054FA11A9022081E831001D
:10205000224800F04DFA2FE0E06C40F40050E064BC
:10206000E06C00F400501690E06C40F00100E06479
:10207000E06C139500F0010016904120CDE91108A5
:1020800011A9484600F034FA164C15482060242067
:10209000C4E901058020C4E903504000606180006C
:1020A000A0612020C4E90705204600F0F3F808B13C
:1020B000FEF756FE7465A66200220121122000F090
:1020C000A1FB122000F090FB17B0BDE8F0830000E8
:1020D00008000020001002400001005000040048E9
:1020E00008000240AC0100202DE9F04104463448CC
:1020F00017468846806800F01F05206801F074FFCD
:1021000000285AD194F85800012856D0012084F8AC
:102110005800002625B1052D02D0092D00D003E07E
:102120002046FEF7C7FB18B184F85860BDE8F0817F
:10213000E06D40F60161884340F48070E06521491C
:102140002068884202D14FF0A04100E00146814260
:1021500000D01DB9E06D20F48010E065E06DC00492
:1021600004D5206E20F00600206600E02666616D32
:102170001548C862616D15480863616D144848636D
:1021800021681C20086084F858602068416841F08C
:10219000100141602068C16841F00101C1602168FF
:1021A0003B4642464031606D00F0D4F821688A68B1
:1021B000084B1A40121D8A60B8E70220B6E70000FB
:1021C0000003005000010050B90700083B08000858
:1021D00021080008C0FFFF7FF0B4016C0C680168A3
:1021E0000D6890F8442002F01F06042202FA06F35C
:1021F000234211D06B070FD50B689B0603D40B68E5
:1022000023F004030B6090F8441001F01F018A4092
:10221000016C4A60016B1DE0022303FA06F72742B6
:102220004FF0000C4FF0010218D0AF0716D50C6824
:10223000A40605D40C6824F00A040C6080F825205C
:1022400090F8441001F01F018B40016C4B6080F846
:1022500024C0C16A00291AD0F0BC08470823B34043
:10226000234214D02B0712D50B6823F00E030B600A
:1022700090F84410036C01F01F0102FA01F159605B
:10228000C26380F8252080F824C0416BE2E7F0BCEF
:102290007047000070B504000CD02B4A2168142050
:1022A000914209D2294A0A44B2FBF0F080006064EE
:1022B00027480AE0012070BD234A52420A44B2FB7B
:1022C000F0F080006064204808382064022084F820
:1022D00025000A6847F6F0708243D4E902031843E8
:1022E000D4E904352B431843A3691843E369184321
:1022F000236A1843104308602046FEF7A5FBA06838
:102300000025B0F5804F00D16560A16C2079086090
:10231000D4E9130141606068401E032808D82046B4
:10232000FEF7B2FB606D0560D4E91601416002E082
:102330006565A565E565E563012084F8250084F8F9
:102340002450002070BD000008040240F8FFFDBFCB
:102350000000024070B5044690F8240000250128D2
:102360000CD0012084F8240094F825600020012E70
:1023700006D084F824000225284670BD022070BDD6
:10238000022684F82560E0632068066826F00106CE
:1023900006602046FEF78AFB206B00282068016853
:1023A00002D041F00E0106E021F004010160206836
:1023B000016841F00A010160A06C0168C90303D5FE
:1023C000016841F480710160606D18B1016841F4E9
:1023D000807101602068016841F001010160CBE774
:1023E00070B5044600F0A8F90546601C02D0044808
:1023F0004068044400F0A0F9401BA042FAD370BD2D
:102400000C00002010B5044600F096F92A490A682D
:10241000821A642A1FD30860B4F5807F14D0B4F503
:10242000806F1BD0B4F5006F27D0B4F5005F12D1D8
:1024300091ED010AF3EE040AB5EEC00AF1EE10FACE
:1024400020DB30EE200A1FE01C48416821B1012941
:1024500001D10021416010BD0121FBE791ED010A8E
:10246000B5EEC00AF1EE10FA02D09FED150A01E0B8
:102470009FED140A81ED010A19E091ED010AB1EE18
:10248000400AF7E730EE600A0F4A10EE100A81EDBD
:10249000010A904203DD9FED0D0A81ED010A10EE65
:1024A000100A0B4A904202D99FED0A0AE2E7BDE802
:1024B000104002F0ADB9000000000020B804002078
:1024C000000000000000484200004843000048436C
:1024D000000048C3000048C3044910B50A6802421E
:1024E00002D00860FFF78EFF10BD00001404014009
:1024F0002DE9F04FDFF82092002301260324A9F1F3
:10250000040B85B00F2709F1040AABF1040EFAE0C1
:1025100006FA03F52A407CD091F804C00CF0030CB5
:10252000BCF1010F02D0BCF1020F26D1D0F808C0D7
:10253000CDF800C04FEA430C04FA0CF8CDF810C0F7
:10254000DDF800C02CEA080CCDF800C0D1F80C80F2
:10255000DDF810C008FA0CF8DDF800C048EA0C08F5
:10256000C0F80880D0F804C02CEA050C0D79C5F33A
:1025700000159D4045EA0C0545600D79ED43AD071A
:102580000ED0C5684FEA430804FA08FC25EA0C059A
:10259000D1F808C00CFA08FC4CEA050CC0F80CC0D5
:1025A0000D7905F00305022D16D1DD0800EB850C31
:1025B000CDF808C0DCF820805D074FEAD56C07FA3B
:1025C0000CF528EA05080D6905FA0CF5DDF808C0D8
:1025D00045EA0805CCF8205005684FEA430CCDF8D1
:1025E00008C004FA0CFC25EA0C0591F804C00CF0B4
:1025F0000308DDF808C008FA0CF848EA0508C0F836
:1026000000804D6815F4403F7CD0444DD5F860C043
:1026100000E077E04CF0010CC5F860C02D6E23F0AF
:10262000030C05F0010500953D4D65440295AD682C
:102630004FEA837C4FEA1C7807FA08FC25EA0C0570
:10264000B0F1904F06D0DFF8DCC0604505D14FF007
:10265000010C20E04FF0000C1DE0DFF8CCC060451D
:1026600002D14FF0020C16E0DFF8C0C0604502D185
:102670004FF0030C0FE0DFF8B8C0604502D14FF017
:10268000040C08E0DFF8ACC0604502D14FF0050C47
:1026900001E04FF0060C0CFA08FC4CEA050C029D18
:1026A000C5F808C0D9F80050CC46D1F8048095434D
:1026B0005FEAC82800D51543CCF80050DAF800507E
:1026C000D446D1F8048095435FEA882800D51543A5
:1026D000CCF80050DBF80050DC46D1F8048095437C
:1026E0005FEA883800D51543CCF80050DEF800507A
:1026F000F446D1F8048095435FEAC83800D5154305
:10270000CCF800505B1C0A6832FA03F57FF400AF86
:1027100005B0BDE8F08F0000080401400010024041
:10272000000001400004004800080048000C004878
:1027300000100048001400480148806870470000FD
:102740000C00002002488168426811448160704793
:102750000C00002010B50024032000F073F80F20B7
:1027600000F008F808B1012401E000F025F8204647
:1027700010BD000070B50E4E05460024706898B17B
:102780004FF47A71B1FBF0F00A490968B1FBF0F03F
:1027900000F03AFE40B9102D06D200222946501E04
:1027A00000F030F8356000E00124204670BD0000E4
:1027B0000C000020180000200A4882B0016E41F091
:1027C00001010166016E01F001010091816D41F08E
:1027D00080518165806D00F08050009002B000F063
:1027E0007BB9000000100240002809DB00F01F0246
:1027F000012191404009800000F1E020C0F8001163
:1028000070470000F0B40E4B1B680C46C3F3022364
:10281000C3F10705042D00D90425191D072901D28C
:10282000002300E0DB1E012606FA05F1491E2140C7
:1028300099409E40761E16403143F0BC03F009B823
:102840000CED00E0064900F0070208684FF6FF03B0
:10285000184040EA0220034A104308607047000015
:102860000CED00E00000FA05F8B504004FF000059B
:1028700014D094F83A00052810D094F83A000228B1
:102880000CD03448016E41F001010166006E00F089
:102890000100009094F83A0010B104E00120F8BD66
:1028A000002084F83900204600F058F8A0682A4A31
:1028B0004FF48071402836D0602834D020680368F7
:1028C000E66A23F0100333430360D4E9010318439D
:1028D000D4E9033633431843237D012B00D0002174
:1028E0000843616A0843A16A0843218E40EAC14057
:1028F00094F8341040EA01612068036813401943DA
:10290000016020688169002909DBD4E906121143BE
:10291000226A836923F03F031A431143816194F8CB
:102920003A0090B114E020680368E66A23F01003CF
:1029300033430360D4E901031843267D2369012E44
:1029400000D000210B431843CBE7012084F83A0064
:102950002846F8BD00100240113E00E030B587B0B7
:10296000044614216846FDF78BFC24681D4D0022A7
:102970001D4903234FF09040AC4209D1CC6C44F088
:102980000104CC64C96C01F0010105910E210CE039
:10299000144D2D1DAC4211D1CC6C44F00104CC641B
:1029A000C96C01F001010591E021CDE9001302920B
:1029B0004FEA0D01FFF79CFD07B030BD0948083014
:1029C0008442F9D1C86C40F00200C864C86C694602
:1029D00000F0020005900720CDE9000302920348B1
:1029E000E8E7000000030140001002400004004836
:1029F000002138B190F83A20052A03D090F83A2007
:102A0000012A02D00121084670470268136843F08A
:102A100001031360042280F83A20F4E72B492C4B81
:102A20000A6832214A432B4940B1B0F5007F08685B
:102A300029D020F4C06040F480602CE00868C0F326
:102A40004120022804D051F8800F20F4807022E049
:102A5000D1F8800020F48070C1F88000086820F46C
:102A6000C06040F400700860B2FBF3F0401C00E06E
:102A7000401E4A69520501D50028F9D14869400530
:102A80000AD503207047C0F34120022806D051F830
:102A9000800F40F48070086000207047D1F88000FB
:102AA00040F48070C1F88000086820F4C06040F4F1
:102AB00000700860B2FBF3F0401C00E0401E4A6961
:102AC0005205DBD50028F9D1D8E700001800002016
:102AD00040420F00007000400248816841F480418C
:102AE00081607047007000402DE9F843044600689B
:102AF00000269D4D00035ED5A86D0027C00008D4B8
:102B0000A86D40F08050A865A86D012700F08050A6
:102B10000090DFF85892D9F8001041F48071C9F89C
:102B20000010FFF709FE804606E000BFFFF704FE35
:102B3000A0EB080002282BD8D9F80000C005F5D575
:102B4000D5F8900010F4407014D0216C814211D05F
:102B5000D5F89000D5F8901020F4407041F4803101
:102B6000C5F89010D5F8901021F48031C5F8901078
:102B7000C5F89000C00711D0FFF7DEFD804641F296
:102B8000883907E0FFF7D8FDA0EB0801494501D9D6
:102B900003260BE0D5F890008007F3D5D5F8900018
:102BA000216C20F440700843C5F890001FB1A86D57
:102BB00020F08050A8652078C00707D0D5F888009D
:102BC000616820F003000843C5F88800207880077A
:102BD00007D5D5F88800A16820F00C000843C5F897
:102BE00088002078400707D5D5F88800E16820F0F4
:102BF00030000843C5F888002078000707D5D5F8CD
:102C00008800216920F0C0000843C5F888002078BA
:102C1000800607D5D5F88800616920F44060084334
:102C2000C5F888002078400607D5D5F88800A16946
:102C300020F440500843C5F888002078000607D5E6
:102C4000D5F88800E16920F440400843C5F88800C1
:102C50002088C00507D5D5F88800216A20F44030C7
:102C60000843C5F888002088800507D5D5F8880076
:102C7000616A20F440200843C5F888002088400598
:102C80000FD5D5F88800A16A20F440100843C5F894
:102C90008800A06AB0F5801F03D1E86840F4801076
:102CA000E860208800050FD5D5F88800E16A20F497
:102CB00040000843C5F88800E06AB0F5800F03D1F2
:102CC000E86840F48010E8602088C0040FD5D5F88B
:102CD0008800216B20F040700843C5F88800206B05
:102CE000B0F1807F03D1E86840F48010E86020886C
:102CF0004FF0006180040ED5D5F88800626B20F09B
:102D000040601043C5F88800606B884203D1E868D2
:102D100040F48010E860208840040ED5D5F8880083
:102D2000A26B20F040601043C5F88800A06B884279
:102D300003D1E86840F48010E860208800040FD5D3
:102D4000D5F88800E16B20F040500843C5F88800B2
:102D5000E06BB0F1805F03D1E86840F48030E86058
:102D60003046BDE8F88300000010024000700040CB
:102D70002DE9F0470E4605004FF0000725D0DFF89B
:102D8000AC81D8F8000000F00F00B0420CD2D8F8A7
:102D9000001021F00F013143C8F80010D8F80000EE
:102DA00000F00F00B04210D12968614CC80741F211
:102DB000883A5AD06868DFF87C91032808D0022846
:102DC00020682DD0400500282CDB0120BDE8F087CD
:102DD00020688001F9D5E06800F00302E068C0F3E4
:102DE0000310401C032A19D0534A00BFB2FBF0F075
:102DF000E268C2F306225043E268C2F34162521C09
:102E00005200B0FBF2F0484517D9A06810F0F00F5F
:102E10000CD0880711D5A86840B10EE0474AE5E715
:102E20008003D0E700F0B6F8484506D9A06820F046
:102E3000F00040F08000A0608027A068696820F062
:102E400003000843A060FFF777FC814606E000BF5F
:102E5000FFF772FCA0EB090151453AD8A0686968F8
:102E600000F00C00B0EB810FF2D12868810714D577
:102E7000400703D5A06840F4E060A0602878000710
:102E800005D5A06820F4605040F4E060A060A06820
:102E9000A96820F0F000084304E0802F03D1A06867
:102EA00020F0F000A060D8F80010404601F00F01BB
:102EB000B14216D9016821F00F0131430160FFF7DB
:102EC0003BFC074607E000BFFFF736FCC11B51453E
:102ED00001D903207AE7D8F8000000F00F00B042D3
:102EE000F2D12878400705D5A068E96820F4E060B1
:102EF0000843A0602878000706D5A068296920F457
:102F0000605040EAC100A06000F044F8A1680C4A9B
:102F1000C1F30311515C01F01F01C8400949086069
:102F200009480068BDE8F047FFF724BC00200240D4
:102F30000010024000B4C4040024F40000366E0106
:102F4000AC660008180000200C0000200548064967
:102F500000688968054AC1F30221515C01F01F0134
:102F6000C84070471800002000100240BC660008EE
:102F70000548064900688968054AC1F3C221515CC9
:102F800001F01F01C84070471800002000100240E7
:102F9000BC660008184910B58868C0F3810217485C
:102FA000012A0BD08A68164BC2F38102022A06D08E
:102FB0008A68C2F38102032A03D0002010BD18469C
:102FC00010BDCA6802F00304CA68C2F30312521C9F
:102FD000032C02D0B0FBF2F001E0B3FBF2F0CA68C0
:102FE000C968C2F306225043C1F34161491C49003C
:102FF000B0FBF1F010BD0000001002400024F4000E
:1030000000366E012DE9F84304007AD02078F84D9F
:10301000C00747D0A868E96800F00C0001F0030180
:103020000C2802D0082817D001E0032914D06068CA
:10303000B0F5803F17D0B0F5A02F286817D020F446
:1030400080302860286820F4802028606068E0B123
:10305000FFF772FB064614E02868800322D56068FB
:103060000028D2D01EE0286840F48030EDE740F41C
:1030700080202860F7E700BFFFF75EFB801B642815
:1030800070D828688003F7D50CE0FFF755FB06469B
:1030900005E000BFFFF750FB801B6428F0D82868CC
:1030A0008003F7D4207880074CD5A868E96800F041
:1030B0000C0001F003010C2802D004280DD001E01F
:1030C00002290AD0E068002828682BD040F48070DC
:1030D0002860FFF731FB064619E02868400502D555
:1030E000E068002891D06868217C20F0FE4040EA2A
:1030F00001606860BF480068FFF73CFB002800D112
:1031000020E072E1FFF718FB801B0228B8D828687E
:103110004005F7D56868217C20F0FE4040EA016058
:1031200068600FE020F480702860FFF705FB06461A
:1031300005E000BFFFF700FB801B0228A0D828682D
:103140004005F7D42078000729D560690028D5F814
:10315000940013D040F00100C5F89400FFF7ECFA9A
:10316000064606E090E000BFFFF7E6FA801B022863
:1031700086D8D5F894008007F6D510E020F001003D
:10318000C5F89400FFF7D8FA064604E0FFF7D4FA32
:10319000801B022878D8D5F894008007F6D42078D0
:1031A000400761D5A86D0026C00008D4A86D40F086
:1031B0008050A865A86D012600F0805000908E48D0
:1031C0000168C90511D40168804641F4807101602D
:1031D000FFF7B2FA074604E0FFF7AEFAC01B022879
:1031E00052D8D8F80000C005F6D5A068012815D03F
:1031F0000528D5F8900016D020F00100C5F8900001
:10320000D5F8900020F00400C5F89000A06841F2C5
:103210008838B8B1FFF790FA07460EE0D5F890006D
:1032200040F00100F0E740F00400C5F89000F5E739
:10323000FFF782FAC11B414526D8D5F890008007D8
:10324000F6D50CE0FFF778FA074604E0FFF774FACA
:10325000C11B414518D8D5F890008007F6D41EB19F
:10326000A86D20F08050A8652078800629D5A06937
:103270000028D5F8980013D040F00100C5F8980058
:10328000FFF75AFA064606E075E000BFFFF754FA6A
:10329000801B02286FD8D5F898008007F6D510E07B
:1032A00020F00100C5F89800FFF746FA064604E052
:1032B000FFF742FA801B02285DD8D5F898008007F6
:1032C000F6D4E069F0B3A968C1F3810103295DD0A8
:1032D0000228286820F08070286003D0FFF72CFABD
:1032E00004464BE0FFF728FA064604E0FFF724FA0D
:1032F000801B02283FD828688001F7D4F4E9080130
:103300006FF00F0202EB01110843218A52044908B1
:1033100002EB4151A26841EA02210843217D4FF0AE
:103320007E42490802EB41610843217B40EAC160CB
:10333000E968324A11400843E860286840F080702C
:10334000286000E05EE0E86840F08070E860FFF729
:10335000F3F9044605E000BFFFF7EEF9001B022871
:1033600009D828688001F7D54CE000BFFFF7E4F9E1
:10337000001B022802D90320BDE8F88328688001D9
:10338000F4D4E8681E490840E8603BE00128F3D027
:10339000E868226A00F00301914226D1616A00F0D8
:1033A000F0020901103991421FD1A26A00F4FE41D6
:1033B000B1EB022F19D194F82C2000F07841B1EB39
:1033C000C26F12D1218E00F4C00249084905A1F54F
:1033D0000011914209D194F8341000F0C0604908FE
:1033E0004906A1F1007181420CD00120C4E7000020
:1033F000001002400C000020007000400C809F0173
:10340000FCFFEEFE0020B7E710B5401EB0F1807F54
:1034100001D3012010BD4FF0E02460610F2160173F
:1034200002F017FA0020A06107202061002010BDE3
:10343000704770477047000030B590F83C20012A73
:1034400042D0012280F83C20CA688B6822F4407286
:103450001A434B6822F480621A430B6822F400621C
:103460001A430B6922F480521A434B6922F400522A
:103470001A430B6B22F480421A430B8B22F4702206
:1034800042EA0342CB6922F080521A430F4D03688F
:103490000024AB4202D00E4DAB4210D10D8D22F470
:1034A000700242EA05520D6A22F080722A434D6A88
:1034B00022F000722A43C96A22F000520A435A6479
:1034C00080F83C40002030BD022030BD002C01407F
:1034D000003401407047704770470000F0B590F825
:1034E0003C20012A3AD0012580F83C50022280F885
:1034F0003D2003685A689C68194E1A4FB34201D0A8
:10350000BB4204D122F4700C4A6842EA0C02DFF894
:1035100058C002EA0C02D1F800C04CEA020CC3F811
:1035200004C00268B2420DD0B2F1804F0AD00F4BF6
:103530009A4207D00E4B9A4204D0BA4202D00D4BA9
:103540009A4204D1896824F080031943916080F87D
:103550003D50002180F83C100846F0BD0220F0BD2F
:10356000002C0140003401408FFFFFFD00040040AB
:10357000000800400040014010B50446022249B155
:1035800004290ED0082913D094F84700012816D03A
:10359000012010BD94F844000128F9D184F844209A
:1035A0000FE094F845000128F2D184F8452008E0A6
:1035B00094F846000128EBD184F8462001E084F815
:1035C00047200422206801F0F2FC2068416C41F49D
:1035D000004141641049206888420ED0B0F1804F0C
:1035E0000BD00E49884208D00D49884205D00D49BC
:1035F000884202D00C49884207D181680B4A1140A9
:10360000062906D0B1F5803F03D0016841F00101E1
:103610000160002010BD0000002C014000040040AB
:103620000008004000340140004001400700010054
:10363000704700002DE9F0410D46040003D094F8D6
:103640003D0018B108E00120BDE8F081002084F8B9
:103650003C00204600F042F8022084F83D0020683B
:1036600081681D4A11408160211D206801F034FCF1
:10367000226890689169166A2B68AF69034340F22B
:103680000330814341EA0721A868EF6908434FF6F8
:10369000FC418843E96840EA0720014328692F6A12
:1036A000000140EA0730084369686D6926F0AA0600
:1036B00046EA0515294393602268906154F8480B47
:1036C0000162012004F81F096075A075E07620777B
:1036D00020750020B8E70000F8BFFEFF10B586B0E7
:1036E000044614216846FCF7CBFD15492068884242
:1036F00024D11448816D41F004018165816D01F090
:1037000004010591C16C41F00201C164C06C00214B
:1037100000F002000590C02000900220CDE90101D8
:10372000CDE9031069460848FEF7E2FE00220221B7
:103730001E20FFF767F81E20FFF756F806B010BDF1
:1037400000080040001002400004004870B590F8E6
:103750003E60044690F83F5090F8443090F8452081
:10376000022021B1042914D0012E25D11EE0012E02
:1037700022D1012B20D184F83E0084F8440001229C
:103780000021206801F006FC2068C16841F00201B8
:103790002FE0012D10D1012A0ED184F83F0084F8CA
:1037A00045000421206801F0F5FB1EE0012D03D146
:1037B000012B01D1012A01D0012070BD84F83E0007
:1037C00084F83F0084F8440084F845000122002179
:1037D000206801F0DFFB01220421206801F0DAFB00
:1037E0002068C16841F00201C1602068C16841F0F1
:1037F0000401C1602068016841F0010101600020FE
:1038000070BD000010B50068114B98421FD11049DF
:10381000103108680F4AC4070F4807D00C6824F01D
:1038200001040C605168491C5160C1611968C906E6
:1038300001D5012100E0002101620846916888421B
:1038400004D007499FED050A81ED050A906010BD7F
:103850000008004058000020B804002000000000CC
:10386000600400202DE9F04104460068C66805693F
:103870004FF00007A90713D5B10711D5F91E016153
:1038800001202077206880698007204602D0FFF75A
:10389000B9FF04E000F002F9204600F0D7F92777DD
:1038A000680716D5700714D521686FF00400086109
:1038B000022020772068806910F4407F204602D0E3
:1038C000FFF7A0FF04E000F0E9F8204600F0BEF9A1
:1038D0002777280715D5300713D521686FF0080022
:1038E0000861042020772068C0698007204602D044
:1038F000FFF788FF04E000F0D1F8204600F0A6F9B9
:103900002777E80616D5F00614D521686FF0100069
:103910000861082020772068C06910F4407F2046A5
:1039200002D0FFF76FFF04E000F0B8F8204600F087
:103930008DF92777E80708D0F00706D021686FF0E7
:1039400001000861204600F001FA280601D4A8040D
:1039500008D5300606D521686FF40250086120466C
:10396000FFF767FDE80508D5300606D521686FF436
:10397000807008612046FFF75BFD680608D5700679
:1039800006D521686FF040000861204600F0DFF99D
:10399000A80608D5B00606D521686FF0200008619A
:1039A0002046FFF747FDE80208D5F00206D521685A
:1039B0006FF4801008612046FFF78DFDA80208D53E
:1039C000B00206D521686FF4001008612046FFF7A9
:1039D00081FD680208D5700206D521686FF4800069
:1039E00008612046FFF778FD28020AD5300208D585
:1039F00021686FF4000008612046BDE8F041FFF740
:103A000017BEBDE8F0810000F0B587B00446142170
:103A10006846FCF735FC1E492068884236D11D48AF
:103A2000C16C41F00201C164C16C01F00201059159
:103A3000C16C41F00101C164C06C022500F00100BD
:103A400005904FF4C04000900024CDE901540626B3
:103A5000114FCDE9034669463846FEF749FDA803F4
:103A60000090CDE901540420CDE903406946384671
:103A7000FEF73EFD4FF4E0600090CDE90154CDE942
:103A8000034669464FF09040FEF732FD07B0F0BDA7
:103A9000002C01400010024000040048704770B53F
:103AA000044690F83C0000260D4601280BD001206A
:103AB00084F83C000C2A4AD007DC82B1042A20D0CA
:103AC000082A06D131E0022070BD102A53D0142AF2
:103AD00063D00126002084F83C00304670BD206889
:103AE00001F072FA2068816941F008018161206863
:103AF000816921F004018161206881692A6911438B
:103B000011E0206801F0AEFA2068816941F400619B
:103B100081612068816921F4806181612068816907
:103B20002A6941EA02218161D4E7206801F0E2FAC2
:103B30002068C16941F00801C1612068C16921F0B4
:103B40000401C1612068C1692A69114311E020683C
:103B500001F018FB2068C16941F40061C16120686F
:103B6000C16921F48061C1612068C1692A6941EAA3
:103B70000221C161AEE7206801F04CFB2068016DB5
:103B800041F0080101652068016D21F00401016523
:103B90002068016D2A69114311E0206801F072FB71
:103BA0002068016D41F4006101652068016D21F418
:103BB000806101652068016D2A6941EA0221016581
:103BC00088E710B5040003D094F83D0010B107E079
:103BD000012010BD002084F83C00204600F022F8AF
:103BE000022084F83D00211D206801F075F90120B4
:103BF00084F8480084F83E0084F83F0084F84000D0
:103C000084F8410084F8420084F8430084F84400BA
:103C100084F8450084F8460084F8470084F83D00A5
:103C2000002010BD08B500680649884208D1064842
:103C3000016E41F400610166006E00F400600090C6
:103C400008BD0000002C0140001002407047000039
:103C500030B50446022269B1042912D0082917D0D0
:103C60000C291CD0102921D094F84300012824D01D
:103C7000012030BD94F83E000128F9D184F83E209F
:103C80001DE094F83F000128F2D184F83F2016E0AF
:103C900094F840000128EBD184F840200FE094F81C
:103CA00041000128E4D184F8412008E094F8420062
:103CB0000128DDD184F8422001E084F8432001226C
:103CC000206801F067F9194B20681949194A984290
:103CD00009D0884207D0904205D0174DA84202D0A3
:103CE000164DA84203D1456C45F400454564206853
:103CF00098420CD0B0F1804F09D0114B984206D0B9
:103D0000104B984203D0884201D0904207D181687D
:103D10000D4A1140062906D0B1F5803F03D0016855
:103D200041F001010160002030BD0000002C014085
:103D3000003401400040014000440140004801407F
:103D40000004004000080040070001007047704771
:103D500090F88410012918D0012180F884102421C2
:103D6000C0F8881001680A680B6823F001030B6033
:103D700022F0005100224266036819602021C0F839
:103D8000881080F88420104670470220704770B574
:103D9000044690F8840001281DD0012084F8840096
:103DA0002420C4F8880020680568026822F0010217
:103DB00002602068826822F060620A4382602046C6
:103DC00001F098FA206805602020C4F888000020DF
:103DD00084F8840070BD022070BD70B5044690F870
:103DE000840001281DD0012084F884002420C4F818
:103DF000880020680568026822F0010202602068DD
:103E0000826822F060420A438260204601F072FA22
:103E1000206805602020C4F88800002084F8840011
:103E200070BD022070BD10B5040003D0D4F8880026
:103E300010B107E0012010BD002084F88400204666
:103E400000F026F82420C4F888002068016821F0DA
:103E500001010160A06A10B1204601F06DFA204610
:103E600001F04EFB0128E6D02068416821F4904122
:103E700041602068816821F02A0181602068016822
:103E800041F0010101602046BDE8104001F0B8BAE0
:103E900010B598B00446142111A8FCF7F1F944219B
:103EA0006846FCF7EDF917492068884227D10420BD
:103EB0000024009003946846FEF716FE08B1FCF754
:103EC0004FFF1148816D41F480218165816D01F4BE
:103ED00080211691C16C41F00201C164C06C11A92E
:103EE00000F0020016904FF4406011900220CDE9DE
:103EF00012040720CDE914400448FEF7F9FA18B07F
:103F000010BD0000004800400010024000040048BE
:103F10002DE9F8430446D0F88800984616460D4629
:103F2000202802D00220BDE8F883A5B19EB1002070
:103F3000C4F890002120C4F888001834FEF7FCFB78
:103F4000A6878146E68754F8100C2027183CB0F568
:103F5000805F02D003E00120E5E7206910B12E4622
:103F6000002510E000260EE08021204601F002FC32
:103F7000C0B9DEB116F8010B21688862B4F85600AA
:103F8000401EA4F85600B4F856004B464FF000020D
:103F9000CDF800800028E7D14FF04001204601F025
:103FA000E9FB40B1C4F888700320BCE735F8020B88
:103FB000C0F30800E0E7C4F888700020B3E7FEE72C
:103FC00000EB8100006E00F0F840704700EB8100CC
:103FD000006E00F0F84070478068C0F3C000704782
:103FE0008068C0F3C00070478068C0F380007047ED
:103FF0008068C0F380007047C06810F4406F01D043
:104000000020704701207047042303EAD15310B504
:1040100018444369C1F3045107248C40A3438A40E8
:104020001343436110BD042303EAD15310B5184470
:104030004369C1F3045107248C40A3438A401343CE
:10404000436110BD00EB8100016E21F0004111437E
:104050000166704700EB8100016E21F000411143C1
:104060000166704730B593B000240F9410943C2142
:1040700068461194FCF704F928484FF0A041042544
:1040800001604FF44031C0E9011485610121C46031
:10409000C0E9044104774477016280F8244080F845
:1040A0003840C46380F84040FDF77AFE08B1FCF761
:1040B00057FE0FA919480F94FDF7BAFA08B1FCF79B
:1040C0004FFE174800900920CDE901047F20059498
:1040D000CDE903050220089084200A908DF8244041
:1040E00080208DF825400B908DF826408DF83040CB
:1040F00069460A48FCF7FCFE08B1FCF731FE0948A6
:10410000009040F20F10019069460448FCF7F0FE61
:10411000002801D0FCF724FE13B030BDD4000020ED
:104120000800900C00106032F0B597B020210FA865
:10413000FCF7A6F83C216846FCF7A2F82748264978
:10414000002401604FF44031C0E90114C46004252B
:104150000461C0E90545047744770126066280F8CA
:104160002440C462046380F83860C46380F840402F
:10417000FDF716FE08B1FCF7F3FD19480F9010A9E2
:1041800006207F2781E8A100CDE913540FA9134829
:10419000FDF7BAFA08B1FCF7E3FD1248009001A957
:1041A000092081E89100CDE9045484200A908DF81B
:1041B000244080208DF825400B9008968DF82640ED
:1041C0008DF8304069460548FCF792FE002801D082
:1041D000FCF7C6FD17B0F0BD000100504001002003
:1041E000020030040800900C0D4808B5816C41F0C5
:1041F00004018164816C01F004010091816C41F043
:1042000001018164806C002200F001000090022115
:104210000B20FEF7F7FABDE808400B20FEF7E4BAE2
:104220000010024010B586B014216846FCF728F84B
:104230002448C16C41F00401C164C16C01F0040167
:104240000591C16C41F02001C164C16C01F02001F5
:104250000591C16C41F00101C164C16C01F0010123
:104260000591C16C41F00201C164C06C4FF4881427
:1042700000F0020005904FF43050CDE9000400201A
:10428000029069461048FEF733F94FF48070CDE98B
:1042900000040220029069460C48FEF729F900222A
:1042A00002211720FEF7AEFA1720FEF79DFA002232
:1042B00002212820FEF7A6FA2820FEF795FA06B07C
:1042C00010BD000000100240000800480004004833
:1042D0000B4810B509490160002141608160C1604F
:1042E000016101758161C162FEF7BEFA002803D049
:1042F000BDE81040FCF734BD10BD000000030140D4
:104300000C0200200B4810B50949016000214160F2
:104310008160C160016101758161C162FEF7A4FA2B
:10432000002803D0BDE81040FCF71ABD10BD000006
:1043300004030140480200200B4810B50949016000
:10434000002141608160C160016101758161C162CC
:10435000FEF78AFA002803D0BDE81040FCF700BD44
:1043600010BD0000080301408402002010B598B081
:104370000024149415941C2168461694FBF780FFC2
:10438000342107A8FBF77CFF32483149C0E900140B
:104390002021816042F23411C0E903144461846138
:1043A000FFF70FFC08B1FCF7DBFC1494159414A97B
:1043B00028481694FFF792F808B1FCF7D1FC60206A
:1043C000CDE9000402940394049405940022694604
:1043D00020480694FFF763FB08B1FCF7C1FC0422F8
:1043E00069461C48FFF75BFB08B1FCF7B9FC0822E3
:1043F00069461848FFF753FB08B1FCF7B1FC42F2DD
:10440000331001900C2269461248FFF748FB08B1AF
:10441000FCF7A6FC079450200894CDE909404FF41E
:104420000050CDE90B400D9400030E94CDE90F40F0
:104430001194129407A907481394FEF7FDFF08B1E1
:10444000FCF78EFC0348FFF7DFFA18B010BD000040
:10445000002C0140C002002010B58CB02421684619
:10446000FBF70EFF0024164809940A9413490B9495
:10447000C0E9001440F69F71C0E902410461846103
:104480000320CDE900040120CDE902040494CDE924
:104490000540079469460A480894FFF7CBF808B12D
:1044A000FCF75EFC099409A905480B94FFF716F880
:1044B000002801D0FCF754FC0CB010BD00080040EF
:1044C0000C030020174810B51549016016494160DA
:1044D000002181600C22C160C0E904128161C161C8
:1044E000016241628162FFF79EFC08B1FCF738FC73
:1044F00000210C48FFF771FC08B1FCF731FC0021EA
:104500000848FFF744FC08B1FCF72AFC0548FFF710
:104510001FFC002803D0BDE81040FCF721BC10BDF3
:10452000004800405803002000941100FEE70000FE
:1045300010B52C482DED028BFEF75AFA2A48FEF7EB
:1045400057FA2A48FEF754FA7F212948FCF784FCE1
:104550007F212848FCF780FC00212748FFF778FBE3
:1045600000212548FFF708F804212348FFF770FBD6
:1045700004212148FFF700F808211F48FFF768FBD6
:1045800008211D48FEF7F8FF0C211B48FFF760FBD0
:104590001748FCF7B7FF1748FCF740FF01221749FF
:1045A0001448FDF7A1FD6420FDF71AFFFCF7B2FAED
:1045B00000F04EF9FCF7D6FBDFED110AB3EE040A6A
:1045C00000F01EF99FED0F8AB0EE480A00F020F9C6
:1045D0000D4880ED048A80ED058A80ED078ABDECE8
:1045E000028B10BD0C020020480200208402002033
:1045F000D400002040010020C00200202400002040
:104600000000A04200000000EC0300202DE9F04172
:10461000684D6A4CDFED680A287B94ED030A10B1FF
:10462000012803D006E030EE200A01E030EE600AF7
:1046300084ED030A10EE100A6149DFED620A884238
:1046400002DD30EE600A06E0B5EEC00AF1EE10FAC7
:1046500003D230EE200A84ED030A584985ED000AA2
:1046600066784B888A88C9884FF0A040002E7ED09B
:1046700050F8806FB7B2D0F800614068B6B2FB1A4C
:1046800000EE103A80B2F8EEC00A9FED4F0A494B97
:10469000B21A60EE800A3833401AC3ED000A00EE09
:1046A000902AF8EEE00A60EE800AC3ED010A00EEFF
:1046B000900A4648F8EEE00A20EE800A83ED020AEE
:1046C00001684FF47A72B1FBF2F302FB131100EEB2
:1046D000101A9FED3F1A4049B8EE400AC0EE010A99
:1046E000B0EE000A20EE801ADFED3A0A21EE201A21
:1046F00081ED021A85ED001A00689FED382A01EE5F
:10470000100AF8EE411A81EE821A21EE000A20EE1C
:10471000200A81ED030AFCF741FB2648304A20308D
:1047200090ED000ABCEEC00A10EE101A116090ED78
:10473000010A121DBCEEC00A10EE101A116090EDB5
:10474000020A111DBCEEC00A10EE100A08601B48D8
:10475000DFED240A0830008800EE100AB8EE400AA7
:1047600020EE200A84ED040ABDE8F081FFE72578F9
:104770006D1CEEB2267050F8807FD0F80051406872
:1047800013FA87F39BB22A44638092B20844A28052
:1047900081B2E1800A2EE7D3012060700A20B3FBCA
:1047A000F0F3B2FBF0F2B1FBF0F06380A280E080A6
:1047B000DAE70000EC0300200AD7A33B1C0000202E
:1047C000DB0FC940DB0FC94066669E3C24080040F1
:1047D00000007A44DB0F4940B804002000007A450D
:1047E000342C01409999AB3C014890ED0E0A70477A
:1047F0007C000020014800F09FB800007C000020F1
:10480000024880ED020AC0ED030A70477C000020D8
:1048100010EE100A084A0949904202DD9FED080A8D
:1048200005E010EE100A884201D99FED060A0648FD
:1048300080ED000A704700000000FA430000FAC350
:104840000000FA430000FAC37C000020FEE70000ED
:104850002348B7EE000A9FED232A80ED000A80ED81
:10486000012AB1EE001A80ED031AF9EE001ADFED0D
:104870001E0AC0ED041AC0ED050A183080ED000ACA
:1048800080ED012A80ED031AC0ED041AC0ED050A7F
:104890009FED162A183080ED002A9FED152A80ED35
:1048A000012A80ED020A80ED031AC0ED041AC0ED62
:1048B000050A1830B3EE021A80ED001A9FED0D1AAA
:1048C00080ED011A80ED020A9FED0B0A80ED030ACC
:1048D0009FED0A0A80ED040AC0ED050A704700004A
:1048E000300400200AD7A33B000000000AD7233C75
:1048F00017B7D1380AD7A33C00004842000048C28D
:1049000020EE012A00EEA12A60EE810A40EE610A43
:1049100080ED002AC0ED010A7047704721EE002AA1
:1049200021EE800A01EEE02A01EE200A80ED002A45
:1049300080ED010A7047000010B5D0ED002AD0EDDF
:10494000010A022490F8403000219FEDBD0AD0ED0D
:10495000091AF4EE602AF1EE10FA71D090ED0E2AE9
:10496000F7EE000A0122B5EEC02AFFEE003AF1EEA2
:1049700010FA0BDDF4EEC22AF1EE10FA03DD00BFEF
:1049800080F841200EE080F8414015E0B5EEC02AE5
:10499000F1EE10FA09D2F4EEC22AF1EE10FA09DDB6
:1049A00080F84140C0ED040A08E0F4EEC22AF1EEBE
:1049B00010FAE5DC80F84120C0ED043AB6EE003A8A
:1049C000EBB390ED024A24EE031A61EE044A90ED37
:1049D000031A84EE815A64EE044A41EEE14A64EE21
:1049E000834A84EE816A61EEA14A80ED0C5A64EE3E
:1049F000834AC4EE815A72EEC24A80ED076A36EEEF
:104A0000055AF0EEE44AB0EEC55AF4EEC54AF1EEAE
:104A100010FAC0ED085A58DD34EEC52A80ED0D2A93
:104A2000C2EE040AC0ED0B0AFCEEE00A10EE903A6A
:104A3000C3878187D0ED040A64EE200A3CE000E0E1
:104A400097E0D0ED020A20EE831A21EE203A90ED95
:104A5000031AC3EE013A32EEC23AB0EEC32AC0EDF9
:104A60000C3A73EEA33AF0EEE33AB4EEE32AF1EE39
:104A700010FA0DDD32EE633A80ED0D3A83EE202A16
:104A800080ED0B2ABCEEC22A12EE103AC3870FE06B
:104A9000C3EE010AB0EEE02AB5EEC02AF1EE10FA3C
:104AA00002DBF1EEC20A01E0F0EE400AC1872BE022
:104AB00090ED042A60EE820AC0ED050A80ED061A28
:104AC00080F84020C0ED012A5AE0B0EEE54AF4EE4D
:104AD000C44AF1EE10FA1ADD61EE830A60EEA10A13
:104AE00080EE812A74EE820A80EE812AB0EEC22A1C
:104AF000B5EEC02AF1EE10FA02DBF1EEC20A01E0D7
:104B0000F0EE400AC187818761EE200AD0E790F875
:104B1000413021EE822A012B1CD0B5EEC02AF1EEE5
:104B200010FA01DCF0EE630A20EE832A22EE212A3D
:104B300022EE212A82EE013A34EE832A82EE013AF5
:104B4000B0EEC33AB5EEC03AF1EE10FA08DBB1EEC2
:104B5000C32A07E0B5EEC02AF1EE10FAE2DCE3E783
:104B6000B0EE402AC18760EE820A818760EE810A3A
:104B70009EE7012B04D0022B22D0032B2FD050E034
:104B8000D0ED050AF4EEE10AF1EE10FA90ED061A06
:104B900001DCB1EE411A80ED0A1A30EEE11AD0EDD7
:104BA0000A1AB0EEC11AF0EEE11AB4EEE11AF1EE13
:104BB00010FA36D2C0ED090A80ED0A0A80F84040AA
:104BC00080ED0A0A828F521C92B28287C38F9A426A
:104BD00027D3818780ED050A032280F84020D0ED9D
:104BE000050A90ED091AF4EEC10AF1EE10FAD0EDC3
:104BF000061A01D2F1EE611A30EEC11AC0ED0A1A9E
:104C0000F0EEE11AB0EEC11AB4EEE11AF1EE10FACC
:104C100007D2C0ED090A80ED0A0A80F84010C0ED05
:104C20000E2A90ED090AD0ED0A0A30EE200A80ED36
:104C3000090AD0ED0E0A30EE800A80ED0E0A10BD92
:104C40000000000070470000F5EEC00A0021F1EE00
:104C500010FA00DD0121B0EE602ADFED5A2AB6EE2F
:104C6000003A10EE222A22EE032AB5EEC02AF1EE17
:104C700010FA00DD891CB0EE602AF0EE402ADFED6C
:104C8000523A12EEA32A22EE032AB5EEC02AF1EE22
:104C900010FA00DD091DBFEE085A60EE053A9FEDDF
:104CA0004B2AF7EE085A20EE254A40EE823A00EEF3
:104CB000824A9FED452A20EE822A62EE214A9FED2C
:104CC000442A062920EE822AF0EE422A40EE452AA6
:104CD0009FED3C5A60EE850A20EEA15AF0EE420AA2
:104CE00040EE650A81EE810A1DD2DFE801F01C0367
:104CF000080D121720EE232A60EE042A17E0C4EEF6
:104D0000812A20EE042A12E020EE222AC5EE012A92
:104D10000DE084EE812A60EE232A08E085EE012A68
:104D200060EE202A03E020EE202A60EE222A32EEF6
:104D3000220AB4EEE10AF1EE10FA07DD62EE210A72
:104D400080EE802A62EEA10AC0EE802AF5EE000A0B
:104D50002048072932EE220A31EEC00A20EE200A4E
:104D6000F0EE400A42EE030AB0EE601A02EE831A39
:104D70000BD2DFE801F00A040B10131A2100C0ED7A
:104D8000000A80ED010A80ED021A704780ED000AEA
:104D900080ED011A0DE080EC030A704780ED001AE7
:104DA000C0ED010A80ED020A704780ED001A80ED27
:104DB000010AC0ED020A704780ED020AC0EC020A47
:104DC00070470000D7B3DD3FD7B3DDBFD7B35D3F3A
:104DD000D7B35DBF0C04002070EE600A91ED010AAC
:104DE00091ED051A20EE010A91ED001A01EE200A5C
:104DF00091ED031AB4EEC01AF1EE10FA06D391ED5C
:104E0000041AB4EEC01AF1EE10FA02DD80ED001AB9
:104E100003E080ED000A90ED001A31EE400A91EDBA
:104E2000021A40EE010A91ED050A30EE800A81ED8A
:104E3000050A704710B5FDF785FCBDE81040AFF3DB
:104E4000008010B5FBF77CFEFBF7C0FEBDE810400C
:104E5000FBF700BF10B594B038216846FBF710FA95
:104E600014210EA8FBF70CFA0020FDF7D7FD012056
:104E700000900004032406210190CDE9084102209E
:104E80005521CDE90A1007900C900D906846FEF769
:104E9000B9F808B172B6FEE70F20CDE90E04002084
:104EA00010901190129004210EA8FDF761FF0028C8
:104EB00001D072B6FEE714B010BD000002480168D0
:104EC00041F470010160704788ED00E00148FEF791
:104ED000C9BC00000C0300202DE9F0430268264BFA
:104EE000264D274E274C4FF08049984207D0484521
:104EF00005D0A84203D0B04201D0A04203D122F095
:104F000070074A683A43204FDFF880C0DFF880809E
:104F100098420DD048450BD0A84209D0B04207D0E6
:104F2000A04205D0B84203D0604501D0404503D12E
:104F300022F44075CA682A434D6922F080022A4350
:104F400002608A68C2620A688262984207D0A04200
:104F500005D0B84203D0604501D0404501D1096970
:104F60000163012141610169C90703D0016921F091
:104F700001010161BDE8F083002C01400004004004
:104F8000000800400034014000400140004401405E
:104F90000048014010B501F01F030121046A994047
:104FA0008C430462016A9A401143016210BD10B53E
:104FB00001F00F030421046A99408C430462016AE2
:104FC0009A401143016210BD2DE9F043056A026A5F
:104FD00022F001020262436882691C4C25F002053E
:104FE00022400C6822F0030214438A68194E2A43B7
:104FF000174D194FDFF864C0DFF86490A84207D05E
:10500000B04205D0B84203D0604501D0484506D132
:1050100022F00808CA6842EA080222F00402A84204
:1050200007D0B04205D0B84203D0604501D0484512
:1050300005D14D6923F440731D438B692B434360B5
:105040008461496841630262BDE8F0838FFFFEFF1F
:10505000002C014000340140004001400044014068
:1050600000480140F0B5056A026A22F010020262AF
:1050700042688369194C1B4E23400C6823F440732B
:1050800043EA042425F020038D6843EA0513144DF8
:10509000A84201D0B04206D1CF6823F0800343EA92
:1050A000071323F04003A8420AD0B04208D00E4DA7
:1050B000A84205D00D4DA84202D00D4DA84207D1FF
:1050C0004D6922F4406242EA85028D6942EA850216
:1050D00042608461496881630362F0BDFF8FFFFE17
:1050E000002C0140003401400040014000440140D8
:1050F00000480140F0B5056A026A22F4807202623B
:105100004368C269194C1B4E22400C6822F003020E
:10511000144325F400728D6842EA0522144DA8421A
:1051200001D0B04206D1CF6822F4006242EA0722E1
:1051300022F48062A8420AD0B04208D00E4DA842A4
:1051400005D00E4DA84202D00D4DA84207D14D69A1
:1051500023F4405343EA05138D6943EA0513436082
:10516000C4614968C1630262F0BD00008FFFFEFFA9
:10517000002C014000340140004001400044014047
:1051800000480140F0B5056A026A22F480520262CA
:105190004268C369194C1B4E23400C6823F44073CA
:1051A00043EA042425F400538D6843EA0533144D83
:1051B000A84201D0B04206D1CF6823F4004343EAAD
:1051C000073323F48043A8420AD0B04208D00E4DE2
:1051D000A84205D00D4DA84202D00D4DA84207D1DE
:1051E0004D6922F4404242EA85128D6942EA8512F5
:1051F0004260C461496801640362F0BDFF8FFFFE35
:10520000002C0140003401400040014000440140B6
:105210000048014030B5056A026A22F48032026219
:105220004268036D114C23400C681C4325F4003385
:105230000D8943EA05430E4DA8420BD00D4DA842FF
:1052400008D00D4DA84205D00C4DA84202D00C4DFF
:10525000A84204D14D6922F4803242EA052242601C
:10526000046549688164036230BD00008FFFFEFF62
:10527000002C014000340140004001400044014046
:105280000048014030B5046A026A22F480120262CA
:105290004268036D114D24F400142B400D6843EA5D
:1052A00005230D8944EA05540D4DA8420BD00D4D40
:1052B000A84208D00C4DA84205D00C4DA84202D0FF
:1052C0000B4DA84204D14D6922F4802242EA852286
:1052D000426003654968C164046230BDFF8FFFFE10
:1052E000002C0140003401400040014000440140D6
:1052F0000048014030B5416EB9B1026891689268CA
:10530000C1F342610B4B520F9C5CE50003F10804B2
:10531000A25CB5FBF2F2A0F86A205A5C615CD20094
:10532000B2FBF1F1A0F8681030BD0121A0F86A10BD
:10533000F8E700009C66000890F82810090706D5D9
:1053400001684A68836B22F400421A434A6090F86D
:105350002810C90706D001684A68C36A22F40032DF
:105360001A434A6090F82810890706D501684A68F0
:10537000036B22F480321A434A6090F828104907E0
:1053800006D501684A68436B22F480221A434A60BA
:1053900090F82810C90606D501688A68C36B22F404
:1053A00080521A438A6090F82810890606D5016851
:1053B0008A68036C22F400521A438A6090F828101D
:1053C000490611D501684A68436C22F480121A43D9
:1053D0004A60416CB1F5801F06D101684A68836C50
:1053E00022F4C0021A434A6090F82810090606D534
:1053F00001684A68C06C22F4002202434A60704788
:105400002DE9F84300260446C0F89060FDF794F9B2
:105410008046206800684FF0200500076FF07E4747
:1054200013D54346002229042046009700F0A2F934
:1054300058B1216851E8000F20F0800041E80002D7
:10544000002AF6D1C4F8885021E02068006840079F
:1054500022D5434600224FF480012046009700F0F9
:1054600089F9C8B1216851E8000F20F4907041E833
:105470000002002AF6D12068083050E8001F21F011
:10548000010140E80012002AF5D1C4F88C5084F8DC
:1054900084600320BDE8F883C4F88850C4F88C50B9
:1054A00044F86C6F666026760020F3E710B502685A
:1054B00052E8001F21F4907142E80013002BF6D14E
:1054C0000E4B0268083252E8001F194042E80014EF
:1054D000002CF6D1C16E012908D1016851E8002FD6
:1054E00022F0100241E80023002BF6D12021C0F861
:1054F0008C100021C166416710BD0000FEFFFFEF68
:105500002DE9F0410446016880682269E36910438F
:10551000626900251A431043DFF82CC20A688B4BDE
:105520001A4002430A6020684168E26821F4405151
:10553000114341602168A069614501D0226A10438E
:105540008A68834B1A4002438A602068C16A626A93
:1055500021F00F011143C1627E4923687E488B42CE
:105560000DD1D0F8880010F0030006D0012855D0E6
:10557000022842D003283FD152E001203DE0774984
:105580008B420BD1D0F8880010F00C0035D00428E5
:1055900033D0082840D00C282ED141E070498B42EE
:1055A0000BD1D0F8880010F0300026D0102835D06C
:1055B000202831D030281FD132E06A498B420BD1EC
:1055C000D0F8880010F0C00017D0402826D08028DE
:1055D00022D0C02810D123E063450DD1D0F8880037
:1055E00010F4406009D0B0F5806F17D0B0F5006FAF
:1055F00012D0B0F5406F13D010205B495B4F0026EE
:105600004FF4004263453BD160B1022813D0042817
:105610000BD0082872D10DE00220EEE70420ECE761
:105620000820EAE7FDF792FC01E0FDF7B3FC01007A
:1056300001D17CE01146606A37F810206768B1FB41
:10564000F2F007EB4703834270D8B0EB073F6DD809
:10565000002308461946FAF7DBFD090241EA10610A
:1056600002027808101871413A460023FAF7D0FD7B
:105670003F4AA0F54071914258D82168C86056E071
:10568000E3694FF6EF7893422CD109284ED2DFE838
:1056900000F00508114D0D4D4D4D1000FDF756FC65
:1056A00001E0FDF765FC010004D140E0FDF772FC6C
:1056B000F9E71146606A37F81000B1FBF0F04100DD
:1056C000606801EB5001B1FBF0F0A0F11001414521
:1056D0002CD84FF6F0710140C0F34200014320681E
:1056E000C16024E0092821D2DFE800F0050912207A
:1056F0000E2020201100FDF729FC02E016E0FDF746
:1057000037FC010004D112E0FDF744FCF9E7114633
:10571000606A37F81000B1FBF0F1606801EB5001EE
:10572000B1FBF0F0A0F1100141450AD9012501209B
:10573000A4F86A0024F8680F2846E6602661BDE8F0
:10574000F08180B299E7000000800040F369FFCF4C
:10575000FFF4FF11003801400010024000440040F7
:1057600000480040004C00400024F400846600081B
:10577000FFFC0F002DE9F047994617460D460446F9
:105780004FF00008089E33E0701C31D0FCF7D4FFC6
:10579000A0EB0900B04218D8BEB1206801684907E3
:1057A00026D5802D24D0402D22D0C169C9430907B8
:1057B0000DD4082505622046FFF778FEC4F8905006
:1057C00084F884800120BDE8F0870320FBE7C069EE
:1057D000C04300050CD421684FF4006008622046E5
:1057E000FFF764FE2020C4F8900084F88480ECE782
:1057F0002068C06935EA000004D00020B842C3D058
:105800000020E0E70120F9E7FEE700000FB4054BB8
:1058100010B503A9044A029800F032FB10BC5DF8F1
:1058200014FB0000B1650008CC0000204100080214
:1058300018BF04200A0E18BF40F001004FF07F424D
:1058400032EA010108BF40F00200012808BF05202C
:1058500070470907090E002804DB00F1E02080F8FA
:105860000014704700F00F0000F1E02080F8141DD4
:105870007047000010EE101A08B5444A6846B2EBB3
:10588000410F28D94FF0E640B0EB410F94BF002004
:105890004FF0FF3000900098002861DB60EE000AB6
:1058A00010F0010F45D010F0020FDFED391A9FED17
:1058B000391A00EEE11ADFED381A40EE811A21EEB6
:1058C000A01AF0EE400A40EE010A08BFF1EE600AAD
:1058D000B0EE600A08BD314B21F0004293423CD942
:1058E00011F0004FDFED2E0A20EE201ADFED2D0A19
:1058F00019BF31EE601A71EE200A31EE201A71EEF6
:10590000600ABDEEE01A11EE100A9FED271A00F0B2
:10591000030000EEC10A9FED251A009000EEC10AB7
:105920009FED231A00EEC10A9FED221A00EEC10A74
:10593000B1E79FED211A9FED210A10F0020F00EE52
:10594000810A9FED1F1A00EE801AB7EE000A00EEE2
:10595000810A18BFB1EE400A08BD00F00FF99AE7BE
:1059600010EE100A4000B0F17F4F3CBFB7EE000AC6
:1059700008BD07D14FF0010000F0BAF9BDE80840BA
:1059800000F0ECB8BDE8084000F0E4B8B61F927E25
:10599000336D4C39DA82083CA0AA2ABE490E49462A
:1059A00083F9223F0000004B0000C93F00A0FD39F1
:1059B0000020A2331A61342CB93AB2BACA9F2A3DE8
:1059C000DDFFFFBE00B510EE101A2DED028B81B089
:1059D000524A6846B2EB410F2ED94FF0E640B0EB89
:1059E000410F94BF00204FF0FF3000900098B0EEC0
:1059F000408A00286ADB10F0010F4BD068EE080ADD
:105A00009FED471A9FED470A00EE810A9FED461A67
:105A100010F0020F00EE801AB7EE000A00EE810AC5
:105A200002BF01B0BDEC028B00BD00BF01B0B1EE02
:105A3000400ABDEC028B00BD3C4B21F0004293427A
:105A400041D911F0004FDFED3A0A20EE201ADFEDC8
:105A5000390A19BF31EE601A71EE200A31EE201AB0
:105A600071EE600ABDEEE01A11EE100A9FED321AD7
:105A700000F0030000EEC10A9FED301A009000EE26
:105A8000C10A9FED2F1A00EEC10A9FED2E1A00EEFB
:105A9000C10AABE728EE080A9FED2B1ADFED2B0AAF
:105AA00010F0020F40EE410A9FED291A00EE201A75
:105AB00061EE000AB0EE480A08EE200AB6D101B045
:105AC000BDEC028B00BD00F059F88FE718EE100A0C
:105AD0004000B0F17F4F0DD218EE100AFFF7A6FE7E
