:020000040800F2
:100000003035002479030008A96500082959000843
:10001000B5620008650A0008F581000800000000CC
:10002000000000000000000000000000996C0008C3
:10003000DD11000800000000AB650008BB6E000881
:100040009703000897030008970300089703000828
:100050009703000897030008970300089703000818
:10006000970300089703000897030008990D0008FC
:1000700097030008970300089703000897030008F8
:1000800097030008970300089703000897030008E8
:1000900001120008970300080D12000897030008DA
:1000A00097030008970300089703000897030008C8
:1000B00097030008970300089703000897030008B8
:1000C00097030008970300089703000897030008A8
:1000D00097030008DD81000897030008E981000804
:1000E000970300089703000800000000970300082A
:1000F0009703000897030008970300089703000878
:100100009703000897030008970300089703000867
:10011000B1730008970300089703000897030008CD
:100120009703000897030008970300089703000847
:100130009703000897030008970300089703000837
:1001400000000000000000000000000000000000AF
:100150009703000897030008970300089703000817
:100160009703000897030008970300089703000807
:1001700097030008970300089703000897030008F7
:100180009703000897030008BD7300089703000851
:1001900097030008970300089703000897030008D7
:1001A00097030008970300089703000897030008C7
:1001B00097030008970300089703000897030008B7
:1001C00097030008970300089703000897030008A7
:1001D0009703000897030008970300089703000897
:1001E0009703000897030008970300089703000887
:1001F0009703000897030008970300089703000877
:100200009703000897030008970300089703000866
:100210009703000897030008970300089703000856
:1002200097030008970300089703000800000000E8
:1002300097030008970300080000000097030008D8
:100240009703000897030008970300089703000826
:100250009703000897030008970300089703000816
:100260009703000897030008970300089703000806
:100270009703000897030008970300080000000098
:100280009703000897030008970300080000000088
:10029000000000009703000800F002F800F05CF88E
:1002A0000AA090E8000C82448344AAF10107DA45D1
:1002B00001D100F051F8AFF2090EBAE80F0013F0C7
:1002C000010F18BFFB1A43F001031847B488000060
:1002D000D48800000A444FF0000C10F8013B13F0E2
:1002E000070408BF10F8014B1D1108BF10F8015B8F
:1002F000641E05D010F8016B641E01F8016BF9D182
:1003000013F0080F1EBF10F8014BAD1C0C1B09D1D8
:100310006D1E58BF01F801CBFAD505E014F8016B4A
:1003200001F8016B6D1EF9D59142D6D370470000DC
:100330000023002400250026103A28BF78C1FBD8EE
:10034000520728BF30C148BF0B6070471FB508F087
:1003500091FB1FBD10B510BD00F01AF91146FFF753
:10036000F5FF08F0BBFA00F038F903B4FFF7F2FF2D
:1003700003BC00F03BF900000A4880470A48804768
:100380000A480047FEE7FEE7FEE7FEE7FEE7FEE776
:10039000FEE7FEE7FEE7FEE705480649064A074B8B
:1003A00070470000E5110008696F00089902000815
:1003B000302F002430350024303100243031002427
:1003C00053EA020C00F069802DE9F04B4FF0000673
:1003D000002B1FBFB3FA83F503FA05F424FA05F6E0
:1003E0005E4012BF1643B2FA82F502FA05F4C5F177
:1003F00020051EBF22FA05FC44EA0C04203556EA0B
:10040000044C4FEA144418BF641C4FF000084FF02E
:100410000009904271EB030C39D3002919BFB1FADE
:1004200081F701FA07F6B0FA80F700FA07F6C7F18C
:1004300020071EBF20FA07FC46EA0C062037B6FB51
:10044000F4FCA7EB0507103F07F01F0BCBF12006CC
:100450000CFA0BFB2CFA06F644BFB3460026202FFD
:10046000A4BF5E464FF0000B5BEA060C08BF4FF0DE
:10047000010B19EB0B09ABFB027C48EB0608C01B18
:1004800006FB02CC0BFB03CC71EB0C01C1E70B4666
:10049000024641464846BDE8F08B13B54FF00000D8
:1004A0004FF00001AFF30080BDE81C40704710B56D
:1004B000203AC0F00B80B1E81850203AA0E818505C
:1004C000B1E81850A0E81850BFF4F5AF5FEA027C1D
:1004D00024BFB1E81850A0E8185044BF18C918C08C
:1004E000BDE810405FEA827C24BF51F8043B40F82D
:1004F000043B08BF7047D20728BF31F8023B48BF12
:1005000011F8012B28BF20F8023B48BF00F8012B4F
:1005100070474FF0000200B51346944696462039C6
:1005200022BFA0E80C50A0E80C50B1F12001BFF4AC
:10053000F7AF090728BFA0E80C5048BF0CC05DF812
:1005400004EB890028BF40F8042B08BF704748BF60
:1005500020F8022B11F0804F18BF00F8012B7047D4
:10056000704770477047000000487047D02E002445
:1005700010B5FFF7F9FF006810BD10B50446FFF78E
:10058000F3FF046010BD000000487047D02E002427
:100590007546FFF7F9FFAE4605006946534620F061
:1005A0000700854618B020B5FFF7F6FEBDE82040ED
:1005B0004FF000064FF000074FF000084FF0000B1F
:1005C00021F00701AC46ACE8C009ACE8C009ACE8D2
:1005D000C009ACE8C0098D46704710B50446AFF3BA
:1005E00000802046BDE81040FFF7BFBE014918203B
:1005F000ABBEFEE726000200704700002DE9F04187
:10060000FD4F2DED0E8B9FEDFDCADFEDFDCA9FED79
:10061000FDDADFEDFDDAB7EE00BAFC4E9FEDFC8AA5
:10062000FC4DFD4C7878E0B3DFEDFCAA96ED060AB0
:1006300060EE2A8A94ED0A0A38EEC00A08F048F9FA
:1006400010EE100AB0F17E5F18DD207A00287DD010
:10065000D4ED070ADFEDF22A9FEDF22ADFEDF21A60
:10066000B0EE481AB0EE680A04F1700006F0B4FD6E
:1006700020B102F099FEE060C4ED0A8A207A0028D9
:100680006BD0E548703090F83800E8B306F0E8FC2D
:10069000E148703006F00EFDDF48703006F084FD52
:1006A0005DE0FFE7B86880BB02F07EFE0023B86023
:1006B00001211A46B0EE4C0A084605F035FA00232F
:1006C00002211A460120B0EE6C0A05F02DFA002333
:1006D00003211A460120B0EE4D0A05F025FA002349
:1006E00004211A460120B0EE6D0A05F01DFA84EDD2
:1006F000148A84ED158A84ED168A84ED178A84EDB8
:10070000078A84ED088A01E027E005E084ED09BA54
:1007100084ED0A8A84ED0B8A02F046FEB968401A1D
:10072000B0F57A7F11D396ED050A08F0D1F810EEF6
:10073000100AA84209DA96ED060A08F0C9F810EE88
:10074000100AA84201DA0120787000E003E0BDEC55
:100750000E8BBDE8F081C4ED0A8A94ED0A0AB34914
:1007600010EE100A84ED070A884201DDC4ED07AAE5
:10077000AF49E069884203D99FEDAE0A84ED070ACC
:1007800096ED051ADFEDAC1A9FEDAC0ADFEDAC0A71
:1007900021EE211AC1EE001A94ED0B0A61EEA08A37
:1007A00038EEC00A08F094F810EE100AA549884205
:1007B00017DD207A38B3D4ED080ADFEDA32A9FEDC8
:1007C000A32ADFEDA31A9448B0EE481AAC30B0EE7D
:1007D000680A06F001FD20B102F0E6FDE060C4ED1C
:1007E0000B8A207A88B18C48AC3090F8380060B120
:1007F00006F036FC8848AC3006F05CFC8648AC302D
:1008000006F0D2FC15E0C4ED0B8A9FED922AD4EDE0
:10081000081A94ED0B0A71EE820AF4EEC00AF1EEAA
:1008200010FA09DD31EEC21AB4EEC01AF1EE10FA78
:1008300002D284ED080A0DE0F4EEC00AF1EE10FADF
:1008400006D371EEC20AF4EEC00AF1EE10FA01DD31
:10085000C4ED080A94ED070A08F03AF810EE100A01
:100860009FED7DAADFED7D9AA84248DDC0EE0A0A21
:1008700020EEA90A07F084FEB0EE401AF6EE00BAA8
:10088000DFED770A8BEE810A30EE608A70EE208A07
:100890008BEE880A07F0D4FC20EE0A0A80EE299A33
:1008A0008BEEA80A07F0CCFC20EE0A0AB5EE00EAAF
:1008B000C0EE29BA8EEE080A07F0C2FC20EE0A0A42
:1008C00080EE298A8EEE280A07F0BAFC20EE0A1A7A
:1008D000D4ED070A81EE290AF5EEC00AF1EE10FA0E
:1008E00004DDF0EE6B8AF0EE40BA0EE0F1EE498ADC
:1008F000B1EE6B9AF1EE48BAB1EE408A05E0F0EE47
:1009000048BAB0EE489AF0EE488AC9EE2A0A0023A7
:1009100001211A46084688EEAA0A30EEAC9A8BEE00
:10092000AA1A30EE0C0AC8EE2A1A71EE0DBA71EE50
:10093000ADAA05F0F9F8002302211A460120B0EE15
:10094000490A05F0F1F8002303211A460120B0EE10
:100950006B0A05F0E9F8002304211A460120B0EEE5
:100960006A0A05F0E1F8B0EE480A07F0B1FF10EEB0
:10097000100AA84212DD88EE8A0A20EE290A07F042
:1009800017FDF0EE408A88EE0A0A20EE290A07F0E9
:100990000FFDC8EE800AC4ED090A01E084ED09BA32
:1009A00094ED070AB5EEC00AF1EE10FA94ED080ACC
:1009B00010DDF1EE400AC4ED140A84ED150AD4ED01
:1009C000090A20EE201A20EE600A84ED160A84ED52
:1009D000171ABAE6D4ED090AB1EE401A81EE202AC0
:1009E000C0EE201A84ED142AC4ED151A84ED161AEF
:1009F00084ED170AA9E600007800002454E3E53FDF
:100A0000C1CA69404A0CB23FF628AC3F7C1D0024A5
:100A100000000000CDCCCC3D581C00240000344226
:100A2000000016430000F042000070420000344213
:100A3000000034C2000034C2CDCCCC3ECDCC4C3D05
:100A40000000B443000048420000964400004844BF
:100A50000000FA440000D84300003443DB0F494053
:100A6000CDCC4C3EFEE730B58BB00C462821054678
:100A70006846FFF74EFD402123466A46284601F0AE
:100A80006BFF20B100F0ABFB00200BB030BD009835
:100A9000FBE7000070B58AB0154624220C460C49CD
:100AA00006466846FFF703FD0A4800220094416AA3
:100AB000C06A4143074801F028FF064801F037FFAC
:100AC0002A466946304601F0ADFE0AB070BD00000E
:100AD0001C8B0008E00C002430B589B040F2FF7098
:100AE0000024694601250094CDE904400E48CDE973
:100AF0000245019401F0CAFE08B100F070FB6FF0EE
:100B000060414FF08040CDE90004CDE90441064842
:100B10006946CDE9024501F0B9FE002801D000F098
:100B20005EFB09B030BD0000E00C0024184810B591
:100B30000178012905D0022913D0BDE8104005F045
:100B400055BC05F0CBF91248703006F01DFC10487A
:100B5000AC3006F019FC0E48BDE81040E83006F055
:100B600013BC407820B1012805D0022806D007E048
:100B7000FFF744FD04E000F00DF801E005F0DAFFB6
:100B8000034805F0A1FBBDE81040014805F0EEBBAD
:100B9000581C002470B56F4D2DED048B9FED6E8AAF
:100BA0006E4E6F4C2878E8B396ED051ADFED6D1A9E
:100BB0009FED6D0ADFED6D0A21EE211AC1EE001ADC
:100BC00094ED060A61EEA08A38EEC00A07F080FEB6
:100BD00010EE100A6649884218DD207A00287DD080
:100BE000D4ED050ADFED632A9FED632ADFED631A7A
:100BF000B0EE481AB0EE680A04F1E80006F0ECFA2C
:100C000020B102F0D1FBE060C4ED068A207A002812
:100C10006BD05348E83090F83800002865D006F0D3
:100C20001FFA00E008E04E48E83006F043FA4C486E
:100C3000E83006F0B9FA6CE06868A0BB02F0B4FBDB
:100C40009FED4F0ADFED4F9ADFED4F8A9FED4F9AF0
:100C50000023686001211A46084604F065FF00235E
:100C600002211A460120B0EE690A04F05DFF00235C
:100C700003211A460120B0EE680A04F055FF002354
:100C800004211A460120B0EE490A04F04DFF84ED1C
:100C9000148A84ED158A84ED168A84ED178A84ED12
:100CA000058A84ED068A02F07FFB6A6840F2DC5117
:100CB000801A884214D396ED050A07F009FE10EE5B
:100CC000100A334CA0420BDA96ED060A07F000FE3C
:100CD00010EE100AA04203DA012000E003E02870C1
:100CE000BDEC048B70BDC4ED068ADFED2A0AD4ED9D
:100CF000051A94ED060A31EEA01AB4EEC01AF1EE10
:100D000010FA09DD31EEE02AB4EEC02AF1EE10FA55
:100D100002D284ED050A10E0B4EEC01AF1EE10FA2A
:100D200002D284ED051A08E071EEE00AF4EEC00A82
:100D3000F1EE10FA01DDC4ED050A94ED050AF1EEBD
:100D4000400AC4ED140AC4ED150A84ED160A84EDB8
:100D5000170AC5E778000024000000007C1D00246D
:100D6000581C0024CDCCCC3ECDCC4C3D0000B4432F
:100D70000000484200009644000048440000FA4445
:100D8000AAF1724060E5B440250659407B145640F4
:100D9000CDCCCC3D0000D843014800F049BE000056
:100DA000D4100024294A016891423AD0274A1832C7
:100DB000914236D0254A3032914232D0234A4832CD
:100DC00091422ED0214A603291422AD01F4A783275
:100DD000914226D01D4A9032914222D01B4AA8321D
:100DE00091421ED01A4A91421BD0194A18329142A0
:100DF00017D0174A3032914213D0154A48329142E7
:100E00000FD0134A603291420BD0114A783291428E
:100E100007D00F4A9032914203D00D4AA832914236
:100E200011D1CAB21823103AB2FBF3F26FF30901E1
:100E3000032A02F00703074AD25CC26500D9091DE4
:100E400081650846704721F0FF01F9E71000024074
:100E5000100402407E8A000830B5224A012301684E
:100E60009142CAB21BD01F4C1434A14217D01D4C62
:100E70002834A14213D01B4C3C34A1420FD0194C52
:100E80005034A1420BD0174C6434A14207D0154C0A
:100E90007834A14203D0134C8C34A1420CD11421DC
:100EA000114C083AB2FBF1F10F4A803201F01F05F4
:100EB00004EB8101AB4010E00C4D1824103A0D44B6
:100EC000B2FBF4F1A82D00D80831094A01F01F0443
:100ED00002EB8101064AA3408032603080E80E00B8
:100EE00030BD00000854025800580258F0FBFDBF06
:100EF0000008024010B50279531E072B2DD8174C5D
:100F00000168A1421BD0154C1434A14217D0134CD8
:100F10002834A14213D0114C3C34A1420FD00F4CC5
:100F20005034A1420BD00D4C6434A14207D00B4C7D
:100F30007834A14203D0094C8C34A14203D1084932
:100F4000074C443102E00749064C443104EB82026D
:100F5000C0E91B2101219940416710BD0854025886
:100F6000FC580258FC08024010B583694FF0C07469
:100F7000826A0146002053B1B3F5005F15D072B10B
:100F8000012A0CD0022A0AD0032A09D104E01AB19E
:100F9000012A06D0022A03D1C96AC90100D501205D
:100FA00010BDC96AA142FAD010BD002AF7D0012AAB
:100FB000F2D0022AF3D0032AF3D010BD2DE9F04F6E
:100FC000804E804FDFF8FC911836DFF8F8A14837E3
:100FD0000468856D0AF1300ADFF8ECB14C45DFF8A2
:100FE000ECC1DFF8ECE16DD0B4426BD0544569D070
:100FF000BC4267D0DFF8D081A8F11808444561D021
:101000005C455FD064455DD074455BD0DFF8C4813A
:10101000444557D0DFF8BC8108F11808444551D049
:10102000DFF8B08108F1300844454BD0DFF8A481E7
:1010300008F14808444545D0DFF8988108F1600878
:1010400044453FD0DFF88C8108F17808444539D019
:10105000DFF8808108F19008444533D0DFF87481CF
:1010600008F1A80844452DD0DFF86C81444529D00B
:10107000DFF8648108F11408444523D0DFF8588173
:1010800008F1280844451DD0DFF84C8108F13C08E0
:10109000444517D0DFF8408108F15008444511D08D
:1010A000DFF8348108F1640844450BD0DFF828816B
:1010B00008F17808444505D0DFF81C8108F18C0858
:1010C000444509D1D0E91948C4F80480C46E1CB164
:1010D000D0E91C48C4F8048004684C452ED0B442C2
:1010E0002CD054452AD0BC4228D0374E183EB442AA
:1010F00024D05C4522D0644520D074451ED0354EA6
:10110000B4421BD0334E1836B44217D0314E30366D
:10111000B44213D02F4E4836B4420FD02D4E603615
:10112000B4420BD02B4E7836B44207D0294E9036BD
:10113000B44203D0274EA836B44215D190F85C6073
:101140003F2406F01F06B440AC600468256825F40F
:10115000802525602EE09A600068C160BDE8F08FB0
:1011600099600068C260F9E71B4EB4421BD01A4E6A
:101170001436B44217D0184E2836B44213D0164E47
:101180003C36B4420FD0144E5036B4420BD0124EFF
:101190006436B44207D0104E7836B44203D00E4EB7
:1011A0008C36B442DAD190F85C60012406F01F0658
:1011B000B4406C60046863608368402B0368CFD1DF
:1011C000C9E700001000024088000240A000024071
:1011D000B80002401004024008540258704772B62A
:1011E000FEE70000054805490839026842F002029E
:1011F000026008688004FCD5704700000C48025863
:10120000014801F071BC0000E00C0024014801F02D
:101210006BBC0000E00C0024F0B503684FF6FC71D5
:101220006D4C426BD3F884508D4345EA8205C3F878
:101230008450036853F8845F068F25F47F0545EAE0
:1012400006451D60836B654D9F180268D2F8883093
:101250008B4343EA8703C2F88830026852F8883F1C
:10126000868F23F4FE0343EA06431360066856F8AC
:10127000A03FC26B8B4307EB420243EA8203336019
:10128000076857F8A03FB0F8406023F4FE0343EA34
:1012900006433B60D0E9103603FB06220368D3F80F
:1012A000B0608E4346EA8206C3F8B0600368B0F8C7
:1012B0004860D3F8B07027F4FE0747EA0646C3F843
:1012C000B060D0E91267036806FB0722D3F8AC6070
:1012D0008E4346EA8206C3F8AC60D0E9146703681F
:1012E00006FB0722D3F8F0608E4346EA8206C3F875
:1012F000F0600368B0F85860D3F8F07027F47C17FA
:1013000047EA0646C3F8F0600368876D53F8C06F7C
:1013100002EB47028E4346EA820119600168B0F889
:101320005C20D1F8C03023F47C1343EA0242C1F8B8
:10133000C020016890F86020D1F8C03023F07C53C1
:1013400043EA0262C1F8C020416B04EB8101C1662F
:10135000826B01EB82020267C36B02EBC30242673E
:10136000D0E91034634302EB83028267D0E9123480
:10137000634302EB8302C267D0E91434634302EB98
:101380008302C0F88020836D02EBC303C0F8843071
:10139000C46D826E544303EB8403C0F88830046E3E
:1013A000544303EB8402C0F89020AA420AD9D0F833
:1013B0009C20032142F02002C0F89C2080F8981065
:1013C0000120F0BD002200E004C1D0F890308B4233
:1013D000FAD80020F0BD000000AC0040FCD3004073
:1013E000F0B58E680C69D1E9005744EA0604DFB114
:1013F00045F080452C43866ED1E906C54F695E43B2
:1014000091F8203045EA0C05B1F80CC0D0F884E022
:10141000002047EA03630C4F1D430EEB860345EAA9
:101420000C45E3E802450AE044EA8544E3E7141882
:10143000155C001DD4F8014045EA042410C3CC68B3
:101440003C5D8442F3D8F0BD888A00082DE9F84F4E
:10145000044601F0A9FF00903CB194F83500022841
:1014600006D0802161650020E4E00120BDE8F88F0E
:10147000C74DC74EC649183520683036DFF814838B
:10148000DFF814938842DFF814A3DFF814B32ED0EA
:10149000A8422CD0B0422AD0404528D0484526D07A
:1014A000504524D0584522D0BD4A183290421ED013
:1014B000BC4A90421BD0BB4A1832904217D0B94A5E
:1014C0003032904213D0B74A483290420FD0B54ADA
:1014D000603290420BD0B34A7832904207D0B14A82
:1014E0009032904203D0AF4AA832904209D10268AC
:1014F00022F01E0202602068426922F080024261EE
:1015000003E0026822F00E02026027688F4238462C
:101510004DD0A8424BD0B04249D0404547D0484575
:1015200045D0504543D0584541D09D4A183290424D
:101530003DD09C4A90423AD09A4A1832904236D0D6
:10154000984A3032904232D0964A483290422ED059
:10155000944A603290422AD0924A7832904226D001
:10156000904A9032904222D08E4AA83290421ED0A9
:101570008D4A90421BD08C4A1432904217D08A4A2E
:101580002832904213D0884A3C3290420FD0864A8B
:10159000503290420BD0844A6432904207D0824A43
:1015A0007832904203D0804A8C32974204D1206E28
:1015B000026822F48072026075492068884228D04F
:1015C000A84226D0B04224D0404522D0484520D061
:1015D00050451ED058451CD071491831884218D04A
:1015E0007049884215D06F491831884211D06D4931
:1015F000303188420DD06B494831884209D0694961
:101600006031884205D067497831884201D0654908
:101610009031016821F0010101600EE001F0C4FE8B
:101620000099401A052808D920226265032100206C
:1016300084F8351084F8340017E73868C007EDD116
:10164000534A0121206890422ED0A8422CD0B042AB
:101650002AD0404528D0484526D0504524D058456A
:1016600022D04F4B183398421ED04E4B98421BD07D
:101670004C4B1833984217D04A4B3033984213D012
:10168000484B483398420FD0464B603398420BD0BA
:10169000444B7833984207D0424B9033984203D062
:1016A000404BA833984208D194F85C703F23A06D5A
:1016B00007F01F07BB40836007E094F85C30A06D23
:1016C00003F01F0301FA03F34360206890424DD0FA
:1016D000A8424BD0B04249D0404547D0484545D0BC
:1016E000504543D0584541D02D4A183290423DD004
:1016F0002C4A90423AD02B4A1832904236D0294A8E
:101700003032904232D0274A483290422ED0254A79
:10171000603290422AD0234A7832904226D0214A21
:101720009032904222D01F4AA83290421ED01E4AC8
:1017300090421BD01C4A1432904217D01A4A2832C9
:10174000904213D0184A3C3290420FD0164A503281
:1017500090420BD0144A6432904207D0124A783239
:10176000904203D0104A8C3290420BD1D4E9190236
:101770004260E06E30B1026822F480720260D4E907
:101780001C024260002084F8351084F834006DE6B5
:1017900010000240580002407000024088000240E1
:1017A000A000024010040240085402582DE9F05FE6
:1017B00028B190F83510022904D08021416501201C
:1017C000BDE8F09F904C904B0168183C18338E4A4E
:1017D000DFF83C92A1428D4CDFF838E28E4FDFF803
:1017E0003CB2DFF83CA28F4D8F4E31D091422FD0CA
:1017F00099422DD0A1422BD0494529D0714527D0FF
:10180000B94225D0DFF810C20CF1180C61451FD089
:10181000DFF808C2ACF1600C614519D0DFF8FCC1FB
:10182000ACF1480C614513D0DFF8F0C1ACF1300CDD
:1018300061450DD0DFF8E4C1ACF1180C614507D06B
:10184000594505D0514503D0A94201D0B1422CD110
:10185000DFF8B4C14FF0040880F83580ACF1180C03
:1018600061451DD091421BD0994219D0A14217D099
:10187000494515D0714513D0B94211D0664818308A
:1018800081420DD065486038814209D063484838AC
:10189000814205D061483038814201D05F48183814
:1018A000086820F001000860ABE0D1F800C02CF01F
:1018B0000E08DFF854C1C1F80080ACF1180C0168C3
:1018C000614527D0914225D0994223D0A14221D011
:1018D00049451FD071451DD0B9421BD0DFF838C132
:1018E0000CF1180C614515D0DFF830C1ACF1600C7B
:1018F00061450FD0DFF824C1ACF1480C614509D037
:10190000DFF818C1ACF1300C614503D0DFF80CC131
:10191000ACF1180CD1F800C02CF0010CC1F800C0DB
:10192000DFF8E4804FF0010C0168A8F11808414588
:1019300046D0914244D0994242D0A14240D049453C
:101940003ED071453CD0B9423AD0334A1832914228
:1019500036D0324A603A914232D0304A483A9142C7
:101960002ED02E4A303A91422AD02C4A183A91422F
:1019700026D0594524D0514522D0A94220D0B14289
:101980001ED02A4A91421BD0284A1432914217D0C5
:10199000264A2832914213D0244A3C3291420FD039
:1019A000224A503291420BD0204A6432914207D0F1
:1019B0001E4A7832914203D01C4A8C32914218D18F
:1019C000016E0A6822F480720A6090F85C20816DD2
:1019D00002F01F020CFA02F24A60D0E919124A60C2
:1019E000C16E31B10A6822F480720A60D0E91C121B
:1019F0004A600022016D80F835C080F8342001B1C2
:101A000088470020DCE60000280002405800024021
:101A10007000024088000240A000024070040240B2
:101A200088040240A0040240B8040240085402584E
:101A30002DE9FC5F0446F74E0020DFF8D8830090C4
:101A40004FF41652F44808F11808A56DDFF8C49356
:101A5000DFF8C0A3016809F1300920680AF1480ADB
:101A6000B1FBF2F1B04201912F68D5F800C0DFF868
:101A7000ACB335D04146884232D0484530D050458D
:101A80002ED058452CD0E5491831884228D0E3495A
:101A90003031884224D0E1494831884220D0E049A1
:101AA00088421DD0DE491831884219D0DC493031D6
:101AB000884215D0DA494831884211D0DFF860E316
:101AC0000EF1600E70450BD0D54A7832904207D0A7
:101AD000D34B9033984203D0D149A83188427DD16D
:101AE00094F85C20082102F01F0201FA02F23A4247
:101AF0004AD0B04232D0404530D048452ED0504533
:101B00002CD058452AD0C54A1832904226D0C34A14
:101B10003032904222D0C14A483290421ED0C04A50
:101B200090421BD0BE4A1832904217D0BC4A303285
:101B3000904213D0BA4A483290420FD0B84A60322D
:101B400090420BD0B64A7832904207D0B44A9032D5
:101B5000904203D0B24AA832904203D1026802F008
:101B6000040202E0026802F008026AB1026822F090
:101B70000402026094F85C0000F01F008140A9603C
:101B8000606D40F00100606594F85C00012100F098
:101B90001F008140394240D02068B04234D04045D7
:101BA00032D0484530D050452ED058452CD09B4A95
:101BB0001832904228D0994A3032904224D0974A25
:101BC0004832904220D0964A90421DD0944A183212
:101BD000904219D0924A3032904200E0AFE113D0E7
:101BE0008F4A483290420FD08D4A603290420BD0DB
:101BF0008B4A7832904207D0894A9032904203D083
:101C0000874AA83290427DD1406910F0800F04D0FD
:101C1000A960606D40F00200606594F85C000421EA
:101C200000F01F00814039423ED02068B04232D0DF
:101C3000404530D048452ED050452CD058452AD06C
:101C4000764A1832904226D0744A3032904222D0DE
:101C5000724A483290421ED0714A90421BD0704A5C
:101C60001832904217D06E4A3032904213D06C4AEC
:101C7000483290420FD06A4A603290420BD0684A94
:101C80007832904207D0664A9032904203D0644A3C
:101C9000A83290424ED1006810F0020F04D0A96023
:101CA000606D40F00400606594F85C00102100F065
:101CB0001F008140394258D02068B04234D040459E
:101CC00032D0484530D050452ED058452CD0534ABC
:101CD0001832904228D0514A3032904224D04F4A94
:101CE0004832904220D04E4A90421DD04C4A183281
:101CF000904219D04A4A3032904215D0484A483270
:101D0000904200E014E00FD0454A603290420BD080
:101D1000434A7832904207D0414A9032904203D0F1
:101D20003F4AA832904207D1006800F0080006E060
:101D3000006872E70068B7E7006800F00400A0B12F
:101D4000A96020680168490304D50068000308D52C
:101D5000A16C07E00168C90503D4016821F00801FE
:101D60000160216C09B12046884794F85C0020216D
:101D700000F01F008140394279D02068B04232D053
:101D8000404530D048452ED050452CD058452AD01B
:101D9000224A1832904226D0204A3032904222D035
:101DA0001E4A483290421ED01D4A90421BD01C4A07
:101DB0001832904217D01A4A3032904213D0184A43
:101DC000483290420FD0164A603290420BD0144AEB
:101DD0007832904207D0124A9032904203D0104A93
:101DE000A832904203D1006800F0100002E00068C1
:101DF00000F00200B0B3A96094F835000428206810
:101E000001680FD049037ED5006800032BD4616CB4
:101E10002AE000001000024014000024700002407C
:101E20001004024021F0160101602068416921F090
:101E300080014161206C08B9A06C20B12068016864
:101E400021F00801016094F85C303F21012003F08B
:101E50001F0300229940A96084F8350084F83420DB
:101E6000216D65E003E0E16B09B120468847606DB4
:101E700000287DD0606DC00759D02068042184F807
:101E80003510B0422BD0404529D0484527D0504589
:101E900025D0584523D09D49884220D09B491831F0
:101EA00088421CD099493031884218D098498842DC
:101EB00015D097491831884211D095493031884260
:101EC0000DD093494831884209D091496031884208
:101ED00005D08F497831884201D08D499031016811
:101EE00021F00101016020680099019A491C0091CC
:101EF000914202D80168C907F6D10068C00710D026
:101F000003200FE0FFE70168C905ACD40368012195
:101F1000002223F01003036084F8351084F8342085
:101F2000A1E7012084F83500002084F83400E16C3A
:101F300000291DD002B02046BDE8F05F0847754972
:101F400088421DD073491431884219D07149283113
:101F5000884215D06F493C31884211D06D495031CB
:101F600088420DD06B496431884209D0694900E04C
:101F700084E07831884203D066498C3188427DD133
:101F800094F85C800427016808F01F0807FA08F736
:101F900017EA0C0F009746D04F0744D500980F045E
:101FA000686003D5C8033CD4A16CC1E7880638D467
:101FB0002068B0422DD055496039884229D0484523
:101FC00027D0504525D0584523D05049884220D0AD
:101FD0004E49183188421CD04C493031884218D0C3
:101FE0004B49884215D04A491831884211D0484996
:101FF000303188420DD046494831884209D0704579
:1020000007D0904205D0984203D04149A831884278
:1020100003D1016821F0080102E0016821F0040108
:102020000160216C84E7022707FA08F717EA0C0F12
:1020300000974ED08F074CD500980F04686003D5E9
:10204000C80344D4616C73E7880640D42068B0426A
:102050002FD02E49603988422BD0484529D0504591
:1020600027D0584525D02949884222D02749183100
:1020700088421ED025493031884200E044E018D023
:102080002349884215D022491831884211D020496D
:10209000303188420DD01E494831884209D0704500
:1020A00007D0904205D0984203D01949A831884200
:1020B00003D1016821F0140102E0016821F00A0156
:1020C0000160012184F83510002084F83400E16BB0
:1020D0002EE7082202FA08F212EA0C0F14D00907C0
:1020E00012D5016821F00E01016094F85C10012006
:1020F000002201F01F0100FA01F16960606584F8B7
:10210000350084F8342012E7BDE8FC9F88000240C7
:1021100010040240085402582DE9F05F044601F013
:1021200043F9002C07467DD0E34E022120684FF092
:102130000308DFF888934FF00005DFF884A3B0426E
:10214000DFF880B334D0DC4A1832904230D04845B2
:102150002ED050452CD058452AD0DA4A1832904219
:1021600026D0D84A3032904222D0D64A48329042C5
:102170001ED0D54A90421BD0D34A1832904217D075
:10218000D14A3032904213D0CF4A483290420FD0D9
:10219000CD4A603290420BD0CB4A7832904207D081
:1021A000C94A9032904203D0C74AA83290427DD1AA
:1021B00084F83510B04284F834502ED0BE4918311E
:1021C00088422AD0484528D0504526D0584524D0AA
:1021D000BC491831884220D0BA49303188421CD0DD
:1021E000B8494831884218D0B749884215D0B64915
:1021F0001831884211D0B449303188420DD0B249EB
:102200004831884209D0B0496031884205D0AE4992
:102210007831884201D0AC499031016821F0010148
:10222000016008E027E100BF01F0BEF8C01B0528EF
:1022300001D920211CE120680068C007F4D104F115
:1022400008002168D4E9053C8E4685C8096810431A
:10225000D4E907281F43636A38439C4F40EA0C00C7
:102260001043394040EA0800042B40EA010003D142
:10227000D4E90B1211430843954909686FF30F0124
:10228000B1F1005F0FD36168A1F12902052A08D9D5
:10229000163A032A05D9083A012A02D94F390329E7
:1022A00001D840F48010CEF8000000E023E0206860
:1022B000676A4069042F20F0070047EA00070DD144
:1022C000D4E90A01074349B12046FEF74DFE28B183
:1022D00040206065012184F83510CCE0206847611A
:1022E0002046FEF75FFD94F85C203F2102F01F02BC
:1022F0009140816054E0774A90421BD0754B143373
:10230000984217D0734B2833984213D0714B3C330B
:1023100098420FD06F4B503398420BD06D4B6433C3
:10232000984207D06B4B7833984203D0694B8C337B
:1023300098427DD184F8351084F83450664B01689A
:10234000A26801EA030E402A73D0802A72D00022CC
:10235000D4E90378D4E9053142EAD70242EAD80841
:102360005C4AD4E9077C48EAD30848EAD10141EA4B
:10237000D701524241EA1C11142341EA0E010160C7
:1023800020681044B0FBF3F08000E0652046FEF7C3
:1023900009FD94F85C20012102F01F029140416088
:1023A0002068B04257D044491831884253D048453C
:1023B00051D050454FD058454DD0424918318842F0
:1023C00049D040493031884245D03E494831884261
:1023D00041D03D4988423ED03B49183188423AD0ED
:1023E00039493031884236D037494831884232D075
:1023F0003549603188422ED03349783188422AD01D
:1024000031499031884226D02F49A831884222D0C4
:10241000304988421FD02F49143188421BD02D49A2
:102420002831884217D02B493C31884213D002E032
:102430001DE017E018E02749503188420BD02549AC
:102440006431884207D023497831884203D021493A
:102450008C31884229D12046FEF7FEFCA0688028F6
:102460000CD00CE0102273E74FF4804270E740215B
:10247000616584F835800120BDE8F09F6560216EBC
:1024800020790860D4E9190141606068401E07287E
:1024900008D82046FEF72EFDE06E0560D4E91C0149
:1024A000416002E0E566256765670120656584F89F
:1024B00035000020E0E7000010000240400002402C
:1024C0005800024070000240100402403F8010FE9D
:1024D0000010005C085402580F00FEFF2DE9F84F71
:1024E00004008C464FF00000009014D094F83400A3
:1024F000012812D094F835500120002184F83400CE
:10250000012D0CD0C00260650120009084F83410C9
:102510000098BDE8F88F0120FBE70220F9E78C4D19
:102520000226206884F83560A8428A4D61658A4E8B
:102530008A4FDFF82C82DFF82C92DFF82CA2DFF82C
:102540002CB226D0A84224D0B04222D0B84220D00B
:1025500040451ED048451CD050451AD0584518D08B
:102560008349884215D082491831884211D0804968
:10257000303188420DD07E494831884209D07C49AB
:102580006031884205D07A497831884201D0784953
:102590009031016821F00101016061462046FEF79B
:1025A0000DFD6B49206888422CD0A8422AD0B04249
:1025B00028D0B84226D0404524D0484522D05045A6
:1025C00020D058451ED06A4A90421BD0684A183223
:1025D000904217D0664A3032904213D0644A483253
:1025E00090420FD0624A603290420BD0604A7832FB
:1025F000904207D05E4A9032904203D05C4AA832A3
:1026000090420CD1026822F01E0242F016020260D3
:10261000206C88B12068026842F008020BE0026872
:1026200022F00E0242F00A020260206C20B1206803
:10263000026842F004020260206888424BD0A8423F
:1026400049D0B04247D0B84245D0404543D0484534
:1026500041D050453FD058453DD0454A90423AD0B0
:10266000434A1832904236D0414A3032904232D0FA
:102670003F4A483290422ED03D4A603290422AD0A2
:102680003B4A7832904226D0394A9032904222D04A
:10269000374AA83290421ED0364A90421BD0354A63
:1026A0001432904217D0334A2832904213D0314A24
:1026B0003C3290420FD02F4A503290420BD02D4ADC
:1026C0006432904207D02B4A7832904203D0294A94
:1026D0008C3290420DD1206E0268D20303D502687D
:1026E00042F480720260E06E18B1026842F48072B7
:1026F00002602068884226D0A84224D0B04222D06E
:10270000B84220D040451ED048451CD050451AD074
:10271000584518D01649884215D0154918318842B5
:1027200011D01349303188420DD0114948318842C7
:1027300009D00F496031884205D00D49783188426F
:1027400001D00B499031016841F001010160DFE6E1
:1027500010000240280002404000024058000240A1
:102760007000024088000240A0000240B800024011
:10277000100402400854025870B5044600F014FEDC
:102780000546601C02D004480078044400F00CFEAA
:10279000401BA042FAD370BD0800002410B590F889
:1027A0009830012B09D0022B07D0D0F89C1041F0B3
:1027B0000201C0F89C10012010BD03689C6D0C4202
:1027C00003D1DC6D44F0010404E09C6D31EA0404A3
:1027D0001FD00324DC658B0505D50368D3F8E040E2
:1027E0001443C3F8E0404B0505D50368D3F8E44033
:1027F0001443C3F8E4400068084A01EA0203446D48
:10280000074A1C434465106840EA9170106000203C
:1028100010BDDC6D44F00204DCE70000FFFFCF3F99
:1028200014A8004070B5044690F89800022804D01F
:10283000D4F89C0040F008000DE02068D0F8C030CB
:1028400013F07C5F0BD0D0F8C4309B020CD5D4F8C9
:102850009C0040F40070C4F89C00012070BDD4F8C6
:102860009C0040F02000F6E7D0F8C400C0F3044517
:1028700020462B46FEF7B4FD21680120A840C1F890
:10288000D000C4F89400002070BD704770B590F877
:102890009820012A09D0022A07D0D0F89C1041F0D4
:1028A0000201C0F89C10012070BD0B68CA6883B19A
:1028B0000B69072A43EA427325D00C7A4A6942EA37
:1028C00084724968006F00EBC100C0E9003200204B
:1028D00070BD072A0DD00C7AD6060D8A4B6943EAE3
:1028E000847246EA0543C06E49681A4340F82120C5
:1028F000EDE70B8A4FF06055D1E9062442EA034226
:1029000045EA0423EFE78A69DBE790F89830012B6A
:1029100007D0D0F89C1041F00401C0F89C100120B1
:102920007047006842EA012181640020704790F8F6
:102930009810012907D0D0F89C1041F00401C0F88C
:102940009C10012070470068C16841F40001C1601B
:102950000020704770477047F0B590F898500024F9
:10296000022D04D0D0F89C1041F0080129E0402944
:1029700005D0412929D0056D8D4219D942E005685D
:10298000D5F8A06016F4FE0F12D0D5F8A460760634
:1029900013D0D5F8A460F60105D5D5F8A06016F0DF
:1029A000004F00D50124D5F8A470466F456C24E093
:1029B000D0F89C1041F0200103E0D0F89C1041F4C5
:1029C0008071C0F89C100120F0BD0568D5F8B0609A
:1029D00016F4FE0FECD0D5F8B4607606EDD0D5F83D
:1029E000B460F60105D5D5F8B06016F0004F00D5FB
:1029F0000124D5F8B470866FC56CC7F305273C4435
:102A0000654302E0456DC66F4D4306EB85052E68B4
:102A100016F0804656602E6836D026F06046166066
:102A2000D5F800C000262E4F0CF0005CC2F808C09C
:102A3000D5F800C00CF0004CC2F810C0B5F804C0C6
:102A40001FFA8CFCC2F81CC0D5F804C0CCF3034CB0
:102A5000C2F80CC0D5F804C00CF4801CC2F814C035
:102A6000D5F804C00CF4001CC2F818C0D5F804C096
:102A7000CCF3066CC2F820C0D5F804C008354FEA84
:102A8000DC7CC2F824C008E0C6F38A46C7E700BF72
:102A900015F806C003F806C0761CD2F80CC017F86B
:102AA0000CC0B445F4D840290AD041290CD02029C3
:102AB0004FF001020CD200688A40C0F898200DE067
:102AC0000068C0F8A84009E00068C0F8B84005E018
:102AD000006801F01F018A40C0F89C200020F0BD72
:102AE000888A0008704700002DE9FF5FDFF80CB30B
:102AF00004460BF10401DBF8000025680F68AA46C4
:102B00008007D5F85090696DD5F850806E6D2A6DAC
:102B1000D5F854C02B6D00EA8770009009F4704915
:102B20006F6D286D01EA09010191DAF85410DAF8A5
:102B30005490DAF8505008F00F0806EA080602969A
:102B400002F0F00203F071536FEA09061F4000F033
:102B500060700CEA020CCDF80CC0F20501EA000925
:102B60000CD4E843C00509D400214FF48073CAF89F
:102B70005030CBF800102046FFF7B4FF700512D498
:102B8000E84340050FD4206800234FF48068D0F854
:102B9000DC20D0F8E410C0F85080CBF800301140B1
:102BA000204600F0E1FADFF858A2009850B1226800
:102BB000830F00EA0A001065CBF800302046009928
:102BC000FFF763FE019850B12268830F00EA0A0004
:102BD0001065CBF800302046019900F0C7FA029842
:102BE00050B12268830F00EA0A001065CBF800306C
:102BF0002046029900F080FA039850B12268830FB2
:102C000000EA0A001065CBF800302046039900F076
:102C10008BFA30050CD4E843000509D42368002062
:102C20004FF400621A65CBF80000204600F09FFACE
:102C3000B00512D4E84380050FD4206800234FF478
:102C40000078D0F8D820D0F8E010C0F85080CBF849
:102C500000301140204600F088FA30030CD4E843DD
:102C6000000309D4236800204FF400221A65CBF832
:102C70000000204600F03EFAF0030CD4E843C00305
:102C800009D4236800204FF480321A65CBF8000085
:102C9000204600F068FA70030CD4E843400309D4DE
:102CA000226800204FF480231365CBF800002046F3
:102CB00000F058FAB0030FD4E84380030CD4236823
:102CC00000204FF400321A65CBF80000D4F89C00C5
:102CD00040F08000C4F89C00B9F1000F0BD02268CE
:102CE0004FEA997309EA0A001065CBF800304946AB
:102CF0002046FFF730FE5FB12268BB0F07EA0A00EB
:102D00001065CBF80030D4F89C003843C4F89C0020
:102D10003C492068884268D16068814680688007A5
:102D200063D0D9F82060D9F82410D9F82080D9F8D8
:102D30002400D9F820C0D9F82470D9F82030D9F867
:102D40002450D9F8202003F4FC4306F00F0AD9F8E8
:102D500024601D40D9F824B008F030080CF4C07C81
:102D600002F4F02211EA0A0100EA080807EA0C0757
:102D700006EA0206D9F820A004D0C9F8201020469F
:102D800000F0EDF9B8F1000005D061680862414635
:102D9000204600F0E6F96FEA0B0040060ED46FEA19
:102DA0000A0040060AD460684021C36BC26B01620E
:102DB0002046190C02F03F0200F0D2F92FB16068F2
:102DC00007623946204600F0C9F935B160680562EE
:102DD000D4F89C002843C4F89C0036B160680662B1
:102DE000D4F89C003043C4F89C00D4F89C00002820
:102DF00002D02046FFF7AEFDBDE8FF9F10A80040BF
:102E0000FFFFCF3F00A000402DE9F04194B08D4975
:102E10004C2204466846FDF74AFB64B18A4D20689F
:102E2000A84202D100F58070606094F898004FF0DD
:102E3000000820B108E0012014B0BDE8F081204670
:102E400084F8998000F002F92068816921F010016E
:102E5000816100F0A9FA0327064604E000F0A4FA15
:102E6000801B0A2811D8206880690007F6D42068E2
:102E7000816941F00101816100F096FA06460DE09A
:102E800000F092FA801B0A2808D9D4F89C0040F080
:102E90000100C4F89C0084F89870CCE72068806931
:102EA000C007EDD02068816941F002018161207C7A
:102EB00001282068816937D041F040018161607C40
:102EC00001282068816932D021F480418161A07C91
:102ED0000128206881692DD041F4805181612068EA
:102EE000A268816921F44071114381612068816980
:102EF00021F0A40181612068016921F010010161C4
:102F0000E068012819D010B302281BD0206881691D
:102F100041F0800181612068016941F01001016187
:102F2000E06803280ED012E021F04001C6E741F42A
:102F30008041CBE721F48051D0E72068816941F0DE
:102F4000040103E02068816941F020018161207E55
:102F50006FF0FF02D4E90773A68A1102400602EB64
:102F60000727A0F10070384327685B1E184301EB68
:102F700006463043F861A068B0F5407F11D104F1F6
:102F80002800A68C6FF00F0C89C801EB0641401E8B
:102F900002EB0322104322680CEB0713184308438B
:102FA000D060206E30B12068626ED0F8C01011433E
:102FB000C0F8C010D4E917126846D14209D0216880
:102FC000A36E51F8C82F50F8233022F007021A439D
:102FD0000A60216C49B12168626C51F8BC3F50F81D
:102FE000226023F0070232430A60A16C51B12168CC
:102FF000E36C51F8BC2F50F8233022F0700242EA03
:1030000003120A60216D51B12168626D51F8BC3F15
:1030100050F8220023F4E06242EA002008602068B1
:10302000A84204D16068816821F003018160C4F87E
:1030300094800121C4F89C8084F898102046FEF703
:10304000EBF8F9E6988A000800A0004010B5B6B089
:103050000446142130A8FDF75CFAC0216846FDF74C
:1030600058FA2149206888423CD100204FF40041A1
:10307000CDE900104A0368461C9200F007FD08B134
:10308000FEF7ADF81948016841F4807101600068ED
:1030900000F48070359015480C38016841F0020149
:1030A000016000680923602100F0020035900020D3
:1030B0003091022230A9CDE93120CDE933030C480B
:1030C00000F056F800221420114600F02DFB1420C9
:1030D00000F01CFB00221620114600F025FB1620F4
:1030E00000F014FB36B010BD00A40040EC440258C0
:1030F000000402587047000010B500680749884274
:103100000AD107490748FDF7AEFCBDE81040044A64
:103110000146012002F0E0BD10BD000000A4004007
:103120001C000024E00C0024704790F8981001293E
:1031300007D0D0F89C1041F00401C0F89C10012089
:103140007047022180F89810002201688B6923F0F3
:1031500001038B61C0F89C20104670477047704790
:1031600070477047704770477047704770477047A7
:103170002DE9F84F03247D4D00234FF001094FF056
:10318000B04B4FF00F0AE9E009FA03F73A4076D066
:103190000E7906F00306012E01D0022E18D1D0F8C8
:1031A00008C04FEA430ECE6804FA0EF82CEA080C69
:1031B00006FA0EF646EA0C068660D0F804C00E79D0
:1031C0002CEA070CC6F300169E4046EA0C06466041
:1031D0000E79F643B6070BD0C6684FEA43088F68EE
:1031E00004FA08FC26EA0C0607FA08F73743C7601A
:1031F0000E7906F00306022E12D1DE080F694FEA9F
:10320000437C00EB8606B646366A4FEADC6C0AFA67
:103210000CF807FA0CF726EA08063743CEF82070B8
:103220000F7906684FEA430807F0030704FA08FC21
:1032300007FA08F726EA0C06374307604E6816F4CB
:10324000403F1CD04A4E376847F002073760366867
:103250009F0706F00206009623F0030606F1B0462B
:10326000B6463F0FD6F80864DFF808810AFA07FC73
:10327000404526EA0C0603D14FF0000C41E06CE01B
:10328000DFF8F4C0604502D14FF0010C39E0DFF8FF
:10329000ECC0604502D14FF0020C32E0DFF8E0C034
:1032A000604502D14FF0030C2BE0DFF8D8C0604539
:1032B00002D14FF0040C24E0DFF8CCC0604502D10D
:1032C0004FF0050C1DE0DFF8C4C0604502D14FF09F
:1032D000060C16E0DFF8B8C0604502D14FF0070CCD
:1032E0000FE0DFF8B0C0604502D14FF0080C08E0F5
:1032F000DFF8A4C0604502D14FF0090C01E04FF0A7
:103300000A0C0CFA07FC4CEA060CCEF808C44F680D
:10331000DBF80060FF0226EA020600D516435F468E
:10332000CBF80060D1F804C0DBF804605FEA8C2CB5
:1033300026EA020600D516437E606E684F6826EACC
:103340000206BF0300D516436E602E684F6826EA5A
:103350000206FF0300D516432E605B1C0A6832FA92
:1033600003F67FF411AFBDE8F88F0000800000582D
:10337000F4440258000002580004025800080258A1
:10338000000C02580010025800140258001802588D
:10339000001C02580020025800240258014800680E
:1033A000000C70470010005C014880687047000006
:1033B0000800002430B590F84120202A24D190F84C
:1033C0004020012A20D0012380F84030242280F8B8
:1033D0004120202300240268156825F001051560AE
:1033E0000268156825F480551560026815680D435C
:1033F000156001680A6842F001020A6080F84130F5
:1034000080F84040002030BD022030BD30B590F83B
:103410004120202A22D190F84020012A1ED00123E9
:1034200080F84030242280F84120202400250268C2
:10343000136823F0010313600268136823F47063B8
:1034400043EA0121116001680A6842F001020A6042
:1034500080F8414080F84050002030BD022030BD4F
:1034600070B5040004D094F84100002510B106E0C6
:10347000012070BD204684F8405000F051F824200F
:1034800084F841002068016821F001010160D4E95D
:10349000001020F0706008612068816821F400410C
:1034A0008160E06821680128A06830D040F40440C1
:1034B0008860E0680228206841682BD021F4006110
:1034C000416020682021154A436813434360206807
:1034D000C26822F40042C26054F8106B0DCC104355
:1034E00040EA0320F06054F81C3CD4E90002104389
:1034F000186054F81C0D026842F001020260656415
:1035000084F84110256384F84250002070BD40F4D7
:103510000040CDE741F40061D2E7000000800002E6
:1035200010B5B6B00446142130A8FCF7F2FFC02154
:103530006846FCF7EEFF1949206888422BD100202D
:10354000219008210446CDE90010684600F09EFA5B
:1035500008B1FDF744FE1248016841F00201016024
:10356000006830AB122100F0020035904FF440703B
:10357000042283E813000B4830A9CDE93342FFF75A
:10358000F7FD07480830016841F400110160006848
:1035900000F40010359036B010BD0000005400401B
:1035A000E04402580004025802488168027811443D
:1035B0008160704708000024032010B500F0D4F8A3
:1035C00001F0AEF80F4A104914681368C4F30322DF
:1035D00003F00F038A5CC95C02F01F0201F01F01B7
:1035E000D0400A4A20FA01F11160094908600F2011
:1035F00000F010F808B1012010BD00F079F80020AB
:1036000010BD0000184402580C8B0008180000245C
:103610001400002470B50D4D04462878A0B14FF475
:103620007A71B1FBF0F00A490968B1FBF0F001F0E2
:103630001BFC48B9102C07D200222146501E00F076
:1036400073F800206C6070BD012070BD080000247C
:1036500014000024154BF0B5083B427813491A605A
:103660000B680A1F23F001030B6043681360057B9E
:10367000C67A827A437B2D07847B45EA0665C77B41
:1036800090F809C0067A90F800E045EAC24040EAA6
:10369000834040EA444040EA074040EA0C2040EAC8
:1036A000460040EA0E000860F0BD0000A0ED00E01A
:1036B000BFF35F8F044800210368034A23F480337B
:1036C000036070321160704724ED00E0074A40F05B
:1036D0000100064970321060086840F480300860CC
:1036E000BFF34F8FBFF36F8F7047000024ED00E0F2
:1036F000054808B5016841F002010160006800F06A
:103700000200009008BD0000F4440258002809DBC4
:10371000410900F01F028900012001F1E0219040E1
:10372000C1F80001704700000E4BF0B41B680D4655
:10373000C3F30223C3F10706042E00D90426191D82
:10374000072901D2002300E0DB1E012404FA06F160
:103750009C40491E2940641E994014402143F0BCFE
:1037600004F05CBD0CED00E0064900F0070210B566
:103770004FF6FF040868044B204040EA022018433B
:10378000086010BD0CED00E00000FA05134970B5AB
:103790000A68D243520705D5096801F00701814242
:1037A00013D118E00A6822F0070202430A60FFF70B
:1037B000FBFD0A4D4FF47A760446083D07E000BF52
:1037C000FFF7F2FD001BB04201D9012070BD28684F
:1037D000C0438004F4D4002070BD00000C4802589F
:1037E00010B500F057FF05490968054AC1F30211F9
:1037F000515C01F01F01C84010BD00002044025878
:103800000C8B0008494930B5484C0B1D0A6814342C
:1038100009681D68246802F00303C5F30012C1F3B0
:103820000531C4F3CC04002914FB02F200EE102A87
:10383000F8EE400A75D03F4A9FED3D1AB7EE000AF8
:103840006BB1DFED3D1A012B01D0022B64D002EEEB
:10385000101A1168F8EE422A81EEA22A21E0334CB8
:10386000283C23689B0612D5344B246801EE901A3D
:103870001168C4F3C104F8EE612AE34001EE903A06
:10388000C1F30801F8EE611A81EEA22A0BE001EE05
:10389000901ADFED2B2A00BFF8EE611A116882EE54
:1038A000A12AC1F3080101EE901A1168F8EE611A1D
:1038B00040EE811A71EE800A62EE200AC1F34621C1
:1038C00001EE101AB8EE411A31EE001AC0EE811A5C
:1038D000BCEEE11A80ED001A1168C1F3064101EE59
:1038E000101AB8EE411A31EE001AC0EE811ABCEE81
:1038F000E11A80ED011A1168C1F3066101EE101A98
:10390000B8EE411A31EE000A80EE801ABCEEC10A10
:1039100080ED020A30BD04E001EE901ADFED092AC5
:10392000BAE70021016041608160F3E72844025852
:1039300000000039384402580024744A0090D00333
:103940000024744C20BCBE4B494930B5484C0B1D7B
:103950000A681C3409681D68246802F00303C5F373
:103960000022C1F30551C4F3CC04002914FB02F278
:1039700000EE102AF8EE400A75D03F4A9FED3D1A3E
:10398000B7EE000A6BB1DFED3D1A012B01D0022B1F
:1039900064D002EE101A1168F8EE422A81EEA22AD3
:1039A00021E0334C283C23689B0612D5344B246815
:1039B00001EE901A1168C4F3C104F8EE612AE340E5
:1039C00001EE903AC1F30801F8EE611A81EEA22AE5
:1039D0000BE001EE901ADFED2B2A00BFF8EE611A22
:1039E000116882EEA12AC1F3080101EE901A116854
:1039F000F8EE611A40EE811A71EE800A62EE200A3A
:103A0000C1F3462101EE101AB8EE411A31EE001A48
:103A1000C0EE811ABCEEE11A80ED001A1168C1F304
:103A2000064101EE101AB8EE411A31EE001AC0EE4E
:103A3000811ABCEEE11A80ED011A1168C1F306612A
:103A400001EE101AB8EE411A31EE000A80EE801A2B
:103A5000BCEEC10A80ED020A30BD04E001EE901A0E
:103A6000DFED092ABAE70021016041608160F3E7D8
:103A70002844025800000039404402580024744A87
:103A80000090D0030024744C20BCBE4B2DE9FE4FA7
:103A90000546DFF8E48350F8081B0024F64FC943BD
:103AA000019005F12800264608F12408009008013D
:103AB0001DD4A86E50B1B0F5801F0CD0B0F5001F1A
:103AC0000ED0B0F5401F1ED001240FE0386840F43E
:103AD0000030386017E00198022102F067FD03E032
:103AE0000098022102F0F2FD04000CD0264628883E
:103AF000C043C00523D4A86D05281ED2DFE800F01E
:103B00000C11161B1B00AA6ED8F8001021F44011EE
:103B10001143C8F80010EAE7386840F40030386014
:103B200009E00198002102F041FD03E00098002126
:103B300002F0CCFD044674B100E00124264628883A
:103B4000C043800528D4E86D80281ED00CDC90B1DD
:103B500040280ED114E0AA6DD8F8001021F007011A
:103B60001143C8F80010EAE7C02813D0B0F5807FF1
:103B700010D001240FE0386840F40030386009E0CC
:103B80000198002102F012FD03E00098002102F0EC
:103B90009DFD04469CB126462888DFF8DC92C04390
:103BA00009F12C0940052CD4D5F8A800B0F5800FF8
:103BB00020D00DDCA0B1B0F5001F0FD115E0EA6DEB
:103BC000D8F8001021F4E0711143C8F80010E3E7C1
:103BD000B0F5C00F13D0B0F5000F10D001240FE0E6
:103BE000386840F40030386009E00198002102F0A4
:103BF000DDFC03E00098002102F068FD04467CB182
:103C000026462888C04300052DD4D5F8AC00B0F175
:103C1000007F21D00EDCA8B1B0F1807F10D116E07A
:103C2000D5F8A820D9F8001021F460011143C9F893
:103C30000010E6E7B0F1407F13D0B0F1806F10D0F4
:103C400001240FE0386840F40030386009E0019842
:103C5000002102F0ABFC03E00098002102F036FDE9
:103C6000044674B126462868C04380011FD4E86C1E
:103C7000D8B110280FD0202812D0302815D0012418
:103C800014E0D5F8AC20D9F8001021F0E061114320
:103C9000C9F80010E7E7386840F40030386004E005
:103CA0000198022102F082FC044674B1264628885D
:103CB000C043C0042BD4286EB0F5005F20D00DDCCB
:103CC000A0B1B0F5805F0FD115E06B48EA6C2030F1
:103CD000016821F0300111430160E8E7B0F5405F71
:103CE00013D0B0F5804F10D001240FE0386840F4B5
:103CF0000030386009E00198002102F057FC03E031
:103D00000098002102F0E2FC04468CB12646288887
:103D1000C043800429D4686EB0F5403F23D010DC46
:103D200008B3B0F5803F14D0B0F5003F0FD115E0D7
:103D30002A6ED8F8001021F4E0411143C8F80010B1
:103D4000E5E7B0F5802F0ED0B0F5A02F0BD0012401
:103D50000AE00198012102F029FC03E0009801210A
:103D600002F0B4FC044694B126462888C0434004BF
:103D70002AD4D5F8B000B0F1405F23D010DC08B3EE
:103D8000B0F1805F14D0B0F1005F0FD115E06A6E22
:103D9000D8F8001021F4E0211143C8F80010E4E73E
:103DA000B0F1804F0ED0B0F1A04F0BD001240AE04B
:103DB0000198012102F0FAFB03E00098012102F0D2
:103DC00085FC044674B126462888C04300041FD4ED
:103DD000286FD8B1B0F1805F0ED0B0F1005F10D085
:103DE000012414E0D5F8B020D9F8001021F0E0410A
:103DF0001143C9F80010E7E7386840F40030386034
:103E000004E00198012102F0D1FB044674B126467A
:103E10002868C043C0011ED4A86CD0B101280ED0C0
:103E2000022811D0032814D0012413E02A6FD8F8F7
:103E3000001021F040511143C8F80010E8E738683D
:103E400040F40030386004E00198022102F0AEFB3B
:103E50000446ACB126462868DFF81CB0C043ABF17D
:103E60001C0B400252D40548016841F48071016086
:103E7000FFF79AFA824611E02C4402580048025893
:103E8000FA48AA6C016821F0030111430160E2E7DE
:103E9000FFF78AFAA0EB0A00642835D8F4480068D6
:103EA000C005F5D58CBBDFF8C4A3B5F8B4100AF192
:103EB000240ADAF8000001F4407100F440708842EE
:103EC00011D0DAF80010DAF8002021F4407142F441
:103ED0008032CAF80020DAF8002022F48032CAF8D2
:103EE0000020CAF80010D5F8B400B0F5807F1AD1D0
:103EF000FFF75AFA029012E0FFF756FA0299411AB8
:103F000041F2883081420AD9032426462878DFF816
:103F10005CA3C0430AF1080AC00721D03CE0DAF8EC
:103F200000008007E8D5D5F8B410C1F301200328BC
:103F300058460DD0016821F47C510160B5F8B420D9
:103F4000DAF80010C2F30B021143CAF80010DDE7E3
:103F5000C84A036802EA111223F47C511143ECE7CA
:103F6000E86F182816D005DCA0B1082808D0102862
:103F700004D10AE020280DD028280BD001240AE023
:103F80000198012102F012FB03E00098012102F0E8
:103F90009DFB044664B126462878C04380071ED4A2
:103FA000A86F062819D2DFE800F0160C11161616B5
:103FB000EA6FDAF8001021F038011143CAF8001056
:103FC000EAE70198012102F0F1FA03E000980121EB
:103FD00002F07CFB04467CB100E0012426462878F0
:103FE000C04340071FD4D5F89400062819D2DFE853
:103FF00000F0160C11161616AA6FDAF8001021F050
:1040000007011143CAF80010E9E70198012102F005
:10401000CDFA03E00098012102F058FB0446A4B158
:1040200000E0012426462878C04380062BD4D5F82A
:104030009000B0F1405F24D011DC10B3B0F1805F8C
:1040400015D0B0F1005F10D116E0D5F89420D9F862
:10405000001021F007011143C9F80010E3E7B0F1A7
:10406000804F0ED0B0F1A04F0BD001240AE0019890
:10407000002102F09BFA03E00098022102F026FBE7
:10408000044694B126462878C04340062BD4D5F880
:104090009C00B0F5406F24D011DC10B3B0F5806FF8
:1040A00015D0B0F5006F10D116E0D5F89020DAF8F1
:1040B000001021F0E0411143CAF80010E3E7B0F529
:1040C000805F0ED0B0F5A05F0BD001240AE001980C
:1040D000002102F06BFA03E00098022102F0F6FAE8
:1040E000044694B126462878C04300062BD4D5F860
:1040F000A000B0F5C04F24D011DC10B3B0F5005FC4
:1041000015D0B0F5804F10D116E0D5F89C20D9F825
:10411000001021F4E0511143C9F80010E3E7B0F5B5
:10412000004F0ED0B0F5204F0BD001240AE00198CB
:10413000002102F03BFA03E00098022102F0C6FAE7
:10414000044654B126462878C04300071ED4D5F84B
:104150008400B0F5805F0AD00FE0D5F8A020D9F830
:10416000001021F460411143C9F80010EBE70098FA
:10417000022102F0ABFA00B10126D5F88420DAF86A
:10418000001021F440511143CAF800102878C043B0
:10419000C00613D4D5F89800B0F5807F05D10098FB
:1041A000022102F093FA00B10126D5F89820D9F83F
:1041B000001021F440711143C9F800102868C04371
:1041C000000316D4D5F8A40038B1B0F5803F09D06B
:1041D000B0F5003F0BD001240AE00198002102F065
:1041E000E5F903E00098022102F070FA04468CB170
:1041F00026462868C043400322D4D5F88800B0F58D
:10420000801F11D0B0F5001F13D0B0F5401F15D09E
:10421000012414E0D5F8A420D9F8001021F440318D
:104220001143C9F80010E4E7386840F40030386002
:1042300004E00098012102F049FA04465CB12646E8
:104240002868C043C00323D4286DA8B1B0F5803FCF
:1042500017D001241BE0D5F88820DAF8001021F4EB
:1042600040111143CAF80010EAE700004C4402581C
:1042700000480258CFFFFF00386840F40030386033
:1042800004E00198022102F091F90446E4B12646C7
:104290002868C043800005D40098022102F016FA75
:1042A00000B101262868C04380031BD4D5F88000E4
:1042B000B0B1B0F5807F0FD0B0F5007F10D0B0F571
:1042C000407F0DD001240CE05A482A6D016821F48A
:1042D000803111430160DBE7386840F4003038601A
:1042E000ECB326462868C043C00207D46A6FD8F8EA
:1042F000001021F000411143C8F800102868C043A5
:10430000C00008D4D5F8B820DBF8001021F48041B3
:104310001143CBF800102868C043800207D4EA6E2E
:10432000D8F8001021F080711143C8F800102868F7
:10433000C04340000CD4DBF8001021F40041CBF85E
:104340000010DBF80010D5F8BC201143CBF80010AA
:104350002868C04308D437486A6D016800E018E057
:1043600021F04051114301602868C043000208D485
:10437000D5F88C20DAF8001021F440011143CAF876
:10438000001028790024C04300F0010020430AD027
:104390000FE0D5F88020DAF8001021F440711143C5
:1043A000CAF800109EE70198002102F0FFF800B162
:1043B00006462879C04300F00200204305D1019849
:1043C000012102F0F3F800B106462879C04300F05D
:1043D0000400204305D10198022102F0E7F800B162
:1043E00006462879C04300F00800204305D1009814
:1043F000002102F06BF900B106462879C04300F0B5
:104400001000204305D10098012102F05FF900B1AE
:1044100006462879C04300F02000044304D10098E8
:10442000022102F053F900B916B10120BDE8FE8F58
:104430000020FBE74C4402582DE9F05F04000F46D2
:104440007ED0DFF83882D8F8000000F00F00B842C4
:104450000CD2D8F8001021F00F013943C8F8001031
:10446000D8F8000000F00F00B84269D12078844DE0
:1044700040070AD52069296801F07001884204D9F3
:10448000296821F070010143296020787C4E361D97
:1044900000070AD56069316801F07001884204D9CB
:1044A000316821F07001014331602078C0060AD5DF
:1044B000A069316801F4E061884204D9316821F4CF
:1044C000E061014331602078DFF8B4B180060BF180
:1044D000080B0CD5E1695846DBF8002002F07002A9
:1044E000914204D9026822F070020A4302602078E7
:1044F00080070AD5E068296801F00F01884204D9D5
:10450000296821F00F01014329602078C0073ED0BF
:104510005B49A2682868183920F47060104328604D
:104520006068022818D0032819D00968012819D01A
:10453000490700294ADADFF848A1AAF1080A00E091
:1045400044E0DAF8002022F007020243CAF8002013
:10455000FEF72AFF814612E009688903E9E7096846
:104560008901E6E7C905E4E7FEF71EFFA0EB0901B4
:1045700041F28830814202D90320BDE8F09F616892
:10458000DAF8000000F03800B0EBC10FECD1207871
:1045900080070AD5E068296801F00F01884204D23B
:1045A000296821F00F0101432960D8F80010404626
:1045B00001F00F01B9420BD9016821F00F01394315
:1045C0000160006800F00F00B84201D00120D4E77C
:1045D000207840070AD52069296801F070018842D7
:1045E00004D2296821F07001014329602078000776
:1045F0000AD56069316801F07001884204D23168DF
:1046000021F07001014331602078C0060AD5A0690D
:10461000316801F4E061884204D2316821F4E0613C
:1046200001433160207880060CD5E1695846DBF8FB
:10463000002002F07002914204D2026822F070025F
:104640000A43026000F06CF80E492A682B68C2F336
:10465000032203F00F038A5CC95C02F01F0201F021
:104660001F01D040084A20FA01F111600749086093
:1046700007480068BDE8F05FFEF7CCBF002000529D
:10468000184402580C8B0008180000241400002461
:104690000C00002430B500F043F80B4A0B490C4BDA
:1046A00015681468C5F3032204F00F048A5C095DE1
:1046B00002F01F0201F01F01D040064A20FA01F16A
:1046C00019601060084630BD184402580C8B000871
:1046D000180000241400002400B5FFF7DBFF054993
:1046E0000968054AC1F30211515C01F01F01C8407D
:1046F00000BD00001C4402580C8B000800B5FFF7F9
:10470000C9FF05490968054AC1F30221515C01F05E
:104710001F01C84000BD00001C4402580C8B00085B
:10472000454970B545480968434B103B11F03802C4
:1047300008D00111082A03D0102A0BD0182A0BD058
:10474000084670BD19688906FBD51968C1F3C10117
:10475000C84070BD3A4870BD3749374D18310C1DFF
:1047600024350A68096826682D6802F0030406F0FB
:104770000102C1F30511C5F3CC0515FB02F200EEF1
:10478000102AB8EE400AE9B32F4ADFED2E0AB7EE41
:10479000001A6CB1DFED2D1A012C01D0022C43D090
:1047A00002EE101A1068F8EE422A81EEA22A1EE0EC
:1047B0001C68A40611D51B6801EE901A1168C3F39A
:1047C000C103F8EE612AD84001EE900AC1F3080057
:1047D000F8EE611A81EEA22A0BE001EE901ADFEDED
:1047E0001C2A00BFF8EE611A106882EEA12AC0F3FD
:1047F000080001EE900AF8EE611A40EE201A31EE40
:10480000810A00E015E022EE000A1068C0F346209D
:10481000401C00EE900AF8EE600A80EE201ABCEE12
:10482000C10A10EE100A70BD01EE901ADFED092AE0
:10483000D8E7002070BD0000104402580090D0035B
:1048400040787D0100000039304402580024744A49
:104850000024744C20BCBE4B2DE9F05F04007DD0D9
:10486000FF4F2078FE4D1837DFF8F493103DC00756
:1048700048D0D9F80000396800F03800102815D069
:10488000182803D101F0030002280FD06068B0F5AA
:10489000803F12D010B1B0F5A02F18D0286820F4B6
:1048A00080302860286820F4802009E02868800390
:1048B00028D560680028D2D024E0286840F48030F1
:1048C0002860606888B1FEF76FFD064609E0286839
:1048D00040F480202860F0E7FEF766FD801B642826
:1048E0006FD828688003F7D50CE0FEF75DFD06461B
:1048F00005E000BFFEF758FD801B6428F0D828684B
:104900008003F7D4207841F20308D54E0C3E80078F
:1049100069D5D9F80000396810F038000ED0182891
:1049200001D188070AD0E06890B3296821F0190105
:1049300001432960FEF738FD824631E028684007D0
:1049400002D5E06800288AD0E168286820F01900C4
:1049500008432860FEF728FD824607E0DFE000BF3D
:10496000FEF722FDA0EB0A000228B9D8286840070C
:10497000F6D500BFFEF712FD40451BD82069402840
:1049800012D0316821F47C3141EA003030602AE0F5
:1049900018E000BFFEF708FDA0EB0A0002289FD830
:1049A00028684007F6D5E5E7306820F47C3040F40D
:1049B0000030EBE7207C316821F0FE4141EA0060E5
:1049C000E4E70DE1286820F001002860FEF7ECFC28
:1049D000824605E0FEF7E8FCA0EB0A0002288DD82D
:1049E00028684007F6D42078C0065DD5D9F80000C5
:1049F000DFF86CB2396800F03800ABF1040B08281E
:104A000010D0182803D101F0030001280AD0E06972
:104A10000028286838D040F080002860FEF7C4FCE9
:104A2000824623E02868C00523D5E069802876D136
:104A30001FE0206A202821D0316821F0F84141EAA6
:104A40008060306030E000BF94F82010DBF8002078
:104A500022F07C5242EA0161CBF8001024E000BF52
:104A6000FEF7A2FCA0EB0A00022898D82868C0052F
:104A7000F6D5FEF793FC4045E6D8DAE7306820F03B
:104A8000F84040F08040DCE720F080002860FEF72E
:104A90008BFC064605E000BFFEF786FC801B022863
:104AA0009DD82868C005F7D42078000729D56C4820
:104AB0006169643000298046016811D041F001012C
:104AC0000160FEF771FC064605E000BFFEF76CFCD6
:104AD000801B0228C9D8D8F800008007F6D510E05E
:104AE00021F001010160FEF75FFC064605E000BF12
:104AF000FEF75AFC801B022872D8D8F80000800705
:104B0000F6D42078800623D5A0690028286810D024
:104B100040F480502860FEF747FC064605E036E189
:104B2000FEF742FC801B02285AD828688004F7D57B
:104B30000EE020F480502860FEF736FC064604E0C4
:104B4000FEF732FC801B02284AD828688004F7D47C
:104B5000207840074FD5DFF80C81D8F8001041F4D9
:104B60008071C8F80010FEF71FFC064605E000BF84
:104B7000FEF71AFC801B642832D8D8F80000C00564
:104B8000F6D5374EA068603601280AD008B105284E
:104B900013D0306820F001003060306820F004004D
:104BA00002E0306840F001003060A06841F2883ACD
:104BB00090B1FEF7F9FB80460AE0306840F004004F
:104BC0003060EEE7FEF7F0FBA0EB0801514507D897
:104BD00030688007F6D50EE0FEF7E6FB804607E07A
:104BE00084E000BFFEF7E0FBA0EB080151457DD853
:104BF00030688007F6D4606AB0B3DFF86480D9F813
:104C0000001008F120084FF6F87B08F10409C1F301
:104C1000C2010329A8F1040A69D00228286820F0FB
:104C20008070286003D0FEF7BFFB044684E0FEF7E7
:104C3000BBFB064605E000BFFEF7B6FB801B022863
:104C400077D828688001F7D4E26A40F2F3313868F7
:104C500054F8283F884340EA02101843386004E0C3
:104C60001044025800480258B5E0217B434622898F
:104C70004FF4FE0C208A4FF0FE474902267D521E5B
:104C8000401EA1F50071C2F308088AB2761E0CEA34
:104C9000004042EA08020243504607EA06610A431E
:104CA0001A60DAF8002022F00102CAF80020D9F8D0
:104CB0000020266A22EA0B0242EAC602C9F8002056
:104CC000DAF80010A26921F00C011143CAF80010B3
:104CD0000168E26921F0020111430160016841F4B9
:104CE00080310160016841F4003101E021E027E0FA
:104CF0000160016841F480210160016841F0010117
:104D00000160286840F080702860FEF74DFB044683
:104D100005E000BFFEF748FB001B022809D8286801
:104D20008001F7D557E000BFFEF73EFB001B0228CD
:104D300002D90320BDE8F09F28688001F4D44AE03E
:104D400039680128D8F8000021D0A26A01F00303D5
:104D500093421CD1E26AC1F305118A4217D1216B3B
:104D6000C0F30802491E8A4211D1616BC0F346228A
:104D7000491E91420BD1A16BC0F30642491E9142DC
:104D800005D1E16BC0F30660491E814201D00120CC
:104D9000D0E7A16C4E46D9F80000C0F3CC008142A8
:104DA00019D0DAF80000554620F00100CAF80000DA
:104DB000FEF7FAFA4FEA0007FEF7F6FAB842FBD020
:104DC000A26C306820EA0B0040EAC200306028681C
:104DD00040F0010028600020ACE700002DE9F04120
:104DE00004001D4616460F4603D0D4F8880018B1BB
:104DF00008E00120BDE8F081002084F8840020460E
:104E000000F052FB2420C4F888002068016821F0DB
:104E100001010160A06A10B1204602F0F7FA2046B5
:104E200002F0D8FE0128E5D0206871050D4A41EA5C
:104E30000541836843F4804383602068836823F4DA
:104E400000433B4383602068036813400B430360C7
:104E50002068016841F0010101602046BDE8F04191
:104E600002F038BBFFFF00FC401EB0F1807F10B5A0
:104E700001D3012010BD4FF0E02460610F216017C5
:104E800003F0CCF90020A0610721216110BD30B5ED
:104E900090F88410012918D0012280F88420242160
:104EA000C0F888100022202401680B680D6823F0E8
:104EB000005325F001050D60426601680B60C0F8E3
:104EC000884080F88420104630BD022030BD10B5E7
:104ED0000446D0F88C00202801D0022010BD61B11A
:104EE0005AB10123E36600202067204603F048F80A
:104EF0000028F3D1E16E012901D0012010BD226804
:104F000010211162226852E8001F41F0100142E8AE
:104F10000013002BF6D110BD10B50068314A904245
:104F20005ED1314802780F2A0AD1007E40B9192992
:104F300006D12E492C4801F035FF2D49012008707B
:104F40001922294901F51B70FFF7C1FF29482A4999
:104F5000D0F88000006888423AD02749183188424A
:104F600036D025493031884232D0234948318842F1
:104F70002ED02149603188422AD01F497831884299
:104F800026D01D499031884222D01B49A831884241
:104F90001ED01A4988421BD018491831884217D0B0
:104FA00016493031884213D01449483188420FD015
:104FB0001249603188420BD010497831884207D0BD
:104FC0000E499031884203D00C49A831884203D160
:104FD000016821F0080102E0016821F0040101608C
:104FE00010BD000000480040D40D0024801B0024A8
:104FF000040000244010002410000240100402406D
:10500000704770B5044690F8840001281DD0012235
:1050100084F884202420C4F8880020680568026889
:1050200022F0010202602068826822F060620A4376
:105030008260204602F0C8F9226820210020156015
:10504000C4F8881084F8840070BD022070BD70B56B
:10505000044690F8840001281DD0012284F88420A1
:105060002420C4F8880020680568026822F0010244
:1050700002602068826822F060420A438260204613
:1050800002F0A2F92268202100201560C4F88810DF
:1050900084F8840070BD022070BD7047704770476F
:1050A0002DE9F04107680025044640F60F0302266B
:1050B000F8693968BA6818420AD183067ED501F0CA
:1050C000200302F0805C53EA0C0377D0616F7EE12D
:1050D000D44BDFF854C3134001EA0C0C53EA0C0C18
:1050E0006CD05FEAC07C0CD05FEAC15C09D54FF0A0
:1050F000010CC7F820C0D4F8907047F00107C4F83D
:105100009070870709D5D70707D027683E62D4F883
:10511000906046F00406C4F8906046070AD5D607AA
:1051200008D0276804263E62D4F8906046F0020654
:10513000C4F8906006070CD501F020061E4308D085
:10514000266808233362D4F8903043F00803C4F88B
:10515000903003050BD54B0109D526684FF4006349
:105160003362D4F8903043F02003C4F89030D4F880
:105170009030002B3DD0800609D501F0200002F0D0
:105180008051084303D0616F09B1204688472168E8
:10519000D4F890008968490602D410F0280F2AD06C
:1051A000204602F06DFA2068806840061ED520680F
:1051B000083050E8001F21F0400100E021E040E805
:1051C0000012002AF3D1D4F8800078B19749016524
:1051D000D4F88000FCF7EAFA00280AD0D4F880005E
:1051E000016D00E02046BDE8F04108472046FFF78A
:1051F00056FFBDE8F0812046FFF751FFC4F89050FC
:10520000F7E7D4F86CC02023BCF1010F7ED15FEA30
:10521000C06C7BD55FEAC16C78D5102038622068FD
:105220008068400673D5D4F8802081491068884290
:1052300034D07F491831884230D07D49303188429E
:105240002CD07B494831884228D079496031884246
:1052500024D077497831884220D0754990318842EE
:105260001CD07349A831884218D07249884215D0A1
:1052700070491831884211D06E49303188420DD0C2
:105280006C494831884209D06A496031884205D06A
:1052900068497831884201D06649903140684FF4BE
:1052A00080770004000C40D0B4F85C1081423CD9F7
:1052B000A4F85E00D069B8422FD0216851E8000FF1
:1052C00020F4807041E80002002AF6D120680830FE
:1052D00050E8001F21F0010140E80012002AF5D13A
:1052E0002068083050E8001F21F0400140E800121B
:1052F000002AF5D1C4F88C30E566206850E8001F1C
:1053000021F0100140E80012002A01E04AE019E013
:10531000F3D1D4F88000FCF799F82667B4F85C0064
:10532000B4F85E10401A81B208E0B4F85C10814213
:105330007FF466AFD069B842FAD126672046FFF7FE
:10534000EBFD56E7B4F85C00B4F85E10B4F85E20EC
:10535000401A81B2002AF4D00029F2D0226852E823
:10536000000F20F4907042E80007002FF6D1324F72
:10537000206800F1080050E8002F02EA070240E828
:10538000002CBCF1000FF3D1C4F88C30E5666567E2
:10539000226852E8000F20F0100042E80003002BC2
:1053A000F6D1CAE7C60209D5560207D54FF48010D8
:1053B00038622046BDE8F041FFF770BE06060AD508
:1053C00001F0800602F40002164304D0A16F002908
:1053D0007FF408AF0DE7420611D54A060FD52046E7
:1053E000016851E8002F22F0400241E80024002C1F
:1053F000F6D1C0F88830856700F095FAF9E6020228
:1054000006D54A0004D52046BDE8F041FFF745BE69
:10541000C00196D5002994DA2046BDE8F041FFF797
:10542000EFBD000001000010200100047F7500089E
:105430001000024010040240FEFFFFEF10B5040010
:1054400003D0D4F8880010B107E0012010BD00207F
:1054500084F88400204600F027F82420C4F888004F
:105460002068016821F001010160A06A10B12046A6
:1054700001F0CCFF204602F0ADFB0128E6D0206809
:10548000416821F4904141602068816821F02A013F
:1054900081602068016841F0010101602046BDE89B
:1054A000104002F017B800002DE9F04FB7B00646E3
:1054B000142130A8FBF72DF8C0216846FBF729F826
:1054C000A14C0227A1494FF008093068083C9E4DC5
:1054D0004FF0000888422ED10020CDF878800221BC
:1054E000CDE900106846FEF7D1FA08B1FBF777FE68
:1054F000286840F400202860286800F400203590D7
:10550000206840F080002060206830AA4FF4C0413D
:1055100000F0800082E88201CDE934908C4830A907
:10552000CDF8CC80FDF724FE002234201146FEF792
:10553000FBF8342045E08749DFF81CB2DFF81CA2F5
:10554000884243D10020CDF878800221CDE90010B7
:105550006846FEF79BFA08B1FBF741FE286840F069
:1055600080402860286800F080403590206840F036
:1055700001002060206800F001003590206840F0B4
:1055800002002060206830A90B2400F00200359052
:105590004FF4004081E88101CDE933845846FDF79E
:1055A000E7FDCDF8C09030A9CDE93178CDE933845D
:1055B0005046FDF7DDFD002252201146FEF7B4F8FB
:1055C0005220FEF7A3F837B0BDE8F08F64494FF0E2
:1055D0000709884240D10020CDF87C800121CDE927
:1055E00000106846FEF752FA08B1FBF7F8FD56487E
:1055F0000830016841F010010160006800F01000FF
:105600003590206840F002002060206800F0020021
:105610003590206840F001002060206830A94C4699
:1056200000F001003590802081E88101CDE93389C7
:105630005046FDF79DFD30A94FF4007081E88101CF
:10564000CDE933845846FDF793FD0022252011460D
:10565000FEF76AF82520B4E74249884227D10020A6
:10566000CDF878800221CDE900106846FEF70EFAE9
:1056700008B1FBF7B4FD286840F4003028602868C2
:1056800000F400303590206840F008002060206869
:1056900030AA702100F0080082E88201CDE9349040
:1056A000314830A9CDF8CC80FDF762FD8BE72F495A
:1056B000884288D10021CDF8788002226846CDE961
:1056C0000021FEF7E3F908B1FBF789FD286840F4F3
:1056D00080202860286800F480203590206840F001
:1056E0000400206020684FF44061309130A900F040
:1056F00004004546CDE93178CDF8CC80CDE9349031
:105700001B48FDF735FD1B4C2D211B480215206061
:105710008315C4E90115C4E9035265614FF44030B3
:10572000C4E90653C4E908052046FCF7F5FC08B1B6
:10573000FBF755FD0022C6F8804027201146A663DE
:10574000FDF7F2FF27203CE7E8440258004C0040F8
:10575000001C025800780040000002580004025863
:105760000010014000440040000C02580048004076
:1057700000080258D41000241000024030B4D0F8C1
:105780008C30202B02D0022030BC7047A9B1A2B1CE
:105790000B4D00240368C466AB420BD05B681B0250
:1057A00008D5046854E8003F43F0806344E80035BE
:1057B000002DF6D130BC02F037BC0120E4E7000038
:1057C000000C005830B4204A016891421DD11F4B93
:1057D0004FF4FF741E4A1888115C0A290AD00D295B
:1057E00003D0A04201D8401C188080B2111819487B
:1057F000012225E00028F8D0A04201D80021115450
:1058000015490120087030BC704714490B68984254
:10581000F9D113480188134A1288491CC1F30801C1
:10582000914206D0104A05881278104C62550180CA
:1058300003E00F480168491C01600B49012218462A
:1058400030BCFFF79BBF0000001001409A0000240D
:10585000A01D0024180F002498000024B00000248C
:10586000A6000024A80000249C000024142B00247F
:10587000DC0C002470472DE9F8430446D0F888007A
:10588000984616460D46202802D00220BDE8F8832F
:10589000A5B19EB10021C4F890102120C4F8880061
:1058A0001834FDF781FD814654F8100CA687E68771
:1058B0002027183CB0F5805F02D003E00120E5E727
:1058C000206910B12E46002510E000260EE0802150
:1058D000204602F031FCC0B9DEB116F8010B216898
:1058E0008862B4F85600401EA4F85600B4F856007A
:1058F0004B464FF00002CDF800800028E7D14FF072
:105900004001204602F018FC48B1C4F8887003201A
:10591000BCE735F8020B2168C0F30800E0E7C4F8E3
:1059200088700020B2E77047FEE70A6802600A79D3
:1059300042724A7902F0010202714A79C2F34002CE
:1059400042714A79C2F3800282714A79C2F3C0027D
:10595000C2714A79D2090272C97981727047000016
:10596000B1F80120F3EE093A9FED223A52BA00EE67
:10597000102AB2EE094A9FED202AB8EE400ADFED68
:105980001F0ADFED1F2A9FED1F1A20EE230ADFED0D
:105990001E1AC0EE033A33EEC40AB7EEC03A80EDE9
:1059A000083BCA780B79120142EA131200EE102A62
:1059B000B8EE400A20EE020A80EE202A32EE620A99
:1059C000B7EEC02A80ED0A2B0B794A7903F00F035A
:1059D00042EA032200EE102AB8EE400A20EE010A45
:1059E00080EE201A31EE610AB7EEC00A80ED100B8E
:1059F0000878704700FF7F470000024300F07F45B2
:105A0000000082420000C8420000484210B5444CE9
:105A10002DED028B82B094E80F0000F0C5F9103430
:105A200094E80F00103C00F0BFF9203494E80F0018
:105A3000203C00F0B9F9303494E80F00303C00F01D
:105A4000B3F9A06C012100900846D4E9102300F0BE
:105A5000CBF9A06C022100900120D4E9102300F0C2
:105A6000C3F9A06C032100900120D4E9102300F0B9
:105A7000BBF9A06C042100900120D4E9102300F0B0
:105A8000B3F9032301211A46084600F0F1F9032374
:105A900002211A46012000F0EBF9032301201A46E7
:105AA000194600F0E5F9032304211A46012000F00D
:105AB000DFF99FED1C8A01210846B0EE480A00F08C
:105AC000F1F902210120B0EE480A00F0EBF90321C0
:105AD0000120B0EE480A00F0E5F904210120B0EE03
